{"contracts/simple/SimpleAIOracle.sol":{"SimpleAIOracle":{"abi":[{"inputs":[],"stateMutability":"nonpayable","type":"constructor"},{"anonymous":false,"inputs":[{"indexed":true,"internalType":"bytes32","name":"requestId","type":"bytes32"},{"indexed":true,"internalType":"address","name":"requester","type":"address"},{"indexed":false,"internalType":"string","name":"prompt","type":"string"}],"name":"AIRequestCreated","type":"event"},{"anonymous":false,"inputs":[{"indexed":true,"internalType":"bytes32","name":"requestId","type":"bytes32"},{"indexed":false,"internalType":"string","name":"response","type":"string"},{"indexed":false,"internalType":"uint8","name":"confidence","type":"uint8"}],"name":"AIRequestFulfilled","type":"event"},{"anonymous":false,"inputs":[{"indexed":true,"internalType":"uint256","name":"jobId","type":"uint256"},{"indexed":true,"internalType":"address","name":"freelancer","type":"address"},{"indexed":false,"internalType":"uint8","name":"matchScore","type":"uint8"}],"name":"JobMatchGenerated","type":"event"},{"anonymous":false,"inputs":[{"indexed":false,"internalType":"string","name":"parameter","type":"string"},{"indexed":false,"internalType":"uint256","name":"value","type":"uint256"}],"name":"OracleConfigUpdated","type":"event"},{"anonymous":false,"inputs":[{"indexed":true,"internalType":"bytes32","name":"role","type":"bytes32"},{"indexed":true,"internalType":"bytes32","name":"previousAdminRole","type":"bytes32"},{"indexed":true,"internalType":"bytes32","name":"newAdminRole","type":"bytes32"}],"name":"RoleAdminChanged","type":"event"},{"anonymous":false,"inputs":[{"indexed":true,"internalType":"bytes32","name":"role","type":"bytes32"},{"indexed":true,"internalType":"address","name":"account","type":"address"},{"indexed":true,"internalType":"address","name":"sender","type":"address"}],"name":"RoleGranted","type":"event"},{"anonymous":false,"inputs":[{"indexed":true,"internalType":"bytes32","name":"role","type":"bytes32"},{"indexed":true,"internalType":"address","name":"account","type":"address"},{"indexed":true,"internalType":"address","name":"sender","type":"address"}],"name":"RoleRevoked","type":"event"},{"anonymous":false,"inputs":[{"indexed":true,"internalType":"address","name":"student","type":"address"},{"indexed":true,"internalType":"uint256","name":"courseId","type":"uint256"},{"indexed":false,"internalType":"uint8","name":"score","type":"uint8"}],"name":"SkillAssessmentCompleted","type":"event"},{"inputs":[],"name":"AI_PROCESSOR_ROLE","outputs":[{"internalType":"bytes32","name":"","type":"bytes32"}],"stateMutability":"view","type":"function"},{"inputs":[],"name":"DEFAULT_ADMIN_ROLE","outputs":[{"internalType":"bytes32","name":"","type":"bytes32"}],"stateMutability":"view","type":"function"},{"inputs":[],"name":"ORACLE_OPERATOR_ROLE","outputs":[{"internalType":"bytes32","name":"","type":"bytes32"}],"stateMutability":"view","type":"function"},{"inputs":[{"internalType":"bytes32","name":"","type":"bytes32"}],"name":"aiRequests","outputs":[{"internalType":"bytes32","name":"requestId","type":"bytes32"},{"internalType":"address","name":"requester","type":"address"},{"internalType":"string","name":"prompt","type":"string"},{"internalType":"string","name":"context","type":"string"},{"internalType":"uint256","name":"timestamp","type":"uint256"},{"internalType":"bool","name":"fulfilled","type":"bool"},{"internalType":"string","name":"response","type":"string"},{"internalType":"uint8","name":"confidence","type":"uint8"}],"stateMutability":"view","type":"function"},{"inputs":[],"name":"assessmentFee","outputs":[{"internalType":"uint256","name":"","type":"uint256"}],"stateMutability":"view","type":"function"},{"inputs":[{"internalType":"bytes32","name":"requestId","type":"bytes32"},{"internalType":"string","name":"response","type":"string"},{"internalType":"uint8","name":"confidence","type":"uint8"}],"name":"fulfillAIRequest","outputs":[],"stateMutability":"nonpayable","type":"function"},{"inputs":[{"internalType":"uint256","name":"jobId","type":"uint256"}],"name":"getJobMatches","outputs":[{"components":[{"internalType":"uint256","name":"jobId","type":"uint256"},{"internalType":"address","name":"freelancer","type":"address"},{"internalType":"uint8","name":"matchScore","type":"uint8"},{"internalType":"string[]","name":"matchedSkills","type":"string[]"},{"internalType":"string","name":"reasoning","type":"string"},{"internalType":"uint8","name":"confidence","type":"uint8"},{"internalType":"uint256","name":"timestamp","type":"uint256"}],"internalType":"struct SimpleAIOracle.JobMatch[]","name":"","type":"tuple[]"}],"stateMutability":"view","type":"function"},{"inputs":[{"internalType":"bytes32","name":"role","type":"bytes32"}],"name":"getRoleAdmin","outputs":[{"internalType":"bytes32","name":"","type":"bytes32"}],"stateMutability":"view","type":"function"},{"inputs":[{"internalType":"address","name":"student","type":"address"},{"internalType":"uint256","name":"courseId","type":"uint256"}],"name":"getSkillAssessment","outputs":[{"components":[{"internalType":"address","name":"student","type":"address"},{"internalType":"uint256","name":"courseId","type":"uint256"},{"internalType":"uint8","name":"score","type":"uint8"},{"internalType":"string[]","name":"strengths","type":"string[]"},{"internalType":"string[]","name":"improvements","type":"string[]"},{"internalType":"uint8","name":"confidence","type":"uint8"},{"internalType":"uint256","name":"timestamp","type":"uint256"}],"internalType":"struct SimpleAIOracle.SkillAssessment","name":"","type":"tuple"}],"stateMutability":"view","type":"function"},{"inputs":[{"internalType":"address","name":"student","type":"address"}],"name":"getStudentAssessments","outputs":[{"components":[{"internalType":"address","name":"student","type":"address"},{"internalType":"uint256","name":"courseId","type":"uint256"},{"internalType":"uint8","name":"score","type":"uint8"},{"internalType":"string[]","name":"strengths","type":"string[]"},{"internalType":"string[]","name":"improvements","type":"string[]"},{"internalType":"uint8","name":"confidence","type":"uint8"},{"internalType":"uint256","name":"timestamp","type":"uint256"}],"internalType":"struct SimpleAIOracle.SkillAssessment[]","name":"","type":"tuple[]"}],"stateMutability":"view","type":"function"},{"inputs":[{"internalType":"bytes32","name":"role","type":"bytes32"},{"internalType":"address","name":"account","type":"address"}],"name":"grantRole","outputs":[],"stateMutability":"nonpayable","type":"function"},{"inputs":[{"internalType":"address","name":"","type":"address"},{"internalType":"uint256","name":"","type":"uint256"}],"name":"hasAssessment","outputs":[{"internalType":"bool","name":"","type":"bool"}],"stateMutability":"view","type":"function"},{"inputs":[{"internalType":"bytes32","name":"role","type":"bytes32"},{"internalType":"address","name":"account","type":"address"}],"name":"hasRole","outputs":[{"internalType":"bool","name":"","type":"bool"}],"stateMutability":"view","type":"function"},{"inputs":[{"internalType":"uint256","name":"","type":"uint256"},{"internalType":"uint256","name":"","type":"uint256"}],"name":"jobMatches","outputs":[{"internalType":"uint256","name":"jobId","type":"uint256"},{"internalType":"address","name":"freelancer","type":"address"},{"internalType":"uint8","name":"matchScore","type":"uint8"},{"internalType":"string","name":"reasoning","type":"string"},{"internalType":"uint8","name":"confidence","type":"uint8"},{"internalType":"uint256","name":"timestamp","type":"uint256"}],"stateMutability":"view","type":"function"},{"inputs":[],"name":"matchingFee","outputs":[{"internalType":"uint256","name":"","type":"uint256"}],"stateMutability":"view","type":"function"},{"inputs":[{"internalType":"bytes32","name":"role","type":"bytes32"},{"internalType":"address","name":"account","type":"address"}],"name":"renounceRole","outputs":[],"stateMutability":"nonpayable","type":"function"},{"inputs":[],"name":"requestCounter","outputs":[{"internalType":"uint256","name":"","type":"uint256"}],"stateMutability":"view","type":"function"},{"inputs":[{"internalType":"uint256","name":"jobId","type":"uint256"},{"internalType":"string","name":"freelancerProfile","type":"string"},{"internalType":"string","name":"jobRequirements","type":"string"}],"name":"requestJobMatching","outputs":[{"internalType":"bytes32","name":"","type":"bytes32"}],"stateMutability":"payable","type":"function"},{"inputs":[{"internalType":"uint256","name":"courseId","type":"uint256"},{"internalType":"string","name":"studentData","type":"string"},{"internalType":"string","name":"courseContent","type":"string"}],"name":"requestSkillAssessment","outputs":[{"internalType":"bytes32","name":"","type":"bytes32"}],"stateMutability":"payable","type":"function"},{"inputs":[{"internalType":"bytes32","name":"role","type":"bytes32"},{"internalType":"address","name":"account","type":"address"}],"name":"revokeRole","outputs":[],"stateMutability":"nonpayable","type":"function"},{"inputs":[{"internalType":"address","name":"","type":"address"},{"internalType":"uint256","name":"","type":"uint256"}],"name":"studentAssessments","outputs":[{"internalType":"address","name":"student","type":"address"},{"internalType":"uint256","name":"courseId","type":"uint256"},{"internalType":"uint8","name":"score","type":"uint8"},{"internalType":"uint8","name":"confidence","type":"uint8"},{"internalType":"uint256","name":"timestamp","type":"uint256"}],"stateMutability":"view","type":"function"},{"inputs":[{"internalType":"bytes4","name":"interfaceId","type":"bytes4"}],"name":"supportsInterface","outputs":[{"internalType":"bool","name":"","type":"bool"}],"stateMutability":"view","type":"function"},{"inputs":[{"internalType":"uint256","name":"_assessmentFee","type":"uint256"},{"internalType":"uint256","name":"_matchingFee","type":"uint256"}],"name":"updateFees","outputs":[],"stateMutability":"nonpayable","type":"function"},{"inputs":[],"name":"withdrawFees","outputs":[],"stateMutability":"nonpayable","type":"function"}],"evm":{"bytecode":{"linkReferences":{},"object":"608060405266038d7ea4c6800060075566071afd498d00006008553480156200002757600080fd5b50600180556200003960003362000097565b620000657ff9b712ed3cd0e90cdc9d1abac8fb677bf018af115fb294c768a96b48bd6922c53362000097565b620000917f9fca9093f2e979c480b411459971c1bc3e0670071e510abc486ce8a069705f0c3362000097565b62000138565b6000828152602081815260408083206001600160a01b038516845290915290205460ff1662000134576000828152602081815260408083206001600160a01b03851684529091529020805460ff19166001179055620000f33390565b6001600160a01b0316816001600160a01b0316837f2f8788117e7eff1d82e926ec794901d17c78024a50270940304540a733656f0d60405160405180910390a45b5050565b61326080620001486000396000f3fe60806040526004361061014b5760003560e01c8063793af51f116100b6578063a217fddf1161006f578063a217fddf146103ef578063cfc0ef1b14610404578063d547741f1461043f578063d72354bf1461045f578063efa105ef14610491578063f1b757f6146104a757600080fd5b8063793af51f146103185780638a236b691461032b57806391d148541461035857806393032ba514610378578063973a814e146103ac5780639868bca4146103c257600080fd5b806333ef51741161010857806333ef51741461024c57806336568abe14610280578063476343ee146102a057806352c3b282146102b55780636db79437146102cb5780636f979de0146102eb57600080fd5b806301ffc9a71461015057806310a2a3f61461018557806311d11a5b146101a6578063123e8fa8146101da578063248a9ca3146101fc5780632f2ff15d1461022c575b600080fd5b34801561015c57600080fd5b5061017061016b3660046127d2565b6104ff565b60405190151581526020015b60405180910390f35b61019861019336600461289f565b610536565b60405190815260200161017c565b3480156101b257600080fd5b506101987ff9b712ed3cd0e90cdc9d1abac8fb677bf018af115fb294c768a96b48bd6922c581565b3480156101e657600080fd5b506101fa6101f536600461290c565b610712565b005b34801561020857600080fd5b5061019861021736600461296d565b60009081526020819052604090206001015490565b34801561023857600080fd5b506101fa6102473660046129a2565b6109d7565b34801561025857600080fd5b5061026c61026736600461296d565b610a01565b60405161017c989796959493929190612a1e565b34801561028c57600080fd5b506101fa61029b3660046129a2565b610bf0565b3480156102ac57600080fd5b506101fa610c6e565b3480156102c157600080fd5b5061019860075481565b3480156102d757600080fd5b506101fa6102e6366004612a98565b610ca5565b3480156102f757600080fd5b5061030b610306366004612aba565b610d69565b60405161017c9190612bb4565b61019861032636600461289f565b611107565b34801561033757600080fd5b5061034b61034636600461296d565b61129e565b60405161017c9190612bc7565b34801561036457600080fd5b506101706103733660046129a2565b6114bc565b34801561038457600080fd5b506101987f9fca9093f2e979c480b411459971c1bc3e0670071e510abc486ce8a069705f0c81565b3480156103b857600080fd5b5061019860065481565b3480156103ce57600080fd5b506103e26103dd366004612c9a565b6114e5565b60405161017c9190612cb5565b3480156103fb57600080fd5b50610198600081565b34801561041057600080fd5b5061017061041f366004612aba565b600560209081526000928352604080842090915290825290205460ff1681565b34801561044b57600080fd5b506101fa61045a3660046129a2565b61173f565b34801561046b57600080fd5b5061047f61047a366004612a98565b611764565b60405161017c96959493929190612d17565b34801561049d57600080fd5b5061019860085481565b3480156104b357600080fd5b506104c76104c2366004612aba565b611855565b604080516001600160a01b039096168652602086019490945260ff92831693850193909352166060830152608082015260a00161017c565b60006001600160e01b03198216637965db0b60e01b148061053057506301ffc9a760e01b6001600160e01b03198316145b92915050565b60006008543410156105825760405162461bcd60e51b815260206004820152601060248201526f496e73756666696369656e742066656560801b60448201526064015b60405180910390fd5b600061058c6118b3565b9050600061059986611916565b85856040516020016105ad93929190612d62565b60408051808303601f190181526101008301825284835233602080850191825284840183815284518086018652600c81526b4a4f425f4d41544348494e4760a01b818401526060870152426080870152600060a087018190528551808401875281815260c088015260e08701819052888152600292839052949094208551815591516001830180546001600160a01b0319166001600160a01b039092169190911790559251919450918201906106639082612e9a565b50606082015160038201906106789082612e9a565b506080820151600482015560a082015160058201805460ff191691151591909117905560c082015160068201906106af9082612e9a565b5060e091909101516007909101805460ff191660ff909216919091179055604051339083907f39e6f68097d845c6836791116b72c7711f44f039ad73d939dc90462c018ee51b90610701908590612f5a565b60405180910390a350949350505050565b7f9fca9093f2e979c480b411459971c1bc3e0670071e510abc486ce8a069705f0c61073c81611a22565b610744611a2f565b60008481526002602052604090205484146107955760405162461bcd60e51b815260206004820152601160248201527014995c5d595cdd081b9bdd08199bdd5b99607a1b6044820152606401610579565b60008481526002602052604090206005015460ff16156107f75760405162461bcd60e51b815260206004820152601960248201527f5265717565737420616c72656164792066756c66696c6c6564000000000000006044820152606401610579565b60648260ff16111561084b5760405162461bcd60e51b815260206004820152601860248201527f496e76616c696420636f6e666964656e6365206c6576656c00000000000000006044820152606401610579565b60008481526002602052604090206006016108668482612e9a565b50600084815260026020818152604080842060078101805460ff891660ff1991821617909155600582018054909116600117905581518083018352601081526f14d2d2531317d054d4d154d4d351539560821b9084015293889052919052517f66ee5478c1bd54b76f7edaf2da83e5c01a82c6d4895c5d05de485a70d1147623916108f691600390910190612f6d565b6040518091039020036109135761090e848484611a88565b61098e565b604080518082018252600c81526b4a4f425f4d41544348494e4760a01b6020918201526000868152600290915281902090517f0cd429f865ae03947491fc7601176f1ef46bd8996e58f5c50f9929f83ebd54fe9161097691600390910190612f6d565b60405180910390200361098e5761098e848484611e3d565b837f6ea0ef28cc579c8a8c840acd75e4086fad25279177678267fa1ca814f9e7783e84846040516109c0929190612fe3565b60405180910390a26109d160018055565b50505050565b6000828152602081905260409020600101546109f281611a22565b6109fc8383612224565b505050565b600260208190526000918252604090912080546001820154928201805491936001600160a01b03169291610a3490612e12565b80601f0160208091040260200160405190810160405280929190818152602001828054610a6090612e12565b8015610aad5780601f10610a8257610100808354040283529160200191610aad565b820191906000526020600020905b815481529060010190602001808311610a9057829003601f168201915b505050505090806003018054610ac290612e12565b80601f0160208091040260200160405190810160405280929190818152602001828054610aee90612e12565b8015610b3b5780601f10610b1057610100808354040283529160200191610b3b565b820191906000526020600020905b815481529060010190602001808311610b1e57829003601f168201915b50505050600483015460058401546006850180549495929460ff909216935090610b6490612e12565b80601f0160208091040260200160405190810160405280929190818152602001828054610b9090612e12565b8015610bdd5780601f10610bb257610100808354040283529160200191610bdd565b820191906000526020600020905b815481529060010190602001808311610bc057829003601f168201915b5050506007909301549192505060ff1688565b6001600160a01b0381163314610c605760405162461bcd60e51b815260206004820152602f60248201527f416363657373436f6e74726f6c3a2063616e206f6e6c792072656e6f756e636560448201526e103937b632b9903337b91039b2b63360891b6064820152608401610579565b610c6a82826122a8565b5050565b6000610c7981611a22565b60405133904780156108fc02916000818181858888f19350505050158015610c6a573d6000803e3d6000fd5b6000610cb081611a22565b6007839055600882905560408051818152600d818301526c6173736573736d656e7446656560981b60608201526020810185905290517fdfa8893efee75a8a75efb669b7e08e54a0d1a26ae92f0c09fffb3e0d89c5ab549181900360800190a160408051818152600b818301526a6d61746368696e6746656560a81b60608201526020810184905290517fdfa8893efee75a8a75efb669b7e08e54a0d1a26ae92f0c09fffb3e0d89c5ab549181900360800190a1505050565b6040805160e081018252600080825260208083018290528284018290526060808401819052608084015260a0830182905260c083018290526001600160a01b0386168252600581528382208583529052919091205460ff16610e045760405162461bcd60e51b8152602060048201526014602482015273105cdcd95cdcdb595b9d081b9bdd08199bdd5b9960621b6044820152606401610579565b6001600160a01b038316600090815260036020908152604080832080548251818502810185019093528083529192909190849084015b8282101561105c57600084815260208082206040805160e0810182526007870290920180546001600160a01b03168352600181015483850152600281015460ff168383015260038101805483518187028101870190945280845293959194606087019491929084015b82821015610f4f578382906000526020600020018054610ec290612e12565b80601f0160208091040260200160405190810160405280929190818152602001828054610eee90612e12565b8015610f3b5780601f10610f1057610100808354040283529160200191610f3b565b820191906000526020600020905b815481529060010190602001808311610f1e57829003601f168201915b505050505081526020019060010190610ea3565b50505050815260200160048201805480602002602001604051908101604052809291908181526020016000905b82821015611028578382906000526020600020018054610f9b90612e12565b80601f0160208091040260200160405190810160405280929190818152602001828054610fc790612e12565b80156110145780601f10610fe957610100808354040283529160200191611014565b820191906000526020600020905b815481529060010190602001808311610ff757829003601f168201915b505050505081526020019060010190610f7c565b50505090825250600582015460ff166020808301919091526006909201546040909101529082526001929092019101610e3a565b50505050905060005b81518110156110c7578382828151811061108157611081613008565b602002602001015160200151036110b5578181815181106110a4576110a4613008565b602002602001015192505050610530565b806110bf81613034565b915050611065565b5060405162461bcd60e51b8152602060048201526014602482015273105cdcd95cdcdb595b9d081b9bdd08199bdd5b9960621b6044820152606401610579565b600060075434101561114e5760405162461bcd60e51b815260206004820152601060248201526f496e73756666696369656e742066656560801b6044820152606401610579565b33600090815260056020908152604080832087845290915290205460ff16156111b95760405162461bcd60e51b815260206004820152601960248201527f4173736573736d656e7420616c726561647920657869737473000000000000006044820152606401610579565b60006111c36118b3565b905060006111d086611916565b85856040516020016111e49392919061304d565b60408051808303601f190181526101008301825284835233602080850191825284840183815284518086018652601081526f14d2d2531317d054d4d154d4d351539560821b818401526060870152426080870152600060a087018190528551808401875281815260c088015260e08701819052888152600292839052949094208551815591516001830180546001600160a01b0319166001600160a01b039092169190911790559251919450918201906106639082612e9a565b606060046000838152602001908152602001600020805480602002602001604051908101604052809291908181526020016000905b828210156114b157600084815260208082206040805160e081018252600687029092018054835260018101546001600160a01b03811684860152600160a01b900460ff168383015260028101805483518187028101870190945280845293959194606087019491929084015b828210156113eb57838290600052602060002001805461135e90612e12565b80601f016020809104026020016040519081016040528092919081815260200182805461138a90612e12565b80156113d75780601f106113ac576101008083540402835291602001916113d7565b820191906000526020600020905b8154815290600101906020018083116113ba57829003601f168201915b50505050508152602001906001019061133f565b50505050815260200160038201805461140390612e12565b80601f016020809104026020016040519081016040528092919081815260200182805461142f90612e12565b801561147c5780601f106114515761010080835404028352916020019161147c565b820191906000526020600020905b81548152906001019060200180831161145f57829003601f168201915b5050509183525050600482015460ff1660208083019190915260059092015460409091015290825260019290920191016112d3565b505050509050919050565b6000918252602082815260408084206001600160a01b0393909316845291905290205460ff1690565b6001600160a01b0381166000908152600360209081526040808320805482518185028101850190935280835260609492939192909184015b828210156114b157600084815260208082206040805160e0810182526007870290920180546001600160a01b03168352600181015483850152600281015460ff168383015260038101805483518187028101870190945280845293959194606087019491929084015b828210156116325783829060005260206000200180546115a590612e12565b80601f01602080910402602001604051908101604052809291908181526020018280546115d190612e12565b801561161e5780601f106115f35761010080835404028352916020019161161e565b820191906000526020600020905b81548152906001019060200180831161160157829003601f168201915b505050505081526020019060010190611586565b50505050815260200160048201805480602002602001604051908101604052809291908181526020016000905b8282101561170b57838290600052602060002001805461167e90612e12565b80601f01602080910402602001604051908101604052809291908181526020018280546116aa90612e12565b80156116f75780601f106116cc576101008083540402835291602001916116f7565b820191906000526020600020905b8154815290600101906020018083116116da57829003601f168201915b50505050508152602001906001019061165f565b50505090825250600582015460ff16602080830191909152600690920154604090910152908252600192909201910161151d565b60008281526020819052604090206001015461175a81611a22565b6109fc83836122a8565b6004602052816000526040600020818154811061178057600080fd5b60009182526020909120600690910201805460018201546003830180549295506001600160a01b0382169450600160a01b90910460ff1692916117c290612e12565b80601f01602080910402602001604051908101604052809291908181526020018280546117ee90612e12565b801561183b5780601f106118105761010080835404028352916020019161183b565b820191906000526020600020905b81548152906001019060200180831161181e57829003601f168201915b505050506004830154600590930154919260ff1691905086565b6003602052816000526040600020818154811061187157600080fd5b6000918252602090912060079091020180546001820154600283015460058401546006909401546001600160a01b03909316955090935060ff90811692169085565b60068054600091826118c483613034565b9091555050600654604080514260208201526bffffffffffffffffffffffff193360601b1691810191909152605481019190915260740160405160208183030381529060405280519060200120905090565b60608160000361193d5750506040805180820190915260018152600360fc1b602082015290565b8160005b8115611967578061195181613034565b91506119609050600a83613119565b9150611941565b60008167ffffffffffffffff811115611982576119826127fc565b6040519080825280601f01601f1916602001820160405280156119ac576020820181803683370190505b508593509050815b8315611a19576119c5600a8561312d565b6119d0906030613141565b60f81b826119dd83613154565b925082815181106119f0576119f0613008565b60200101906001600160f81b031916908160001a905350611a12600a85613119565b93506119b4565b50949350505050565b611a2c813361230d565b50565b600260015403611a815760405162461bcd60e51b815260206004820152601f60248201527f5265656e7472616e637947756172643a207265656e7472616e742063616c6c006044820152606401610579565b6002600155565b60008381526002602081815260408084208151610100810183528154815260018201546001600160a01b031693810193909352928301805492939291840191611ad090612e12565b80601f0160208091040260200160405190810160405280929190818152602001828054611afc90612e12565b8015611b495780601f10611b1e57610100808354040283529160200191611b49565b820191906000526020600020905b815481529060010190602001808311611b2c57829003601f168201915b50505050508152602001600382018054611b6290612e12565b80601f0160208091040260200160405190810160405280929190818152602001828054611b8e90612e12565b8015611bdb5780601f10611bb057610100808354040283529160200191611bdb565b820191906000526020600020905b815481529060010190602001808311611bbe57829003601f168201915b505050918352505060048201546020820152600582015460ff1615156040820152600682018054606090920191611c1190612e12565b80601f0160208091040260200160405190810160405280929190818152602001828054611c3d90612e12565b8015611c8a5780601f10611c5f57610100808354040283529160200191611c8a565b820191906000526020600020905b815481529060010190602001808311611c6d57829003601f168201915b50505091835250506007919091015460ff166020909101529050604b6000611cb185612366565b90506000611cbe8661242a565b6040805160e081018252602087810180516001600160a01b039081168452600183850181815260ff8b8116878901908152606088018c8152608089018b90528f831660a08a01524260c08a015295518516600090815260038089529981208054808701825590825290889020895160079092020180546001600160a01b03191691909616178555915184840155905160028401805460ff191691909216179055915180519697509195939485949193611d7d9391850192910190612715565b5060808201518051611d99916004840191602090910190612715565b5060a08201516005828101805460ff1990811660ff9485161790915560c090940151600690930192909255602089810180516001600160a01b039081166000908152948352604080862089875284529485902080549096166001179095555192519189168252859392909216917f18b513113dfd95e7910b62e37e309959d012af15728300521d6ec7bc129ac0c691015b60405180910390a3505050505050505050565b60008381526002602081815260408084208151610100810183528154815260018201546001600160a01b031693810193909352928301805492939291840191611e8590612e12565b80601f0160208091040260200160405190810160405280929190818152602001828054611eb190612e12565b8015611efe5780601f10611ed357610100808354040283529160200191611efe565b820191906000526020600020905b815481529060010190602001808311611ee157829003601f168201915b50505050508152602001600382018054611f1790612e12565b80601f0160208091040260200160405190810160405280929190818152602001828054611f4390612e12565b8015611f905780601f10611f6557610100808354040283529160200191611f90565b820191906000526020600020905b815481529060010190602001808311611f7357829003601f168201915b505050918352505060048201546020820152600582015460ff1615156040820152600682018054606090920191611fc690612e12565b80601f0160208091040260200160405190810160405280929190818152602001828054611ff290612e12565b801561203f5780601f106120145761010080835404028352916020019161203f565b820191906000526020600020905b81548152906001019060200180831161202257829003601f168201915b50505091835250506007919091015460ff166020909101529050604b60006120668561249c565b905060006120738661253f565b6040805160e08101825260018082526020888101516001600160a01b0390811682850190815260ff8a8116968601968752606086018a8152608087018990528d821660a08801524260c0880152600485527fabd6e7cb50984ff9c2f3e18a2660c3353dadf4e3291deeb275dae2cd1e44fe058054808801825560009190915287517f210afe6ebef982fa193bb4e17f9f236cdf09af7788627b5d54d9e3e4b100021b600690920291820190815593517f210afe6ebef982fa193bb4e17f9f236cdf09af7788627b5d54d9e3e4b100021c820180549a51909416600160a01b026001600160a81b0319909a169516949094179790971790559451805196975092959394859490936121a9937f210afe6ebef982fa193bb4e17f9f236cdf09af7788627b5d54d9e3e4b100021d909301920190612715565b50608082015160038201906121be9082612e9a565b5060a082015160048201805460ff191660ff92831617905560c09092015160059091015560208781015160405192881683526001600160a01b03169184917f411a39b9cbf7e1768dcbc9c2251fd88624748618ab4f15483085e246178421639101611e2a565b61222e82826114bc565b610c6a576000828152602081815260408083206001600160a01b03851684529091529020805460ff191660011790556122643390565b6001600160a01b0316816001600160a01b0316837f2f8788117e7eff1d82e926ec794901d17c78024a50270940304540a733656f0d60405160405180910390a45050565b6122b282826114bc565b15610c6a576000828152602081815260408083206001600160a01b0385168085529252808320805460ff1916905551339285917ff6391f5c32d9c69d2a47ea670b442974b53935d1edc7fd64eb21e047a839171b9190a45050565b61231782826114bc565b610c6a5761232481612560565b61232f836020612572565b60405160200161234092919061316b565b60408051601f198184030181529082905262461bcd60e51b825261057991600401612f5a565b604080516002808252606082810190935260009190816020015b60608152602001906001900390816123805790505090506040518060400160405280600f81526020016e50726f626c656d20736f6c76696e6760881b815250816000815181106123d2576123d2613008565b60200260200101819052506040518060400160405280601081526020016f546563686e6963616c20736b696c6c7360801b8152508160018151811061241957612419613008565b602090810291909101015292915050565b60408051600180825281830190925260609160009190816020015b606081526020019060019003908161244557905050905060405180604001604052806014815260200173436f6d6d756e69636174696f6e20736b696c6c7360601b8152508160008151811061241957612419613008565b604080516002808252606082810190935260009190816020015b60608152602001906001900390816124b65790505090506040518060400160405280600a81526020016912985d9854d8dc9a5c1d60b21b8152508160008151811061250357612503613008565b60200260200101819052506040518060400160405280600581526020016414995858dd60da1b8152508160018151811061241957612419613008565b60606040518060600160405280603381526020016131f86033913992915050565b60606105306001600160a01b03831660145b606060006125818360026131e0565b61258c906002613141565b67ffffffffffffffff8111156125a4576125a46127fc565b6040519080825280601f01601f1916602001820160405280156125ce576020820181803683370190505b509050600360fc1b816000815181106125e9576125e9613008565b60200101906001600160f81b031916908160001a905350600f60fb1b8160018151811061261857612618613008565b60200101906001600160f81b031916908160001a905350600061263c8460026131e0565b612647906001613141565b90505b60018111156126bf576f181899199a1a9b1b9c1cb0b131b232b360811b85600f166010811061267b5761267b613008565b1a60f81b82828151811061269157612691613008565b60200101906001600160f81b031916908160001a90535060049490941c936126b881613154565b905061264a565b50831561270e5760405162461bcd60e51b815260206004820181905260248201527f537472696e67733a20686578206c656e67746820696e73756666696369656e746044820152606401610579565b9392505050565b82805482825590600052602060002090810192821561275b579160200282015b8281111561275b578251829061274b9082612e9a565b5091602001919060010190612735565b5061276792915061276b565b5090565b8082111561276757600061277f8282612788565b5060010161276b565b50805461279490612e12565b6000825580601f106127a4575050565b601f016020900490600052602060002090810190611a2c91905b8082111561276757600081556001016127be565b6000602082840312156127e457600080fd5b81356001600160e01b03198116811461270e57600080fd5b634e487b7160e01b600052604160045260246000fd5b600082601f83011261282357600080fd5b813567ffffffffffffffff8082111561283e5761283e6127fc565b604051601f8301601f19908116603f01168101908282118183101715612866576128666127fc565b8160405283815286602085880101111561287f57600080fd5b836020870160208301376000602085830101528094505050505092915050565b6000806000606084860312156128b457600080fd5b83359250602084013567ffffffffffffffff808211156128d357600080fd5b6128df87838801612812565b935060408601359150808211156128f557600080fd5b5061290286828701612812565b9150509250925092565b60008060006060848603121561292157600080fd5b83359250602084013567ffffffffffffffff81111561293f57600080fd5b61294b86828701612812565b925050604084013560ff8116811461296257600080fd5b809150509250925092565b60006020828403121561297f57600080fd5b5035919050565b80356001600160a01b038116811461299d57600080fd5b919050565b600080604083850312156129b557600080fd5b823591506129c560208401612986565b90509250929050565b60005b838110156129e95781810151838201526020016129d1565b50506000910152565b60008151808452612a0a8160208601602086016129ce565b601f01601f19169290920160200192915050565b8881526001600160a01b038816602082015261010060408201819052600090612a498382018a6129f2565b90508281036060840152612a5d81896129f2565b905086608084015285151560a084015282810360c0840152612a7f81866129f2565b91505060ff831660e08301529998505050505050505050565b60008060408385031215612aab57600080fd5b50508035926020909101359150565b60008060408385031215612acd57600080fd5b612ad683612986565b946020939093013593505050565b600081518084526020808501808196508360051b8101915082860160005b85811015612b2c578284038952612b1a8483516129f2565b98850198935090840190600101612b02565b5091979650505050505050565b60018060a01b0381511682526020810151602083015260ff60408201511660408301526000606082015160e06060850152612b7760e0850182612ae4565b905060808301518482036080860152612b908282612ae4565b91505060ff60a08401511660a085015260c083015160c08501528091505092915050565b60208152600061270e6020830184612b39565b60006020808301818452808551808352604092508286019150828160051b87010184880160005b83811015612c8c57888303603f19018552815180518452878101516001600160a01b0316888501528681015160ff9081168886015260608083015160e08288018190529290612c3f84890182612ae4565b935050608091508184015187840383890152612c5b84826129f2565b60a086810151909316928901929092525060c093840151939096019290925250509386019390860190600101612bee565b509098975050505050505050565b600060208284031215612cac57600080fd5b61270e82612986565b6000602080830181845280855180835260408601915060408160051b870101925083870160005b82811015612d0a57603f19888603018452612cf8858351612b39565b94509285019290850190600101612cdc565b5092979650505050505050565b8681526001600160a01b038616602082015260ff8516604082015260c060608201819052600090612d4a908301866129f2565b60ff9490941660808301525060a00152949350505050565b7f4d6174636820667265656c616e63657220746f206a6f622049443a2000000000815260008451612d9a81601c8501602089016129ce565b7501710233932b2b630b731b2b910383937b334b6329d160551b601c918401918201528451612dd08160328401602089016129ce565b73017102537b1103932b8bab4b932b6b2b73a399d160651b603292909101918201528351612e058160468401602088016129ce565b0160460195945050505050565b600181811c90821680612e2657607f821691505b602082108103612e4657634e487b7160e01b600052602260045260246000fd5b50919050565b601f8211156109fc57600081815260208120601f850160051c81016020861015612e735750805b601f850160051c820191505b81811015612e9257828155600101612e7f565b505050505050565b815167ffffffffffffffff811115612eb457612eb46127fc565b612ec881612ec28454612e12565b84612e4c565b602080601f831160018114612efd5760008415612ee55750858301515b600019600386901b1c1916600185901b178555612e92565b600085815260208120601f198616915b82811015612f2c57888601518255948401946001909101908401612f0d565b5085821015612f4a5787850151600019600388901b60f8161c191681555b5050505050600190811b01905550565b60208152600061270e60208301846129f2565b6000808354612f7b81612e12565b60018281168015612f935760018114612fa857612fd7565b60ff1984168752821515830287019450612fd7565b8760005260208060002060005b85811015612fce5781548a820152908401908201612fb5565b50505082870194505b50929695505050505050565b604081526000612ff660408301856129f2565b905060ff831660208301529392505050565b634e487b7160e01b600052603260045260246000fd5b634e487b7160e01b600052601160045260246000fd5b6000600182016130465761304661301e565b5060010190565b7f4173736573732073747564656e7420736b696c6c7320666f7220636f7572736581526401024a21d160dd1b6020820152600084516130938160258501602089016129ce565b6f0171029ba3ab232b73a103230ba309d160851b60259184019182015284516130c38160358401602089016129ce565b710171021b7bab939b29031b7b73a32b73a1d160751b6035929091019182015283516130f68160478401602088016129ce565b0160470195945050505050565b634e487b7160e01b600052601260045260246000fd5b60008261312857613128613103565b500490565b60008261313c5761313c613103565b500690565b808201808211156105305761053061301e565b6000816131635761316361301e565b506000190190565b7f416363657373436f6e74726f6c3a206163636f756e74200000000000000000008152600083516131a38160178501602088016129ce565b7001034b99036b4b9b9b4b733903937b6329607d1b60179184019182015283516131d48160288401602088016129ce565b01602801949350505050565b80820281158282048414176105305761053061301e56fe476f6f64206d61746368206261736564206f6e20746563686e6963616c20736b696c6c7320616e6420657870657269656e6365a264697066735822122062900b88b7ca38c640acdf1b2ae78e08d7a53905d0c0810d7784696533a5b0a764736f6c63430008130033","opcodes":"PUSH1 0x80 PUSH1 0x40 MSTORE PUSH7 0x38D7EA4C68000 PUSH1 0x7 SSTORE PUSH7 0x71AFD498D0000 PUSH1 0x8 SSTORE CALLVALUE DUP1 ISZERO PUSH3 0x27 JUMPI PUSH1 0x0 DUP1 REVERT JUMPDEST POP PUSH1 0x1 DUP1 SSTORE PUSH3 0x39 PUSH1 0x0 CALLER PUSH3 0x97 JUMP JUMPDEST PUSH3 0x65 PUSH32 0xF9B712ED3CD0E90CDC9D1ABAC8FB677BF018AF115FB294C768A96B48BD6922C5 CALLER PUSH3 0x97 JUMP JUMPDEST PUSH3 0x91 PUSH32 0x9FCA9093F2E979C480B411459971C1BC3E0670071E510ABC486CE8A069705F0C CALLER PUSH3 0x97 JUMP JUMPDEST PUSH3 0x138 JUMP JUMPDEST PUSH1 0x0 DUP3 DUP2 MSTORE PUSH1 0x20 DUP2 DUP2 MSTORE PUSH1 0x40 DUP1 DUP4 KECCAK256 PUSH1 0x1 PUSH1 0x1 PUSH1 0xA0 SHL SUB DUP6 AND DUP5 MSTORE SWAP1 SWAP2 MSTORE SWAP1 KECCAK256 SLOAD PUSH1 0xFF AND PUSH3 0x134 JUMPI PUSH1 0x0 DUP3 DUP2 MSTORE PUSH1 0x20 DUP2 DUP2 MSTORE PUSH1 0x40 DUP1 DUP4 KECCAK256 PUSH1 0x1 PUSH1 0x1 PUSH1 0xA0 SHL SUB DUP6 AND DUP5 MSTORE SWAP1 SWAP2 MSTORE SWAP1 KECCAK256 DUP1 SLOAD PUSH1 0xFF NOT AND PUSH1 0x1 OR SWAP1 SSTORE PUSH3 0xF3 CALLER SWAP1 JUMP JUMPDEST PUSH1 0x1 PUSH1 0x1 PUSH1 0xA0 SHL SUB AND DUP2 PUSH1 0x1 PUSH1 0x1 PUSH1 0xA0 SHL SUB AND DUP4 PUSH32 0x2F8788117E7EFF1D82E926EC794901D17C78024A50270940304540A733656F0D PUSH1 0x40 MLOAD PUSH1 0x40 MLOAD DUP1 SWAP2 SUB SWAP1 LOG4 JUMPDEST POP POP JUMP JUMPDEST PUSH2 0x3260 DUP1 PUSH3 0x148 PUSH1 0x0 CODECOPY PUSH1 0x0 RETURN INVALID PUSH1 0x80 PUSH1 0x40 MSTORE PUSH1 0x4 CALLDATASIZE LT PUSH2 0x14B JUMPI PUSH1 0x0 CALLDATALOAD PUSH1 0xE0 SHR DUP1 PUSH4 0x793AF51F GT PUSH2 0xB6 JUMPI DUP1 PUSH4 0xA217FDDF GT PUSH2 0x6F JUMPI DUP1 PUSH4 0xA217FDDF EQ PUSH2 0x3EF JUMPI DUP1 PUSH4 0xCFC0EF1B EQ PUSH2 0x404 JUMPI DUP1 PUSH4 0xD547741F EQ PUSH2 0x43F JUMPI DUP1 PUSH4 0xD72354BF EQ PUSH2 0x45F JUMPI DUP1 PUSH4 0xEFA105EF EQ PUSH2 0x491 JUMPI DUP1 PUSH4 0xF1B757F6 EQ PUSH2 0x4A7 JUMPI PUSH1 0x0 DUP1 REVERT JUMPDEST DUP1 PUSH4 0x793AF51F EQ PUSH2 0x318 JUMPI DUP1 PUSH4 0x8A236B69 EQ PUSH2 0x32B JUMPI DUP1 PUSH4 0x91D14854 EQ PUSH2 0x358 JUMPI DUP1 PUSH4 0x93032BA5 EQ PUSH2 0x378 JUMPI DUP1 PUSH4 0x973A814E EQ PUSH2 0x3AC JUMPI DUP1 PUSH4 0x9868BCA4 EQ PUSH2 0x3C2 JUMPI PUSH1 0x0 DUP1 REVERT JUMPDEST DUP1 PUSH4 0x33EF5174 GT PUSH2 0x108 JUMPI DUP1 PUSH4 0x33EF5174 EQ PUSH2 0x24C JUMPI DUP1 PUSH4 0x36568ABE EQ PUSH2 0x280 JUMPI DUP1 PUSH4 0x476343EE EQ PUSH2 0x2A0 JUMPI DUP1 PUSH4 0x52C3B282 EQ PUSH2 0x2B5 JUMPI DUP1 PUSH4 0x6DB79437 EQ PUSH2 0x2CB JUMPI DUP1 PUSH4 0x6F979DE0 EQ PUSH2 0x2EB JUMPI PUSH1 0x0 DUP1 REVERT JUMPDEST DUP1 PUSH4 0x1FFC9A7 EQ PUSH2 0x150 JUMPI DUP1 PUSH4 0x10A2A3F6 EQ PUSH2 0x185 JUMPI DUP1 PUSH4 0x11D11A5B EQ PUSH2 0x1A6 JUMPI DUP1 PUSH4 0x123E8FA8 EQ PUSH2 0x1DA JUMPI DUP1 PUSH4 0x248A9CA3 EQ PUSH2 0x1FC JUMPI DUP1 PUSH4 0x2F2FF15D EQ PUSH2 0x22C JUMPI JUMPDEST PUSH1 0x0 DUP1 REVERT JUMPDEST CALLVALUE DUP1 ISZERO PUSH2 0x15C JUMPI PUSH1 0x0 DUP1 REVERT JUMPDEST POP PUSH2 0x170 PUSH2 0x16B CALLDATASIZE PUSH1 0x4 PUSH2 0x27D2 JUMP JUMPDEST PUSH2 0x4FF JUMP JUMPDEST PUSH1 0x40 MLOAD SWAP1 ISZERO ISZERO DUP2 MSTORE PUSH1 0x20 ADD JUMPDEST PUSH1 0x40 MLOAD DUP1 SWAP2 SUB SWAP1 RETURN JUMPDEST PUSH2 0x198 PUSH2 0x193 CALLDATASIZE PUSH1 0x4 PUSH2 0x289F JUMP JUMPDEST PUSH2 0x536 JUMP JUMPDEST PUSH1 0x40 MLOAD SWAP1 DUP2 MSTORE PUSH1 0x20 ADD PUSH2 0x17C JUMP JUMPDEST CALLVALUE DUP1 ISZERO PUSH2 0x1B2 JUMPI PUSH1 0x0 DUP1 REVERT JUMPDEST POP PUSH2 0x198 PUSH32 0xF9B712ED3CD0E90CDC9D1ABAC8FB677BF018AF115FB294C768A96B48BD6922C5 DUP2 JUMP JUMPDEST CALLVALUE DUP1 ISZERO PUSH2 0x1E6 JUMPI PUSH1 0x0 DUP1 REVERT JUMPDEST POP PUSH2 0x1FA PUSH2 0x1F5 CALLDATASIZE PUSH1 0x4 PUSH2 0x290C JUMP JUMPDEST PUSH2 0x712 JUMP JUMPDEST STOP JUMPDEST CALLVALUE DUP1 ISZERO PUSH2 0x208 JUMPI PUSH1 0x0 DUP1 REVERT JUMPDEST POP PUSH2 0x198 PUSH2 0x217 CALLDATASIZE PUSH1 0x4 PUSH2 0x296D JUMP JUMPDEST PUSH1 0x0 SWAP1 DUP2 MSTORE PUSH1 0x20 DUP2 SWAP1 MSTORE PUSH1 0x40 SWAP1 KECCAK256 PUSH1 0x1 ADD SLOAD SWAP1 JUMP JUMPDEST CALLVALUE DUP1 ISZERO PUSH2 0x238 JUMPI PUSH1 0x0 DUP1 REVERT JUMPDEST POP PUSH2 0x1FA PUSH2 0x247 CALLDATASIZE PUSH1 0x4 PUSH2 0x29A2 JUMP JUMPDEST PUSH2 0x9D7 JUMP JUMPDEST CALLVALUE DUP1 ISZERO PUSH2 0x258 JUMPI PUSH1 0x0 DUP1 REVERT JUMPDEST POP PUSH2 0x26C PUSH2 0x267 CALLDATASIZE PUSH1 0x4 PUSH2 0x296D JUMP JUMPDEST PUSH2 0xA01 JUMP JUMPDEST PUSH1 0x40 MLOAD PUSH2 0x17C SWAP9 SWAP8 SWAP7 SWAP6 SWAP5 SWAP4 SWAP3 SWAP2 SWAP1 PUSH2 0x2A1E JUMP JUMPDEST CALLVALUE DUP1 ISZERO PUSH2 0x28C JUMPI PUSH1 0x0 DUP1 REVERT JUMPDEST POP PUSH2 0x1FA PUSH2 0x29B CALLDATASIZE PUSH1 0x4 PUSH2 0x29A2 JUMP JUMPDEST PUSH2 0xBF0 JUMP JUMPDEST CALLVALUE DUP1 ISZERO PUSH2 0x2AC JUMPI PUSH1 0x0 DUP1 REVERT JUMPDEST POP PUSH2 0x1FA PUSH2 0xC6E JUMP JUMPDEST CALLVALUE DUP1 ISZERO PUSH2 0x2C1 JUMPI PUSH1 0x0 DUP1 REVERT JUMPDEST POP PUSH2 0x198 PUSH1 0x7 SLOAD DUP2 JUMP JUMPDEST CALLVALUE DUP1 ISZERO PUSH2 0x2D7 JUMPI PUSH1 0x0 DUP1 REVERT JUMPDEST POP PUSH2 0x1FA PUSH2 0x2E6 CALLDATASIZE PUSH1 0x4 PUSH2 0x2A98 JUMP JUMPDEST PUSH2 0xCA5 JUMP JUMPDEST CALLVALUE DUP1 ISZERO PUSH2 0x2F7 JUMPI PUSH1 0x0 DUP1 REVERT JUMPDEST POP PUSH2 0x30B PUSH2 0x306 CALLDATASIZE PUSH1 0x4 PUSH2 0x2ABA JUMP JUMPDEST PUSH2 0xD69 JUMP JUMPDEST PUSH1 0x40 MLOAD PUSH2 0x17C SWAP2 SWAP1 PUSH2 0x2BB4 JUMP JUMPDEST PUSH2 0x198 PUSH2 0x326 CALLDATASIZE PUSH1 0x4 PUSH2 0x289F JUMP JUMPDEST PUSH2 0x1107 JUMP JUMPDEST CALLVALUE DUP1 ISZERO PUSH2 0x337 JUMPI PUSH1 0x0 DUP1 REVERT JUMPDEST POP PUSH2 0x34B PUSH2 0x346 CALLDATASIZE PUSH1 0x4 PUSH2 0x296D JUMP JUMPDEST PUSH2 0x129E JUMP JUMPDEST PUSH1 0x40 MLOAD PUSH2 0x17C SWAP2 SWAP1 PUSH2 0x2BC7 JUMP JUMPDEST CALLVALUE DUP1 ISZERO PUSH2 0x364 JUMPI PUSH1 0x0 DUP1 REVERT JUMPDEST POP PUSH2 0x170 PUSH2 0x373 CALLDATASIZE PUSH1 0x4 PUSH2 0x29A2 JUMP JUMPDEST PUSH2 0x14BC JUMP JUMPDEST CALLVALUE DUP1 ISZERO PUSH2 0x384 JUMPI PUSH1 0x0 DUP1 REVERT JUMPDEST POP PUSH2 0x198 PUSH32 0x9FCA9093F2E979C480B411459971C1BC3E0670071E510ABC486CE8A069705F0C DUP2 JUMP JUMPDEST CALLVALUE DUP1 ISZERO PUSH2 0x3B8 JUMPI PUSH1 0x0 DUP1 REVERT JUMPDEST POP PUSH2 0x198 PUSH1 0x6 SLOAD DUP2 JUMP JUMPDEST CALLVALUE DUP1 ISZERO PUSH2 0x3CE JUMPI PUSH1 0x0 DUP1 REVERT JUMPDEST POP PUSH2 0x3E2 PUSH2 0x3DD CALLDATASIZE PUSH1 0x4 PUSH2 0x2C9A JUMP JUMPDEST PUSH2 0x14E5 JUMP JUMPDEST PUSH1 0x40 MLOAD PUSH2 0x17C SWAP2 SWAP1 PUSH2 0x2CB5 JUMP JUMPDEST CALLVALUE DUP1 ISZERO PUSH2 0x3FB JUMPI PUSH1 0x0 DUP1 REVERT JUMPDEST POP PUSH2 0x198 PUSH1 0x0 DUP2 JUMP JUMPDEST CALLVALUE DUP1 ISZERO PUSH2 0x410 JUMPI PUSH1 0x0 DUP1 REVERT JUMPDEST POP PUSH2 0x170 PUSH2 0x41F CALLDATASIZE PUSH1 0x4 PUSH2 0x2ABA JUMP JUMPDEST PUSH1 0x5 PUSH1 0x20 SWAP1 DUP2 MSTORE PUSH1 0x0 SWAP3 DUP4 MSTORE PUSH1 0x40 DUP1 DUP5 KECCAK256 SWAP1 SWAP2 MSTORE SWAP1 DUP3 MSTORE SWAP1 KECCAK256 SLOAD PUSH1 0xFF AND DUP2 JUMP JUMPDEST CALLVALUE DUP1 ISZERO PUSH2 0x44B JUMPI PUSH1 0x0 DUP1 REVERT JUMPDEST POP PUSH2 0x1FA PUSH2 0x45A CALLDATASIZE PUSH1 0x4 PUSH2 0x29A2 JUMP JUMPDEST PUSH2 0x173F JUMP JUMPDEST CALLVALUE DUP1 ISZERO PUSH2 0x46B JUMPI PUSH1 0x0 DUP1 REVERT JUMPDEST POP PUSH2 0x47F PUSH2 0x47A CALLDATASIZE PUSH1 0x4 PUSH2 0x2A98 JUMP JUMPDEST PUSH2 0x1764 JUMP JUMPDEST PUSH1 0x40 MLOAD PUSH2 0x17C SWAP7 SWAP6 SWAP5 SWAP4 SWAP3 SWAP2 SWAP1 PUSH2 0x2D17 JUMP JUMPDEST CALLVALUE DUP1 ISZERO PUSH2 0x49D JUMPI PUSH1 0x0 DUP1 REVERT JUMPDEST POP PUSH2 0x198 PUSH1 0x8 SLOAD DUP2 JUMP JUMPDEST CALLVALUE DUP1 ISZERO PUSH2 0x4B3 JUMPI PUSH1 0x0 DUP1 REVERT JUMPDEST POP PUSH2 0x4C7 PUSH2 0x4C2 CALLDATASIZE PUSH1 0x4 PUSH2 0x2ABA JUMP JUMPDEST PUSH2 0x1855 JUMP JUMPDEST PUSH1 0x40 DUP1 MLOAD PUSH1 0x1 PUSH1 0x1 PUSH1 0xA0 SHL SUB SWAP1 SWAP7 AND DUP7 MSTORE PUSH1 0x20 DUP7 ADD SWAP5 SWAP1 SWAP5 MSTORE PUSH1 0xFF SWAP3 DUP4 AND SWAP4 DUP6 ADD SWAP4 SWAP1 SWAP4 MSTORE AND PUSH1 0x60 DUP4 ADD MSTORE PUSH1 0x80 DUP3 ADD MSTORE PUSH1 0xA0 ADD PUSH2 0x17C JUMP JUMPDEST PUSH1 0x0 PUSH1 0x1 PUSH1 0x1 PUSH1 0xE0 SHL SUB NOT DUP3 AND PUSH4 0x7965DB0B PUSH1 0xE0 SHL EQ DUP1 PUSH2 0x530 JUMPI POP PUSH4 0x1FFC9A7 PUSH1 0xE0 SHL PUSH1 0x1 PUSH1 0x1 PUSH1 0xE0 SHL SUB NOT DUP4 AND EQ JUMPDEST SWAP3 SWAP2 POP POP JUMP JUMPDEST PUSH1 0x0 PUSH1 0x8 SLOAD CALLVALUE LT ISZERO PUSH2 0x582 JUMPI PUSH1 0x40 MLOAD PUSH3 0x461BCD PUSH1 0xE5 SHL DUP2 MSTORE PUSH1 0x20 PUSH1 0x4 DUP3 ADD MSTORE PUSH1 0x10 PUSH1 0x24 DUP3 ADD MSTORE PUSH16 0x496E73756666696369656E7420666565 PUSH1 0x80 SHL PUSH1 0x44 DUP3 ADD MSTORE PUSH1 0x64 ADD JUMPDEST PUSH1 0x40 MLOAD DUP1 SWAP2 SUB SWAP1 REVERT JUMPDEST PUSH1 0x0 PUSH2 0x58C PUSH2 0x18B3 JUMP JUMPDEST SWAP1 POP PUSH1 0x0 PUSH2 0x599 DUP7 PUSH2 0x1916 JUMP JUMPDEST DUP6 DUP6 PUSH1 0x40 MLOAD PUSH1 0x20 ADD PUSH2 0x5AD SWAP4 SWAP3 SWAP2 SWAP1 PUSH2 0x2D62 JUMP JUMPDEST PUSH1 0x40 DUP1 MLOAD DUP1 DUP4 SUB PUSH1 0x1F NOT ADD DUP2 MSTORE PUSH2 0x100 DUP4 ADD DUP3 MSTORE DUP5 DUP4 MSTORE CALLER PUSH1 0x20 DUP1 DUP6 ADD SWAP2 DUP3 MSTORE DUP5 DUP5 ADD DUP4 DUP2 MSTORE DUP5 MLOAD DUP1 DUP7 ADD DUP7 MSTORE PUSH1 0xC DUP2 MSTORE PUSH12 0x4A4F425F4D41544348494E47 PUSH1 0xA0 SHL DUP2 DUP5 ADD MSTORE PUSH1 0x60 DUP8 ADD MSTORE TIMESTAMP PUSH1 0x80 DUP8 ADD MSTORE PUSH1 0x0 PUSH1 0xA0 DUP8 ADD DUP2 SWAP1 MSTORE DUP6 MLOAD DUP1 DUP5 ADD DUP8 MSTORE DUP2 DUP2 MSTORE PUSH1 0xC0 DUP9 ADD MSTORE PUSH1 0xE0 DUP8 ADD DUP2 SWAP1 MSTORE DUP9 DUP2 MSTORE PUSH1 0x2 SWAP3 DUP4 SWAP1 MSTORE SWAP5 SWAP1 SWAP5 KECCAK256 DUP6 MLOAD DUP2 SSTORE SWAP2 MLOAD PUSH1 0x1 DUP4 ADD DUP1 SLOAD PUSH1 0x1 PUSH1 0x1 PUSH1 0xA0 SHL SUB NOT AND PUSH1 0x1 PUSH1 0x1 PUSH1 0xA0 SHL SUB SWAP1 SWAP3 AND SWAP2 SWAP1 SWAP2 OR SWAP1 SSTORE SWAP3 MLOAD SWAP2 SWAP5 POP SWAP2 DUP3 ADD SWAP1 PUSH2 0x663 SWAP1 DUP3 PUSH2 0x2E9A JUMP JUMPDEST POP PUSH1 0x60 DUP3 ADD MLOAD PUSH1 0x3 DUP3 ADD SWAP1 PUSH2 0x678 SWAP1 DUP3 PUSH2 0x2E9A JUMP JUMPDEST POP PUSH1 0x80 DUP3 ADD MLOAD PUSH1 0x4 DUP3 ADD SSTORE PUSH1 0xA0 DUP3 ADD MLOAD PUSH1 0x5 DUP3 ADD DUP1 SLOAD PUSH1 0xFF NOT AND SWAP2 ISZERO ISZERO SWAP2 SWAP1 SWAP2 OR SWAP1 SSTORE PUSH1 0xC0 DUP3 ADD MLOAD PUSH1 0x6 DUP3 ADD SWAP1 PUSH2 0x6AF SWAP1 DUP3 PUSH2 0x2E9A JUMP JUMPDEST POP PUSH1 0xE0 SWAP2 SWAP1 SWAP2 ADD MLOAD PUSH1 0x7 SWAP1 SWAP2 ADD DUP1 SLOAD PUSH1 0xFF NOT AND PUSH1 0xFF SWAP1 SWAP3 AND SWAP2 SWAP1 SWAP2 OR SWAP1 SSTORE PUSH1 0x40 MLOAD CALLER SWAP1 DUP4 SWAP1 PUSH32 0x39E6F68097D845C6836791116B72C7711F44F039AD73D939DC90462C018EE51B SWAP1 PUSH2 0x701 SWAP1 DUP6 SWAP1 PUSH2 0x2F5A JUMP JUMPDEST PUSH1 0x40 MLOAD DUP1 SWAP2 SUB SWAP1 LOG3 POP SWAP5 SWAP4 POP POP POP POP JUMP JUMPDEST PUSH32 0x9FCA9093F2E979C480B411459971C1BC3E0670071E510ABC486CE8A069705F0C PUSH2 0x73C DUP2 PUSH2 0x1A22 JUMP JUMPDEST PUSH2 0x744 PUSH2 0x1A2F JUMP JUMPDEST PUSH1 0x0 DUP5 DUP2 MSTORE PUSH1 0x2 PUSH1 0x20 MSTORE PUSH1 0x40 SWAP1 KECCAK256 SLOAD DUP5 EQ PUSH2 0x795 JUMPI PUSH1 0x40 MLOAD PUSH3 0x461BCD PUSH1 0xE5 SHL DUP2 MSTORE PUSH1 0x20 PUSH1 0x4 DUP3 ADD MSTORE PUSH1 0x11 PUSH1 0x24 DUP3 ADD MSTORE PUSH17 0x14995C5D595CDD081B9BDD08199BDD5B99 PUSH1 0x7A SHL PUSH1 0x44 DUP3 ADD MSTORE PUSH1 0x64 ADD PUSH2 0x579 JUMP JUMPDEST PUSH1 0x0 DUP5 DUP2 MSTORE PUSH1 0x2 PUSH1 0x20 MSTORE PUSH1 0x40 SWAP1 KECCAK256 PUSH1 0x5 ADD SLOAD PUSH1 0xFF AND ISZERO PUSH2 0x7F7 JUMPI PUSH1 0x40 MLOAD PUSH3 0x461BCD PUSH1 0xE5 SHL DUP2 MSTORE PUSH1 0x20 PUSH1 0x4 DUP3 ADD MSTORE PUSH1 0x19 PUSH1 0x24 DUP3 ADD MSTORE PUSH32 0x5265717565737420616C72656164792066756C66696C6C656400000000000000 PUSH1 0x44 DUP3 ADD MSTORE PUSH1 0x64 ADD PUSH2 0x579 JUMP JUMPDEST PUSH1 0x64 DUP3 PUSH1 0xFF AND GT ISZERO PUSH2 0x84B JUMPI PUSH1 0x40 MLOAD PUSH3 0x461BCD PUSH1 0xE5 SHL DUP2 MSTORE PUSH1 0x20 PUSH1 0x4 DUP3 ADD MSTORE PUSH1 0x18 PUSH1 0x24 DUP3 ADD MSTORE PUSH32 0x496E76616C696420636F6E666964656E6365206C6576656C0000000000000000 PUSH1 0x44 DUP3 ADD MSTORE PUSH1 0x64 ADD PUSH2 0x579 JUMP JUMPDEST PUSH1 0x0 DUP5 DUP2 MSTORE PUSH1 0x2 PUSH1 0x20 MSTORE PUSH1 0x40 SWAP1 KECCAK256 PUSH1 0x6 ADD PUSH2 0x866 DUP5 DUP3 PUSH2 0x2E9A JUMP JUMPDEST POP PUSH1 0x0 DUP5 DUP2 MSTORE PUSH1 0x2 PUSH1 0x20 DUP2 DUP2 MSTORE PUSH1 0x40 DUP1 DUP5 KECCAK256 PUSH1 0x7 DUP2 ADD DUP1 SLOAD PUSH1 0xFF DUP10 AND PUSH1 0xFF NOT SWAP2 DUP3 AND OR SWAP1 SWAP2 SSTORE PUSH1 0x5 DUP3 ADD DUP1 SLOAD SWAP1 SWAP2 AND PUSH1 0x1 OR SWAP1 SSTORE DUP2 MLOAD DUP1 DUP4 ADD DUP4 MSTORE PUSH1 0x10 DUP2 MSTORE PUSH16 0x14D2D2531317D054D4D154D4D3515395 PUSH1 0x82 SHL SWAP1 DUP5 ADD MSTORE SWAP4 DUP9 SWAP1 MSTORE SWAP2 SWAP1 MSTORE MLOAD PUSH32 0x66EE5478C1BD54B76F7EDAF2DA83E5C01A82C6D4895C5D05DE485A70D1147623 SWAP2 PUSH2 0x8F6 SWAP2 PUSH1 0x3 SWAP1 SWAP2 ADD SWAP1 PUSH2 0x2F6D JUMP JUMPDEST PUSH1 0x40 MLOAD DUP1 SWAP2 SUB SWAP1 KECCAK256 SUB PUSH2 0x913 JUMPI PUSH2 0x90E DUP5 DUP5 DUP5 PUSH2 0x1A88 JUMP JUMPDEST PUSH2 0x98E JUMP JUMPDEST PUSH1 0x40 DUP1 MLOAD DUP1 DUP3 ADD DUP3 MSTORE PUSH1 0xC DUP2 MSTORE PUSH12 0x4A4F425F4D41544348494E47 PUSH1 0xA0 SHL PUSH1 0x20 SWAP2 DUP3 ADD MSTORE PUSH1 0x0 DUP7 DUP2 MSTORE PUSH1 0x2 SWAP1 SWAP2 MSTORE DUP2 SWAP1 KECCAK256 SWAP1 MLOAD PUSH32 0xCD429F865AE03947491FC7601176F1EF46BD8996E58F5C50F9929F83EBD54FE SWAP2 PUSH2 0x976 SWAP2 PUSH1 0x3 SWAP1 SWAP2 ADD SWAP1 PUSH2 0x2F6D JUMP JUMPDEST PUSH1 0x40 MLOAD DUP1 SWAP2 SUB SWAP1 KECCAK256 SUB PUSH2 0x98E JUMPI PUSH2 0x98E DUP5 DUP5 DUP5 PUSH2 0x1E3D JUMP JUMPDEST DUP4 PUSH32 0x6EA0EF28CC579C8A8C840ACD75E4086FAD25279177678267FA1CA814F9E7783E DUP5 DUP5 PUSH1 0x40 MLOAD PUSH2 0x9C0 SWAP3 SWAP2 SWAP1 PUSH2 0x2FE3 JUMP JUMPDEST PUSH1 0x40 MLOAD DUP1 SWAP2 SUB SWAP1 LOG2 PUSH2 0x9D1 PUSH1 0x1 DUP1 SSTORE JUMP JUMPDEST POP POP POP POP JUMP JUMPDEST PUSH1 0x0 DUP3 DUP2 MSTORE PUSH1 0x20 DUP2 SWAP1 MSTORE PUSH1 0x40 SWAP1 KECCAK256 PUSH1 0x1 ADD SLOAD PUSH2 0x9F2 DUP2 PUSH2 0x1A22 JUMP JUMPDEST PUSH2 0x9FC DUP4 DUP4 PUSH2 0x2224 JUMP JUMPDEST POP POP POP JUMP JUMPDEST PUSH1 0x2 PUSH1 0x20 DUP2 SWAP1 MSTORE PUSH1 0x0 SWAP2 DUP3 MSTORE PUSH1 0x40 SWAP1 SWAP2 KECCAK256 DUP1 SLOAD PUSH1 0x1 DUP3 ADD SLOAD SWAP3 DUP3 ADD DUP1 SLOAD SWAP2 SWAP4 PUSH1 0x1 PUSH1 0x1 PUSH1 0xA0 SHL SUB AND SWAP3 SWAP2 PUSH2 0xA34 SWAP1 PUSH2 0x2E12 JUMP JUMPDEST DUP1 PUSH1 0x1F ADD PUSH1 0x20 DUP1 SWAP2 DIV MUL PUSH1 0x20 ADD PUSH1 0x40 MLOAD SWAP1 DUP2 ADD PUSH1 0x40 MSTORE DUP1 SWAP3 SWAP2 SWAP1 DUP2 DUP2 MSTORE PUSH1 0x20 ADD DUP3 DUP1 SLOAD PUSH2 0xA60 SWAP1 PUSH2 0x2E12 JUMP JUMPDEST DUP1 ISZERO PUSH2 0xAAD JUMPI DUP1 PUSH1 0x1F LT PUSH2 0xA82 JUMPI PUSH2 0x100 DUP1 DUP4 SLOAD DIV MUL DUP4 MSTORE SWAP2 PUSH1 0x20 ADD SWAP2 PUSH2 0xAAD JUMP JUMPDEST DUP3 ADD SWAP2 SWAP1 PUSH1 0x0 MSTORE PUSH1 0x20 PUSH1 0x0 KECCAK256 SWAP1 JUMPDEST DUP2 SLOAD DUP2 MSTORE SWAP1 PUSH1 0x1 ADD SWAP1 PUSH1 0x20 ADD DUP1 DUP4 GT PUSH2 0xA90 JUMPI DUP3 SWAP1 SUB PUSH1 0x1F AND DUP3 ADD SWAP2 JUMPDEST POP POP POP POP POP SWAP1 DUP1 PUSH1 0x3 ADD DUP1 SLOAD PUSH2 0xAC2 SWAP1 PUSH2 0x2E12 JUMP JUMPDEST DUP1 PUSH1 0x1F ADD PUSH1 0x20 DUP1 SWAP2 DIV MUL PUSH1 0x20 ADD PUSH1 0x40 MLOAD SWAP1 DUP2 ADD PUSH1 0x40 MSTORE DUP1 SWAP3 SWAP2 SWAP1 DUP2 DUP2 MSTORE PUSH1 0x20 ADD DUP3 DUP1 SLOAD PUSH2 0xAEE SWAP1 PUSH2 0x2E12 JUMP JUMPDEST DUP1 ISZERO PUSH2 0xB3B JUMPI DUP1 PUSH1 0x1F LT PUSH2 0xB10 JUMPI PUSH2 0x100 DUP1 DUP4 SLOAD DIV MUL DUP4 MSTORE SWAP2 PUSH1 0x20 ADD SWAP2 PUSH2 0xB3B JUMP JUMPDEST DUP3 ADD SWAP2 SWAP1 PUSH1 0x0 MSTORE PUSH1 0x20 PUSH1 0x0 KECCAK256 SWAP1 JUMPDEST DUP2 SLOAD DUP2 MSTORE SWAP1 PUSH1 0x1 ADD SWAP1 PUSH1 0x20 ADD DUP1 DUP4 GT PUSH2 0xB1E JUMPI DUP3 SWAP1 SUB PUSH1 0x1F AND DUP3 ADD SWAP2 JUMPDEST POP POP POP POP PUSH1 0x4 DUP4 ADD SLOAD PUSH1 0x5 DUP5 ADD SLOAD PUSH1 0x6 DUP6 ADD DUP1 SLOAD SWAP5 SWAP6 SWAP3 SWAP5 PUSH1 0xFF SWAP1 SWAP3 AND SWAP4 POP SWAP1 PUSH2 0xB64 SWAP1 PUSH2 0x2E12 JUMP JUMPDEST DUP1 PUSH1 0x1F ADD PUSH1 0x20 DUP1 SWAP2 DIV MUL PUSH1 0x20 ADD PUSH1 0x40 MLOAD SWAP1 DUP2 ADD PUSH1 0x40 MSTORE DUP1 SWAP3 SWAP2 SWAP1 DUP2 DUP2 MSTORE PUSH1 0x20 ADD DUP3 DUP1 SLOAD PUSH2 0xB90 SWAP1 PUSH2 0x2E12 JUMP JUMPDEST DUP1 ISZERO PUSH2 0xBDD JUMPI DUP1 PUSH1 0x1F LT PUSH2 0xBB2 JUMPI PUSH2 0x100 DUP1 DUP4 SLOAD DIV MUL DUP4 MSTORE SWAP2 PUSH1 0x20 ADD SWAP2 PUSH2 0xBDD JUMP JUMPDEST DUP3 ADD SWAP2 SWAP1 PUSH1 0x0 MSTORE PUSH1 0x20 PUSH1 0x0 KECCAK256 SWAP1 JUMPDEST DUP2 SLOAD DUP2 MSTORE SWAP1 PUSH1 0x1 ADD SWAP1 PUSH1 0x20 ADD DUP1 DUP4 GT PUSH2 0xBC0 JUMPI DUP3 SWAP1 SUB PUSH1 0x1F AND DUP3 ADD SWAP2 JUMPDEST POP POP POP PUSH1 0x7 SWAP1 SWAP4 ADD SLOAD SWAP2 SWAP3 POP POP PUSH1 0xFF AND DUP9 JUMP JUMPDEST PUSH1 0x1 PUSH1 0x1 PUSH1 0xA0 SHL SUB DUP2 AND CALLER EQ PUSH2 0xC60 JUMPI PUSH1 0x40 MLOAD PUSH3 0x461BCD PUSH1 0xE5 SHL DUP2 MSTORE PUSH1 0x20 PUSH1 0x4 DUP3 ADD MSTORE PUSH1 0x2F PUSH1 0x24 DUP3 ADD MSTORE PUSH32 0x416363657373436F6E74726F6C3A2063616E206F6E6C792072656E6F756E6365 PUSH1 0x44 DUP3 ADD MSTORE PUSH15 0x103937B632B9903337B91039B2B633 PUSH1 0x89 SHL PUSH1 0x64 DUP3 ADD MSTORE PUSH1 0x84 ADD PUSH2 0x579 JUMP JUMPDEST PUSH2 0xC6A DUP3 DUP3 PUSH2 0x22A8 JUMP JUMPDEST POP POP JUMP JUMPDEST PUSH1 0x0 PUSH2 0xC79 DUP2 PUSH2 0x1A22 JUMP JUMPDEST PUSH1 0x40 MLOAD CALLER SWAP1 SELFBALANCE DUP1 ISZERO PUSH2 0x8FC MUL SWAP2 PUSH1 0x0 DUP2 DUP2 DUP2 DUP6 DUP9 DUP9 CALL SWAP4 POP POP POP POP ISZERO DUP1 ISZERO PUSH2 0xC6A JUMPI RETURNDATASIZE PUSH1 0x0 DUP1 RETURNDATACOPY RETURNDATASIZE PUSH1 0x0 REVERT JUMPDEST PUSH1 0x0 PUSH2 0xCB0 DUP2 PUSH2 0x1A22 JUMP JUMPDEST PUSH1 0x7 DUP4 SWAP1 SSTORE PUSH1 0x8 DUP3 SWAP1 SSTORE PUSH1 0x40 DUP1 MLOAD DUP2 DUP2 MSTORE PUSH1 0xD DUP2 DUP4 ADD MSTORE PUSH13 0x6173736573736D656E74466565 PUSH1 0x98 SHL PUSH1 0x60 DUP3 ADD MSTORE PUSH1 0x20 DUP2 ADD DUP6 SWAP1 MSTORE SWAP1 MLOAD PUSH32 0xDFA8893EFEE75A8A75EFB669B7E08E54A0D1A26AE92F0C09FFFB3E0D89C5AB54 SWAP2 DUP2 SWAP1 SUB PUSH1 0x80 ADD SWAP1 LOG1 PUSH1 0x40 DUP1 MLOAD DUP2 DUP2 MSTORE PUSH1 0xB DUP2 DUP4 ADD MSTORE PUSH11 0x6D61746368696E67466565 PUSH1 0xA8 SHL PUSH1 0x60 DUP3 ADD MSTORE PUSH1 0x20 DUP2 ADD DUP5 SWAP1 MSTORE SWAP1 MLOAD PUSH32 0xDFA8893EFEE75A8A75EFB669B7E08E54A0D1A26AE92F0C09FFFB3E0D89C5AB54 SWAP2 DUP2 SWAP1 SUB PUSH1 0x80 ADD SWAP1 LOG1 POP POP POP JUMP JUMPDEST PUSH1 0x40 DUP1 MLOAD PUSH1 0xE0 DUP2 ADD DUP3 MSTORE PUSH1 0x0 DUP1 DUP3 MSTORE PUSH1 0x20 DUP1 DUP4 ADD DUP3 SWAP1 MSTORE DUP3 DUP5 ADD DUP3 SWAP1 MSTORE PUSH1 0x60 DUP1 DUP5 ADD DUP2 SWAP1 MSTORE PUSH1 0x80 DUP5 ADD MSTORE PUSH1 0xA0 DUP4 ADD DUP3 SWAP1 MSTORE PUSH1 0xC0 DUP4 ADD DUP3 SWAP1 MSTORE PUSH1 0x1 PUSH1 0x1 PUSH1 0xA0 SHL SUB DUP7 AND DUP3 MSTORE PUSH1 0x5 DUP2 MSTORE DUP4 DUP3 KECCAK256 DUP6 DUP4 MSTORE SWAP1 MSTORE SWAP2 SWAP1 SWAP2 KECCAK256 SLOAD PUSH1 0xFF AND PUSH2 0xE04 JUMPI PUSH1 0x40 MLOAD PUSH3 0x461BCD PUSH1 0xE5 SHL DUP2 MSTORE PUSH1 0x20 PUSH1 0x4 DUP3 ADD MSTORE PUSH1 0x14 PUSH1 0x24 DUP3 ADD MSTORE PUSH20 0x105CDCD95CDCDB595B9D081B9BDD08199BDD5B99 PUSH1 0x62 SHL PUSH1 0x44 DUP3 ADD MSTORE PUSH1 0x64 ADD PUSH2 0x579 JUMP JUMPDEST PUSH1 0x1 PUSH1 0x1 PUSH1 0xA0 SHL SUB DUP4 AND PUSH1 0x0 SWAP1 DUP2 MSTORE PUSH1 0x3 PUSH1 0x20 SWAP1 DUP2 MSTORE PUSH1 0x40 DUP1 DUP4 KECCAK256 DUP1 SLOAD DUP3 MLOAD DUP2 DUP6 MUL DUP2 ADD DUP6 ADD SWAP1 SWAP4 MSTORE DUP1 DUP4 MSTORE SWAP2 SWAP3 SWAP1 SWAP2 SWAP1 DUP5 SWAP1 DUP5 ADD JUMPDEST DUP3 DUP3 LT ISZERO PUSH2 0x105C JUMPI PUSH1 0x0 DUP5 DUP2 MSTORE PUSH1 0x20 DUP1 DUP3 KECCAK256 PUSH1 0x40 DUP1 MLOAD PUSH1 0xE0 DUP2 ADD DUP3 MSTORE PUSH1 0x7 DUP8 MUL SWAP1 SWAP3 ADD DUP1 SLOAD PUSH1 0x1 PUSH1 0x1 PUSH1 0xA0 SHL SUB AND DUP4 MSTORE PUSH1 0x1 DUP2 ADD SLOAD DUP4 DUP6 ADD MSTORE PUSH1 0x2 DUP2 ADD SLOAD PUSH1 0xFF AND DUP4 DUP4 ADD MSTORE PUSH1 0x3 DUP2 ADD DUP1 SLOAD DUP4 MLOAD DUP2 DUP8 MUL DUP2 ADD DUP8 ADD SWAP1 SWAP5 MSTORE DUP1 DUP5 MSTORE SWAP4 SWAP6 SWAP2 SWAP5 PUSH1 0x60 DUP8 ADD SWAP5 SWAP2 SWAP3 SWAP1 DUP5 ADD JUMPDEST DUP3 DUP3 LT ISZERO PUSH2 0xF4F JUMPI DUP4 DUP3 SWAP1 PUSH1 0x0 MSTORE PUSH1 0x20 PUSH1 0x0 KECCAK256 ADD DUP1 SLOAD PUSH2 0xEC2 SWAP1 PUSH2 0x2E12 JUMP JUMPDEST DUP1 PUSH1 0x1F ADD PUSH1 0x20 DUP1 SWAP2 DIV MUL PUSH1 0x20 ADD PUSH1 0x40 MLOAD SWAP1 DUP2 ADD PUSH1 0x40 MSTORE DUP1 SWAP3 SWAP2 SWAP1 DUP2 DUP2 MSTORE PUSH1 0x20 ADD DUP3 DUP1 SLOAD PUSH2 0xEEE SWAP1 PUSH2 0x2E12 JUMP JUMPDEST DUP1 ISZERO PUSH2 0xF3B JUMPI DUP1 PUSH1 0x1F LT PUSH2 0xF10 JUMPI PUSH2 0x100 DUP1 DUP4 SLOAD DIV MUL DUP4 MSTORE SWAP2 PUSH1 0x20 ADD SWAP2 PUSH2 0xF3B JUMP JUMPDEST DUP3 ADD SWAP2 SWAP1 PUSH1 0x0 MSTORE PUSH1 0x20 PUSH1 0x0 KECCAK256 SWAP1 JUMPDEST DUP2 SLOAD DUP2 MSTORE SWAP1 PUSH1 0x1 ADD SWAP1 PUSH1 0x20 ADD DUP1 DUP4 GT PUSH2 0xF1E JUMPI DUP3 SWAP1 SUB PUSH1 0x1F AND DUP3 ADD SWAP2 JUMPDEST POP POP POP POP POP DUP2 MSTORE PUSH1 0x20 ADD SWAP1 PUSH1 0x1 ADD SWAP1 PUSH2 0xEA3 JUMP JUMPDEST POP POP POP POP DUP2 MSTORE PUSH1 0x20 ADD PUSH1 0x4 DUP3 ADD DUP1 SLOAD DUP1 PUSH1 0x20 MUL PUSH1 0x20 ADD PUSH1 0x40 MLOAD SWAP1 DUP2 ADD PUSH1 0x40 MSTORE DUP1 SWAP3 SWAP2 SWAP1 DUP2 DUP2 MSTORE PUSH1 0x20 ADD PUSH1 0x0 SWAP1 JUMPDEST DUP3 DUP3 LT ISZERO PUSH2 0x1028 JUMPI DUP4 DUP3 SWAP1 PUSH1 0x0 MSTORE PUSH1 0x20 PUSH1 0x0 KECCAK256 ADD DUP1 SLOAD PUSH2 0xF9B SWAP1 PUSH2 0x2E12 JUMP JUMPDEST DUP1 PUSH1 0x1F ADD PUSH1 0x20 DUP1 SWAP2 DIV MUL PUSH1 0x20 ADD PUSH1 0x40 MLOAD SWAP1 DUP2 ADD PUSH1 0x40 MSTORE DUP1 SWAP3 SWAP2 SWAP1 DUP2 DUP2 MSTORE PUSH1 0x20 ADD DUP3 DUP1 SLOAD PUSH2 0xFC7 SWAP1 PUSH2 0x2E12 JUMP JUMPDEST DUP1 ISZERO PUSH2 0x1014 JUMPI DUP1 PUSH1 0x1F LT PUSH2 0xFE9 JUMPI PUSH2 0x100 DUP1 DUP4 SLOAD DIV MUL DUP4 MSTORE SWAP2 PUSH1 0x20 ADD SWAP2 PUSH2 0x1014 JUMP JUMPDEST DUP3 ADD SWAP2 SWAP1 PUSH1 0x0 MSTORE PUSH1 0x20 PUSH1 0x0 KECCAK256 SWAP1 JUMPDEST DUP2 SLOAD DUP2 MSTORE SWAP1 PUSH1 0x1 ADD SWAP1 PUSH1 0x20 ADD DUP1 DUP4 GT PUSH2 0xFF7 JUMPI DUP3 SWAP1 SUB PUSH1 0x1F AND DUP3 ADD SWAP2 JUMPDEST POP POP POP POP POP DUP2 MSTORE PUSH1 0x20 ADD SWAP1 PUSH1 0x1 ADD SWAP1 PUSH2 0xF7C JUMP JUMPDEST POP POP POP SWAP1 DUP3 MSTORE POP PUSH1 0x5 DUP3 ADD SLOAD PUSH1 0xFF AND PUSH1 0x20 DUP1 DUP4 ADD SWAP2 SWAP1 SWAP2 MSTORE PUSH1 0x6 SWAP1 SWAP3 ADD SLOAD PUSH1 0x40 SWAP1 SWAP2 ADD MSTORE SWAP1 DUP3 MSTORE PUSH1 0x1 SWAP3 SWAP1 SWAP3 ADD SWAP2 ADD PUSH2 0xE3A JUMP JUMPDEST POP POP POP POP SWAP1 POP PUSH1 0x0 JUMPDEST DUP2 MLOAD DUP2 LT ISZERO PUSH2 0x10C7 JUMPI DUP4 DUP3 DUP3 DUP2 MLOAD DUP2 LT PUSH2 0x1081 JUMPI PUSH2 0x1081 PUSH2 0x3008 JUMP JUMPDEST PUSH1 0x20 MUL PUSH1 0x20 ADD ADD MLOAD PUSH1 0x20 ADD MLOAD SUB PUSH2 0x10B5 JUMPI DUP2 DUP2 DUP2 MLOAD DUP2 LT PUSH2 0x10A4 JUMPI PUSH2 0x10A4 PUSH2 0x3008 JUMP JUMPDEST PUSH1 0x20 MUL PUSH1 0x20 ADD ADD MLOAD SWAP3 POP POP POP PUSH2 0x530 JUMP JUMPDEST DUP1 PUSH2 0x10BF DUP2 PUSH2 0x3034 JUMP JUMPDEST SWAP2 POP POP PUSH2 0x1065 JUMP JUMPDEST POP PUSH1 0x40 MLOAD PUSH3 0x461BCD PUSH1 0xE5 SHL DUP2 MSTORE PUSH1 0x20 PUSH1 0x4 DUP3 ADD MSTORE PUSH1 0x14 PUSH1 0x24 DUP3 ADD MSTORE PUSH20 0x105CDCD95CDCDB595B9D081B9BDD08199BDD5B99 PUSH1 0x62 SHL PUSH1 0x44 DUP3 ADD MSTORE PUSH1 0x64 ADD PUSH2 0x579 JUMP JUMPDEST PUSH1 0x0 PUSH1 0x7 SLOAD CALLVALUE LT ISZERO PUSH2 0x114E JUMPI PUSH1 0x40 MLOAD PUSH3 0x461BCD PUSH1 0xE5 SHL DUP2 MSTORE PUSH1 0x20 PUSH1 0x4 DUP3 ADD MSTORE PUSH1 0x10 PUSH1 0x24 DUP3 ADD MSTORE PUSH16 0x496E73756666696369656E7420666565 PUSH1 0x80 SHL PUSH1 0x44 DUP3 ADD MSTORE PUSH1 0x64 ADD PUSH2 0x579 JUMP JUMPDEST CALLER PUSH1 0x0 SWAP1 DUP2 MSTORE PUSH1 0x5 PUSH1 0x20 SWAP1 DUP2 MSTORE PUSH1 0x40 DUP1 DUP4 KECCAK256 DUP8 DUP5 MSTORE SWAP1 SWAP2 MSTORE SWAP1 KECCAK256 SLOAD PUSH1 0xFF AND ISZERO PUSH2 0x11B9 JUMPI PUSH1 0x40 MLOAD PUSH3 0x461BCD PUSH1 0xE5 SHL DUP2 MSTORE PUSH1 0x20 PUSH1 0x4 DUP3 ADD MSTORE PUSH1 0x19 PUSH1 0x24 DUP3 ADD MSTORE PUSH32 0x4173736573736D656E7420616C72656164792065786973747300000000000000 PUSH1 0x44 DUP3 ADD MSTORE PUSH1 0x64 ADD PUSH2 0x579 JUMP JUMPDEST PUSH1 0x0 PUSH2 0x11C3 PUSH2 0x18B3 JUMP JUMPDEST SWAP1 POP PUSH1 0x0 PUSH2 0x11D0 DUP7 PUSH2 0x1916 JUMP JUMPDEST DUP6 DUP6 PUSH1 0x40 MLOAD PUSH1 0x20 ADD PUSH2 0x11E4 SWAP4 SWAP3 SWAP2 SWAP1 PUSH2 0x304D JUMP JUMPDEST PUSH1 0x40 DUP1 MLOAD DUP1 DUP4 SUB PUSH1 0x1F NOT ADD DUP2 MSTORE PUSH2 0x100 DUP4 ADD DUP3 MSTORE DUP5 DUP4 MSTORE CALLER PUSH1 0x20 DUP1 DUP6 ADD SWAP2 DUP3 MSTORE DUP5 DUP5 ADD DUP4 DUP2 MSTORE DUP5 MLOAD DUP1 DUP7 ADD DUP7 MSTORE PUSH1 0x10 DUP2 MSTORE PUSH16 0x14D2D2531317D054D4D154D4D3515395 PUSH1 0x82 SHL DUP2 DUP5 ADD MSTORE PUSH1 0x60 DUP8 ADD MSTORE TIMESTAMP PUSH1 0x80 DUP8 ADD MSTORE PUSH1 0x0 PUSH1 0xA0 DUP8 ADD DUP2 SWAP1 MSTORE DUP6 MLOAD DUP1 DUP5 ADD DUP8 MSTORE DUP2 DUP2 MSTORE PUSH1 0xC0 DUP9 ADD MSTORE PUSH1 0xE0 DUP8 ADD DUP2 SWAP1 MSTORE DUP9 DUP2 MSTORE PUSH1 0x2 SWAP3 DUP4 SWAP1 MSTORE SWAP5 SWAP1 SWAP5 KECCAK256 DUP6 MLOAD DUP2 SSTORE SWAP2 MLOAD PUSH1 0x1 DUP4 ADD DUP1 SLOAD PUSH1 0x1 PUSH1 0x1 PUSH1 0xA0 SHL SUB NOT AND PUSH1 0x1 PUSH1 0x1 PUSH1 0xA0 SHL SUB SWAP1 SWAP3 AND SWAP2 SWAP1 SWAP2 OR SWAP1 SSTORE SWAP3 MLOAD SWAP2 SWAP5 POP SWAP2 DUP3 ADD SWAP1 PUSH2 0x663 SWAP1 DUP3 PUSH2 0x2E9A JUMP JUMPDEST PUSH1 0x60 PUSH1 0x4 PUSH1 0x0 DUP4 DUP2 MSTORE PUSH1 0x20 ADD SWAP1 DUP2 MSTORE PUSH1 0x20 ADD PUSH1 0x0 KECCAK256 DUP1 SLOAD DUP1 PUSH1 0x20 MUL PUSH1 0x20 ADD PUSH1 0x40 MLOAD SWAP1 DUP2 ADD PUSH1 0x40 MSTORE DUP1 SWAP3 SWAP2 SWAP1 DUP2 DUP2 MSTORE PUSH1 0x20 ADD PUSH1 0x0 SWAP1 JUMPDEST DUP3 DUP3 LT ISZERO PUSH2 0x14B1 JUMPI PUSH1 0x0 DUP5 DUP2 MSTORE PUSH1 0x20 DUP1 DUP3 KECCAK256 PUSH1 0x40 DUP1 MLOAD PUSH1 0xE0 DUP2 ADD DUP3 MSTORE PUSH1 0x6 DUP8 MUL SWAP1 SWAP3 ADD DUP1 SLOAD DUP4 MSTORE PUSH1 0x1 DUP2 ADD SLOAD PUSH1 0x1 PUSH1 0x1 PUSH1 0xA0 SHL SUB DUP2 AND DUP5 DUP7 ADD MSTORE PUSH1 0x1 PUSH1 0xA0 SHL SWAP1 DIV PUSH1 0xFF AND DUP4 DUP4 ADD MSTORE PUSH1 0x2 DUP2 ADD DUP1 SLOAD DUP4 MLOAD DUP2 DUP8 MUL DUP2 ADD DUP8 ADD SWAP1 SWAP5 MSTORE DUP1 DUP5 MSTORE SWAP4 SWAP6 SWAP2 SWAP5 PUSH1 0x60 DUP8 ADD SWAP5 SWAP2 SWAP3 SWAP1 DUP5 ADD JUMPDEST DUP3 DUP3 LT ISZERO PUSH2 0x13EB JUMPI DUP4 DUP3 SWAP1 PUSH1 0x0 MSTORE PUSH1 0x20 PUSH1 0x0 KECCAK256 ADD DUP1 SLOAD PUSH2 0x135E SWAP1 PUSH2 0x2E12 JUMP JUMPDEST DUP1 PUSH1 0x1F ADD PUSH1 0x20 DUP1 SWAP2 DIV MUL PUSH1 0x20 ADD PUSH1 0x40 MLOAD SWAP1 DUP2 ADD PUSH1 0x40 MSTORE DUP1 SWAP3 SWAP2 SWAP1 DUP2 DUP2 MSTORE PUSH1 0x20 ADD DUP3 DUP1 SLOAD PUSH2 0x138A SWAP1 PUSH2 0x2E12 JUMP JUMPDEST DUP1 ISZERO PUSH2 0x13D7 JUMPI DUP1 PUSH1 0x1F LT PUSH2 0x13AC JUMPI PUSH2 0x100 DUP1 DUP4 SLOAD DIV MUL DUP4 MSTORE SWAP2 PUSH1 0x20 ADD SWAP2 PUSH2 0x13D7 JUMP JUMPDEST DUP3 ADD SWAP2 SWAP1 PUSH1 0x0 MSTORE PUSH1 0x20 PUSH1 0x0 KECCAK256 SWAP1 JUMPDEST DUP2 SLOAD DUP2 MSTORE SWAP1 PUSH1 0x1 ADD SWAP1 PUSH1 0x20 ADD DUP1 DUP4 GT PUSH2 0x13BA JUMPI DUP3 SWAP1 SUB PUSH1 0x1F AND DUP3 ADD SWAP2 JUMPDEST POP POP POP POP POP DUP2 MSTORE PUSH1 0x20 ADD SWAP1 PUSH1 0x1 ADD SWAP1 PUSH2 0x133F JUMP JUMPDEST POP POP POP POP DUP2 MSTORE PUSH1 0x20 ADD PUSH1 0x3 DUP3 ADD DUP1 SLOAD PUSH2 0x1403 SWAP1 PUSH2 0x2E12 JUMP JUMPDEST DUP1 PUSH1 0x1F ADD PUSH1 0x20 DUP1 SWAP2 DIV MUL PUSH1 0x20 ADD PUSH1 0x40 MLOAD SWAP1 DUP2 ADD PUSH1 0x40 MSTORE DUP1 SWAP3 SWAP2 SWAP1 DUP2 DUP2 MSTORE PUSH1 0x20 ADD DUP3 DUP1 SLOAD PUSH2 0x142F SWAP1 PUSH2 0x2E12 JUMP JUMPDEST DUP1 ISZERO PUSH2 0x147C JUMPI DUP1 PUSH1 0x1F LT PUSH2 0x1451 JUMPI PUSH2 0x100 DUP1 DUP4 SLOAD DIV MUL DUP4 MSTORE SWAP2 PUSH1 0x20 ADD SWAP2 PUSH2 0x147C JUMP JUMPDEST DUP3 ADD SWAP2 SWAP1 PUSH1 0x0 MSTORE PUSH1 0x20 PUSH1 0x0 KECCAK256 SWAP1 JUMPDEST DUP2 SLOAD DUP2 MSTORE SWAP1 PUSH1 0x1 ADD SWAP1 PUSH1 0x20 ADD DUP1 DUP4 GT PUSH2 0x145F JUMPI DUP3 SWAP1 SUB PUSH1 0x1F AND DUP3 ADD SWAP2 JUMPDEST POP POP POP SWAP2 DUP4 MSTORE POP POP PUSH1 0x4 DUP3 ADD SLOAD PUSH1 0xFF AND PUSH1 0x20 DUP1 DUP4 ADD SWAP2 SWAP1 SWAP2 MSTORE PUSH1 0x5 SWAP1 SWAP3 ADD SLOAD PUSH1 0x40 SWAP1 SWAP2 ADD MSTORE SWAP1 DUP3 MSTORE PUSH1 0x1 SWAP3 SWAP1 SWAP3 ADD SWAP2 ADD PUSH2 0x12D3 JUMP JUMPDEST POP POP POP POP SWAP1 POP SWAP2 SWAP1 POP JUMP JUMPDEST PUSH1 0x0 SWAP2 DUP3 MSTORE PUSH1 0x20 DUP3 DUP2 MSTORE PUSH1 0x40 DUP1 DUP5 KECCAK256 PUSH1 0x1 PUSH1 0x1 PUSH1 0xA0 SHL SUB SWAP4 SWAP1 SWAP4 AND DUP5 MSTORE SWAP2 SWAP1 MSTORE SWAP1 KECCAK256 SLOAD PUSH1 0xFF AND SWAP1 JUMP JUMPDEST PUSH1 0x1 PUSH1 0x1 PUSH1 0xA0 SHL SUB DUP2 AND PUSH1 0x0 SWAP1 DUP2 MSTORE PUSH1 0x3 PUSH1 0x20 SWAP1 DUP2 MSTORE PUSH1 0x40 DUP1 DUP4 KECCAK256 DUP1 SLOAD DUP3 MLOAD DUP2 DUP6 MUL DUP2 ADD DUP6 ADD SWAP1 SWAP4 MSTORE DUP1 DUP4 MSTORE PUSH1 0x60 SWAP5 SWAP3 SWAP4 SWAP2 SWAP3 SWAP1 SWAP2 DUP5 ADD JUMPDEST DUP3 DUP3 LT ISZERO PUSH2 0x14B1 JUMPI PUSH1 0x0 DUP5 DUP2 MSTORE PUSH1 0x20 DUP1 DUP3 KECCAK256 PUSH1 0x40 DUP1 MLOAD PUSH1 0xE0 DUP2 ADD DUP3 MSTORE PUSH1 0x7 DUP8 MUL SWAP1 SWAP3 ADD DUP1 SLOAD PUSH1 0x1 PUSH1 0x1 PUSH1 0xA0 SHL SUB AND DUP4 MSTORE PUSH1 0x1 DUP2 ADD SLOAD DUP4 DUP6 ADD MSTORE PUSH1 0x2 DUP2 ADD SLOAD PUSH1 0xFF AND DUP4 DUP4 ADD MSTORE PUSH1 0x3 DUP2 ADD DUP1 SLOAD DUP4 MLOAD DUP2 DUP8 MUL DUP2 ADD DUP8 ADD SWAP1 SWAP5 MSTORE DUP1 DUP5 MSTORE SWAP4 SWAP6 SWAP2 SWAP5 PUSH1 0x60 DUP8 ADD SWAP5 SWAP2 SWAP3 SWAP1 DUP5 ADD JUMPDEST DUP3 DUP3 LT ISZERO PUSH2 0x1632 JUMPI DUP4 DUP3 SWAP1 PUSH1 0x0 MSTORE PUSH1 0x20 PUSH1 0x0 KECCAK256 ADD DUP1 SLOAD PUSH2 0x15A5 SWAP1 PUSH2 0x2E12 JUMP JUMPDEST DUP1 PUSH1 0x1F ADD PUSH1 0x20 DUP1 SWAP2 DIV MUL PUSH1 0x20 ADD PUSH1 0x40 MLOAD SWAP1 DUP2 ADD PUSH1 0x40 MSTORE DUP1 SWAP3 SWAP2 SWAP1 DUP2 DUP2 MSTORE PUSH1 0x20 ADD DUP3 DUP1 SLOAD PUSH2 0x15D1 SWAP1 PUSH2 0x2E12 JUMP JUMPDEST DUP1 ISZERO PUSH2 0x161E JUMPI DUP1 PUSH1 0x1F LT PUSH2 0x15F3 JUMPI PUSH2 0x100 DUP1 DUP4 SLOAD DIV MUL DUP4 MSTORE SWAP2 PUSH1 0x20 ADD SWAP2 PUSH2 0x161E JUMP JUMPDEST DUP3 ADD SWAP2 SWAP1 PUSH1 0x0 MSTORE PUSH1 0x20 PUSH1 0x0 KECCAK256 SWAP1 JUMPDEST DUP2 SLOAD DUP2 MSTORE SWAP1 PUSH1 0x1 ADD SWAP1 PUSH1 0x20 ADD DUP1 DUP4 GT PUSH2 0x1601 JUMPI DUP3 SWAP1 SUB PUSH1 0x1F AND DUP3 ADD SWAP2 JUMPDEST POP POP POP POP POP DUP2 MSTORE PUSH1 0x20 ADD SWAP1 PUSH1 0x1 ADD SWAP1 PUSH2 0x1586 JUMP JUMPDEST POP POP POP POP DUP2 MSTORE PUSH1 0x20 ADD PUSH1 0x4 DUP3 ADD DUP1 SLOAD DUP1 PUSH1 0x20 MUL PUSH1 0x20 ADD PUSH1 0x40 MLOAD SWAP1 DUP2 ADD PUSH1 0x40 MSTORE DUP1 SWAP3 SWAP2 SWAP1 DUP2 DUP2 MSTORE PUSH1 0x20 ADD PUSH1 0x0 SWAP1 JUMPDEST DUP3 DUP3 LT ISZERO PUSH2 0x170B JUMPI DUP4 DUP3 SWAP1 PUSH1 0x0 MSTORE PUSH1 0x20 PUSH1 0x0 KECCAK256 ADD DUP1 SLOAD PUSH2 0x167E SWAP1 PUSH2 0x2E12 JUMP JUMPDEST DUP1 PUSH1 0x1F ADD PUSH1 0x20 DUP1 SWAP2 DIV MUL PUSH1 0x20 ADD PUSH1 0x40 MLOAD SWAP1 DUP2 ADD PUSH1 0x40 MSTORE DUP1 SWAP3 SWAP2 SWAP1 DUP2 DUP2 MSTORE PUSH1 0x20 ADD DUP3 DUP1 SLOAD PUSH2 0x16AA SWAP1 PUSH2 0x2E12 JUMP JUMPDEST DUP1 ISZERO PUSH2 0x16F7 JUMPI DUP1 PUSH1 0x1F LT PUSH2 0x16CC JUMPI PUSH2 0x100 DUP1 DUP4 SLOAD DIV MUL DUP4 MSTORE SWAP2 PUSH1 0x20 ADD SWAP2 PUSH2 0x16F7 JUMP JUMPDEST DUP3 ADD SWAP2 SWAP1 PUSH1 0x0 MSTORE PUSH1 0x20 PUSH1 0x0 KECCAK256 SWAP1 JUMPDEST DUP2 SLOAD DUP2 MSTORE SWAP1 PUSH1 0x1 ADD SWAP1 PUSH1 0x20 ADD DUP1 DUP4 GT PUSH2 0x16DA JUMPI DUP3 SWAP1 SUB PUSH1 0x1F AND DUP3 ADD SWAP2 JUMPDEST POP POP POP POP POP DUP2 MSTORE PUSH1 0x20 ADD SWAP1 PUSH1 0x1 ADD SWAP1 PUSH2 0x165F JUMP JUMPDEST POP POP POP SWAP1 DUP3 MSTORE POP PUSH1 0x5 DUP3 ADD SLOAD PUSH1 0xFF AND PUSH1 0x20 DUP1 DUP4 ADD SWAP2 SWAP1 SWAP2 MSTORE PUSH1 0x6 SWAP1 SWAP3 ADD SLOAD PUSH1 0x40 SWAP1 SWAP2 ADD MSTORE SWAP1 DUP3 MSTORE PUSH1 0x1 SWAP3 SWAP1 SWAP3 ADD SWAP2 ADD PUSH2 0x151D JUMP JUMPDEST PUSH1 0x0 DUP3 DUP2 MSTORE PUSH1 0x20 DUP2 SWAP1 MSTORE PUSH1 0x40 SWAP1 KECCAK256 PUSH1 0x1 ADD SLOAD PUSH2 0x175A DUP2 PUSH2 0x1A22 JUMP JUMPDEST PUSH2 0x9FC DUP4 DUP4 PUSH2 0x22A8 JUMP JUMPDEST PUSH1 0x4 PUSH1 0x20 MSTORE DUP2 PUSH1 0x0 MSTORE PUSH1 0x40 PUSH1 0x0 KECCAK256 DUP2 DUP2 SLOAD DUP2 LT PUSH2 0x1780 JUMPI PUSH1 0x0 DUP1 REVERT JUMPDEST PUSH1 0x0 SWAP2 DUP3 MSTORE PUSH1 0x20 SWAP1 SWAP2 KECCAK256 PUSH1 0x6 SWAP1 SWAP2 MUL ADD DUP1 SLOAD PUSH1 0x1 DUP3 ADD SLOAD PUSH1 0x3 DUP4 ADD DUP1 SLOAD SWAP3 SWAP6 POP PUSH1 0x1 PUSH1 0x1 PUSH1 0xA0 SHL SUB DUP3 AND SWAP5 POP PUSH1 0x1 PUSH1 0xA0 SHL SWAP1 SWAP2 DIV PUSH1 0xFF AND SWAP3 SWAP2 PUSH2 0x17C2 SWAP1 PUSH2 0x2E12 JUMP JUMPDEST DUP1 PUSH1 0x1F ADD PUSH1 0x20 DUP1 SWAP2 DIV MUL PUSH1 0x20 ADD PUSH1 0x40 MLOAD SWAP1 DUP2 ADD PUSH1 0x40 MSTORE DUP1 SWAP3 SWAP2 SWAP1 DUP2 DUP2 MSTORE PUSH1 0x20 ADD DUP3 DUP1 SLOAD PUSH2 0x17EE SWAP1 PUSH2 0x2E12 JUMP JUMPDEST DUP1 ISZERO PUSH2 0x183B JUMPI DUP1 PUSH1 0x1F LT PUSH2 0x1810 JUMPI PUSH2 0x100 DUP1 DUP4 SLOAD DIV MUL DUP4 MSTORE SWAP2 PUSH1 0x20 ADD SWAP2 PUSH2 0x183B JUMP JUMPDEST DUP3 ADD SWAP2 SWAP1 PUSH1 0x0 MSTORE PUSH1 0x20 PUSH1 0x0 KECCAK256 SWAP1 JUMPDEST DUP2 SLOAD DUP2 MSTORE SWAP1 PUSH1 0x1 ADD SWAP1 PUSH1 0x20 ADD DUP1 DUP4 GT PUSH2 0x181E JUMPI DUP3 SWAP1 SUB PUSH1 0x1F AND DUP3 ADD SWAP2 JUMPDEST POP POP POP POP PUSH1 0x4 DUP4 ADD SLOAD PUSH1 0x5 SWAP1 SWAP4 ADD SLOAD SWAP2 SWAP3 PUSH1 0xFF AND SWAP2 SWAP1 POP DUP7 JUMP JUMPDEST PUSH1 0x3 PUSH1 0x20 MSTORE DUP2 PUSH1 0x0 MSTORE PUSH1 0x40 PUSH1 0x0 KECCAK256 DUP2 DUP2 SLOAD DUP2 LT PUSH2 0x1871 JUMPI PUSH1 0x0 DUP1 REVERT JUMPDEST PUSH1 0x0 SWAP2 DUP3 MSTORE PUSH1 0x20 SWAP1 SWAP2 KECCAK256 PUSH1 0x7 SWAP1 SWAP2 MUL ADD DUP1 SLOAD PUSH1 0x1 DUP3 ADD SLOAD PUSH1 0x2 DUP4 ADD SLOAD PUSH1 0x5 DUP5 ADD SLOAD PUSH1 0x6 SWAP1 SWAP5 ADD SLOAD PUSH1 0x1 PUSH1 0x1 PUSH1 0xA0 SHL SUB SWAP1 SWAP4 AND SWAP6 POP SWAP1 SWAP4 POP PUSH1 0xFF SWAP1 DUP2 AND SWAP3 AND SWAP1 DUP6 JUMP JUMPDEST PUSH1 0x6 DUP1 SLOAD PUSH1 0x0 SWAP2 DUP3 PUSH2 0x18C4 DUP4 PUSH2 0x3034 JUMP JUMPDEST SWAP1 SWAP2 SSTORE POP POP PUSH1 0x6 SLOAD PUSH1 0x40 DUP1 MLOAD TIMESTAMP PUSH1 0x20 DUP3 ADD MSTORE PUSH12 0xFFFFFFFFFFFFFFFFFFFFFFFF NOT CALLER PUSH1 0x60 SHL AND SWAP2 DUP2 ADD SWAP2 SWAP1 SWAP2 MSTORE PUSH1 0x54 DUP2 ADD SWAP2 SWAP1 SWAP2 MSTORE PUSH1 0x74 ADD PUSH1 0x40 MLOAD PUSH1 0x20 DUP2 DUP4 SUB SUB DUP2 MSTORE SWAP1 PUSH1 0x40 MSTORE DUP1 MLOAD SWAP1 PUSH1 0x20 ADD KECCAK256 SWAP1 POP SWAP1 JUMP JUMPDEST PUSH1 0x60 DUP2 PUSH1 0x0 SUB PUSH2 0x193D JUMPI POP POP PUSH1 0x40 DUP1 MLOAD DUP1 DUP3 ADD SWAP1 SWAP2 MSTORE PUSH1 0x1 DUP2 MSTORE PUSH1 0x3 PUSH1 0xFC SHL PUSH1 0x20 DUP3 ADD MSTORE SWAP1 JUMP JUMPDEST DUP2 PUSH1 0x0 JUMPDEST DUP2 ISZERO PUSH2 0x1967 JUMPI DUP1 PUSH2 0x1951 DUP2 PUSH2 0x3034 JUMP JUMPDEST SWAP2 POP PUSH2 0x1960 SWAP1 POP PUSH1 0xA DUP4 PUSH2 0x3119 JUMP JUMPDEST SWAP2 POP PUSH2 0x1941 JUMP JUMPDEST PUSH1 0x0 DUP2 PUSH8 0xFFFFFFFFFFFFFFFF DUP2 GT ISZERO PUSH2 0x1982 JUMPI PUSH2 0x1982 PUSH2 0x27FC JUMP JUMPDEST PUSH1 0x40 MLOAD SWAP1 DUP1 DUP3 MSTORE DUP1 PUSH1 0x1F ADD PUSH1 0x1F NOT AND PUSH1 0x20 ADD DUP3 ADD PUSH1 0x40 MSTORE DUP1 ISZERO PUSH2 0x19AC JUMPI PUSH1 0x20 DUP3 ADD DUP2 DUP1 CALLDATASIZE DUP4 CALLDATACOPY ADD SWAP1 POP JUMPDEST POP DUP6 SWAP4 POP SWAP1 POP DUP2 JUMPDEST DUP4 ISZERO PUSH2 0x1A19 JUMPI PUSH2 0x19C5 PUSH1 0xA DUP6 PUSH2 0x312D JUMP JUMPDEST PUSH2 0x19D0 SWAP1 PUSH1 0x30 PUSH2 0x3141 JUMP JUMPDEST PUSH1 0xF8 SHL DUP3 PUSH2 0x19DD DUP4 PUSH2 0x3154 JUMP JUMPDEST SWAP3 POP DUP3 DUP2 MLOAD DUP2 LT PUSH2 0x19F0 JUMPI PUSH2 0x19F0 PUSH2 0x3008 JUMP JUMPDEST PUSH1 0x20 ADD ADD SWAP1 PUSH1 0x1 PUSH1 0x1 PUSH1 0xF8 SHL SUB NOT AND SWAP1 DUP2 PUSH1 0x0 BYTE SWAP1 MSTORE8 POP PUSH2 0x1A12 PUSH1 0xA DUP6 PUSH2 0x3119 JUMP JUMPDEST SWAP4 POP PUSH2 0x19B4 JUMP JUMPDEST POP SWAP5 SWAP4 POP POP POP POP JUMP JUMPDEST PUSH2 0x1A2C DUP2 CALLER PUSH2 0x230D JUMP JUMPDEST POP JUMP JUMPDEST PUSH1 0x2 PUSH1 0x1 SLOAD SUB PUSH2 0x1A81 JUMPI PUSH1 0x40 MLOAD PUSH3 0x461BCD PUSH1 0xE5 SHL DUP2 MSTORE PUSH1 0x20 PUSH1 0x4 DUP3 ADD MSTORE PUSH1 0x1F PUSH1 0x24 DUP3 ADD MSTORE PUSH32 0x5265656E7472616E637947756172643A207265656E7472616E742063616C6C00 PUSH1 0x44 DUP3 ADD MSTORE PUSH1 0x64 ADD PUSH2 0x579 JUMP JUMPDEST PUSH1 0x2 PUSH1 0x1 SSTORE JUMP JUMPDEST PUSH1 0x0 DUP4 DUP2 MSTORE PUSH1 0x2 PUSH1 0x20 DUP2 DUP2 MSTORE PUSH1 0x40 DUP1 DUP5 KECCAK256 DUP2 MLOAD PUSH2 0x100 DUP2 ADD DUP4 MSTORE DUP2 SLOAD DUP2 MSTORE PUSH1 0x1 DUP3 ADD SLOAD PUSH1 0x1 PUSH1 0x1 PUSH1 0xA0 SHL SUB AND SWAP4 DUP2 ADD SWAP4 SWAP1 SWAP4 MSTORE SWAP3 DUP4 ADD DUP1 SLOAD SWAP3 SWAP4 SWAP3 SWAP2 DUP5 ADD SWAP2 PUSH2 0x1AD0 SWAP1 PUSH2 0x2E12 JUMP JUMPDEST DUP1 PUSH1 0x1F ADD PUSH1 0x20 DUP1 SWAP2 DIV MUL PUSH1 0x20 ADD PUSH1 0x40 MLOAD SWAP1 DUP2 ADD PUSH1 0x40 MSTORE DUP1 SWAP3 SWAP2 SWAP1 DUP2 DUP2 MSTORE PUSH1 0x20 ADD DUP3 DUP1 SLOAD PUSH2 0x1AFC SWAP1 PUSH2 0x2E12 JUMP JUMPDEST DUP1 ISZERO PUSH2 0x1B49 JUMPI DUP1 PUSH1 0x1F LT PUSH2 0x1B1E JUMPI PUSH2 0x100 DUP1 DUP4 SLOAD DIV MUL DUP4 MSTORE SWAP2 PUSH1 0x20 ADD SWAP2 PUSH2 0x1B49 JUMP JUMPDEST DUP3 ADD SWAP2 SWAP1 PUSH1 0x0 MSTORE PUSH1 0x20 PUSH1 0x0 KECCAK256 SWAP1 JUMPDEST DUP2 SLOAD DUP2 MSTORE SWAP1 PUSH1 0x1 ADD SWAP1 PUSH1 0x20 ADD DUP1 DUP4 GT PUSH2 0x1B2C JUMPI DUP3 SWAP1 SUB PUSH1 0x1F AND DUP3 ADD SWAP2 JUMPDEST POP POP POP POP POP DUP2 MSTORE PUSH1 0x20 ADD PUSH1 0x3 DUP3 ADD DUP1 SLOAD PUSH2 0x1B62 SWAP1 PUSH2 0x2E12 JUMP JUMPDEST DUP1 PUSH1 0x1F ADD PUSH1 0x20 DUP1 SWAP2 DIV MUL PUSH1 0x20 ADD PUSH1 0x40 MLOAD SWAP1 DUP2 ADD PUSH1 0x40 MSTORE DUP1 SWAP3 SWAP2 SWAP1 DUP2 DUP2 MSTORE PUSH1 0x20 ADD DUP3 DUP1 SLOAD PUSH2 0x1B8E SWAP1 PUSH2 0x2E12 JUMP JUMPDEST DUP1 ISZERO PUSH2 0x1BDB JUMPI DUP1 PUSH1 0x1F LT PUSH2 0x1BB0 JUMPI PUSH2 0x100 DUP1 DUP4 SLOAD DIV MUL DUP4 MSTORE SWAP2 PUSH1 0x20 ADD SWAP2 PUSH2 0x1BDB JUMP JUMPDEST DUP3 ADD SWAP2 SWAP1 PUSH1 0x0 MSTORE PUSH1 0x20 PUSH1 0x0 KECCAK256 SWAP1 JUMPDEST DUP2 SLOAD DUP2 MSTORE SWAP1 PUSH1 0x1 ADD SWAP1 PUSH1 0x20 ADD DUP1 DUP4 GT PUSH2 0x1BBE JUMPI DUP3 SWAP1 SUB PUSH1 0x1F AND DUP3 ADD SWAP2 JUMPDEST POP POP POP SWAP2 DUP4 MSTORE POP POP PUSH1 0x4 DUP3 ADD SLOAD PUSH1 0x20 DUP3 ADD MSTORE PUSH1 0x5 DUP3 ADD SLOAD PUSH1 0xFF AND ISZERO ISZERO PUSH1 0x40 DUP3 ADD MSTORE PUSH1 0x6 DUP3 ADD DUP1 SLOAD PUSH1 0x60 SWAP1 SWAP3 ADD SWAP2 PUSH2 0x1C11 SWAP1 PUSH2 0x2E12 JUMP JUMPDEST DUP1 PUSH1 0x1F ADD PUSH1 0x20 DUP1 SWAP2 DIV MUL PUSH1 0x20 ADD PUSH1 0x40 MLOAD SWAP1 DUP2 ADD PUSH1 0x40 MSTORE DUP1 SWAP3 SWAP2 SWAP1 DUP2 DUP2 MSTORE PUSH1 0x20 ADD DUP3 DUP1 SLOAD PUSH2 0x1C3D SWAP1 PUSH2 0x2E12 JUMP JUMPDEST DUP1 ISZERO PUSH2 0x1C8A JUMPI DUP1 PUSH1 0x1F LT PUSH2 0x1C5F JUMPI PUSH2 0x100 DUP1 DUP4 SLOAD DIV MUL DUP4 MSTORE SWAP2 PUSH1 0x20 ADD SWAP2 PUSH2 0x1C8A JUMP JUMPDEST DUP3 ADD SWAP2 SWAP1 PUSH1 0x0 MSTORE PUSH1 0x20 PUSH1 0x0 KECCAK256 SWAP1 JUMPDEST DUP2 SLOAD DUP2 MSTORE SWAP1 PUSH1 0x1 ADD SWAP1 PUSH1 0x20 ADD DUP1 DUP4 GT PUSH2 0x1C6D JUMPI DUP3 SWAP1 SUB PUSH1 0x1F AND DUP3 ADD SWAP2 JUMPDEST POP POP POP SWAP2 DUP4 MSTORE POP POP PUSH1 0x7 SWAP2 SWAP1 SWAP2 ADD SLOAD PUSH1 0xFF AND PUSH1 0x20 SWAP1 SWAP2 ADD MSTORE SWAP1 POP PUSH1 0x4B PUSH1 0x0 PUSH2 0x1CB1 DUP6 PUSH2 0x2366 JUMP JUMPDEST SWAP1 POP PUSH1 0x0 PUSH2 0x1CBE DUP7 PUSH2 0x242A JUMP JUMPDEST PUSH1 0x40 DUP1 MLOAD PUSH1 0xE0 DUP2 ADD DUP3 MSTORE PUSH1 0x20 DUP8 DUP2 ADD DUP1 MLOAD PUSH1 0x1 PUSH1 0x1 PUSH1 0xA0 SHL SUB SWAP1 DUP2 AND DUP5 MSTORE PUSH1 0x1 DUP4 DUP6 ADD DUP2 DUP2 MSTORE PUSH1 0xFF DUP12 DUP2 AND DUP8 DUP10 ADD SWAP1 DUP2 MSTORE PUSH1 0x60 DUP9 ADD DUP13 DUP2 MSTORE PUSH1 0x80 DUP10 ADD DUP12 SWAP1 MSTORE DUP16 DUP4 AND PUSH1 0xA0 DUP11 ADD MSTORE TIMESTAMP PUSH1 0xC0 DUP11 ADD MSTORE SWAP6 MLOAD DUP6 AND PUSH1 0x0 SWAP1 DUP2 MSTORE PUSH1 0x3 DUP1 DUP10 MSTORE SWAP10 DUP2 KECCAK256 DUP1 SLOAD DUP1 DUP8 ADD DUP3 SSTORE SWAP1 DUP3 MSTORE SWAP1 DUP9 SWAP1 KECCAK256 DUP10 MLOAD PUSH1 0x7 SWAP1 SWAP3 MUL ADD DUP1 SLOAD PUSH1 0x1 PUSH1 0x1 PUSH1 0xA0 SHL SUB NOT AND SWAP2 SWAP1 SWAP7 AND OR DUP6 SSTORE SWAP2 MLOAD DUP5 DUP5 ADD SSTORE SWAP1 MLOAD PUSH1 0x2 DUP5 ADD DUP1 SLOAD PUSH1 0xFF NOT AND SWAP2 SWAP1 SWAP3 AND OR SWAP1 SSTORE SWAP2 MLOAD DUP1 MLOAD SWAP7 SWAP8 POP SWAP2 SWAP6 SWAP4 SWAP5 DUP6 SWAP5 SWAP2 SWAP4 PUSH2 0x1D7D SWAP4 SWAP2 DUP6 ADD SWAP3 SWAP2 ADD SWAP1 PUSH2 0x2715 JUMP JUMPDEST POP PUSH1 0x80 DUP3 ADD MLOAD DUP1 MLOAD PUSH2 0x1D99 SWAP2 PUSH1 0x4 DUP5 ADD SWAP2 PUSH1 0x20 SWAP1 SWAP2 ADD SWAP1 PUSH2 0x2715 JUMP JUMPDEST POP PUSH1 0xA0 DUP3 ADD MLOAD PUSH1 0x5 DUP3 DUP2 ADD DUP1 SLOAD PUSH1 0xFF NOT SWAP1 DUP2 AND PUSH1 0xFF SWAP5 DUP6 AND OR SWAP1 SWAP2 SSTORE PUSH1 0xC0 SWAP1 SWAP5 ADD MLOAD PUSH1 0x6 SWAP1 SWAP4 ADD SWAP3 SWAP1 SWAP3 SSTORE PUSH1 0x20 DUP10 DUP2 ADD DUP1 MLOAD PUSH1 0x1 PUSH1 0x1 PUSH1 0xA0 SHL SUB SWAP1 DUP2 AND PUSH1 0x0 SWAP1 DUP2 MSTORE SWAP5 DUP4 MSTORE PUSH1 0x40 DUP1 DUP7 KECCAK256 DUP10 DUP8 MSTORE DUP5 MSTORE SWAP5 DUP6 SWAP1 KECCAK256 DUP1 SLOAD SWAP1 SWAP7 AND PUSH1 0x1 OR SWAP1 SWAP6 SSTORE MLOAD SWAP3 MLOAD SWAP2 DUP10 AND DUP3 MSTORE DUP6 SWAP4 SWAP3 SWAP1 SWAP3 AND SWAP2 PUSH32 0x18B513113DFD95E7910B62E37E309959D012AF15728300521D6EC7BC129AC0C6 SWAP2 ADD JUMPDEST PUSH1 0x40 MLOAD DUP1 SWAP2 SUB SWAP1 LOG3 POP POP POP POP POP POP POP POP POP JUMP JUMPDEST PUSH1 0x0 DUP4 DUP2 MSTORE PUSH1 0x2 PUSH1 0x20 DUP2 DUP2 MSTORE PUSH1 0x40 DUP1 DUP5 KECCAK256 DUP2 MLOAD PUSH2 0x100 DUP2 ADD DUP4 MSTORE DUP2 SLOAD DUP2 MSTORE PUSH1 0x1 DUP3 ADD SLOAD PUSH1 0x1 PUSH1 0x1 PUSH1 0xA0 SHL SUB AND SWAP4 DUP2 ADD SWAP4 SWAP1 SWAP4 MSTORE SWAP3 DUP4 ADD DUP1 SLOAD SWAP3 SWAP4 SWAP3 SWAP2 DUP5 ADD SWAP2 PUSH2 0x1E85 SWAP1 PUSH2 0x2E12 JUMP JUMPDEST DUP1 PUSH1 0x1F ADD PUSH1 0x20 DUP1 SWAP2 DIV MUL PUSH1 0x20 ADD PUSH1 0x40 MLOAD SWAP1 DUP2 ADD PUSH1 0x40 MSTORE DUP1 SWAP3 SWAP2 SWAP1 DUP2 DUP2 MSTORE PUSH1 0x20 ADD DUP3 DUP1 SLOAD PUSH2 0x1EB1 SWAP1 PUSH2 0x2E12 JUMP JUMPDEST DUP1 ISZERO PUSH2 0x1EFE JUMPI DUP1 PUSH1 0x1F LT PUSH2 0x1ED3 JUMPI PUSH2 0x100 DUP1 DUP4 SLOAD DIV MUL DUP4 MSTORE SWAP2 PUSH1 0x20 ADD SWAP2 PUSH2 0x1EFE JUMP JUMPDEST DUP3 ADD SWAP2 SWAP1 PUSH1 0x0 MSTORE PUSH1 0x20 PUSH1 0x0 KECCAK256 SWAP1 JUMPDEST DUP2 SLOAD DUP2 MSTORE SWAP1 PUSH1 0x1 ADD SWAP1 PUSH1 0x20 ADD DUP1 DUP4 GT PUSH2 0x1EE1 JUMPI DUP3 SWAP1 SUB PUSH1 0x1F AND DUP3 ADD SWAP2 JUMPDEST POP POP POP POP POP DUP2 MSTORE PUSH1 0x20 ADD PUSH1 0x3 DUP3 ADD DUP1 SLOAD PUSH2 0x1F17 SWAP1 PUSH2 0x2E12 JUMP JUMPDEST DUP1 PUSH1 0x1F ADD PUSH1 0x20 DUP1 SWAP2 DIV MUL PUSH1 0x20 ADD PUSH1 0x40 MLOAD SWAP1 DUP2 ADD PUSH1 0x40 MSTORE DUP1 SWAP3 SWAP2 SWAP1 DUP2 DUP2 MSTORE PUSH1 0x20 ADD DUP3 DUP1 SLOAD PUSH2 0x1F43 SWAP1 PUSH2 0x2E12 JUMP JUMPDEST DUP1 ISZERO PUSH2 0x1F90 JUMPI DUP1 PUSH1 0x1F LT PUSH2 0x1F65 JUMPI PUSH2 0x100 DUP1 DUP4 SLOAD DIV MUL DUP4 MSTORE SWAP2 PUSH1 0x20 ADD SWAP2 PUSH2 0x1F90 JUMP JUMPDEST DUP3 ADD SWAP2 SWAP1 PUSH1 0x0 MSTORE PUSH1 0x20 PUSH1 0x0 KECCAK256 SWAP1 JUMPDEST DUP2 SLOAD DUP2 MSTORE SWAP1 PUSH1 0x1 ADD SWAP1 PUSH1 0x20 ADD DUP1 DUP4 GT PUSH2 0x1F73 JUMPI DUP3 SWAP1 SUB PUSH1 0x1F AND DUP3 ADD SWAP2 JUMPDEST POP POP POP SWAP2 DUP4 MSTORE POP POP PUSH1 0x4 DUP3 ADD SLOAD PUSH1 0x20 DUP3 ADD MSTORE PUSH1 0x5 DUP3 ADD SLOAD PUSH1 0xFF AND ISZERO ISZERO PUSH1 0x40 DUP3 ADD MSTORE PUSH1 0x6 DUP3 ADD DUP1 SLOAD PUSH1 0x60 SWAP1 SWAP3 ADD SWAP2 PUSH2 0x1FC6 SWAP1 PUSH2 0x2E12 JUMP JUMPDEST DUP1 PUSH1 0x1F ADD PUSH1 0x20 DUP1 SWAP2 DIV MUL PUSH1 0x20 ADD PUSH1 0x40 MLOAD SWAP1 DUP2 ADD PUSH1 0x40 MSTORE DUP1 SWAP3 SWAP2 SWAP1 DUP2 DUP2 MSTORE PUSH1 0x20 ADD DUP3 DUP1 SLOAD PUSH2 0x1FF2 SWAP1 PUSH2 0x2E12 JUMP JUMPDEST DUP1 ISZERO PUSH2 0x203F JUMPI DUP1 PUSH1 0x1F LT PUSH2 0x2014 JUMPI PUSH2 0x100 DUP1 DUP4 SLOAD DIV MUL DUP4 MSTORE SWAP2 PUSH1 0x20 ADD SWAP2 PUSH2 0x203F JUMP JUMPDEST DUP3 ADD SWAP2 SWAP1 PUSH1 0x0 MSTORE PUSH1 0x20 PUSH1 0x0 KECCAK256 SWAP1 JUMPDEST DUP2 SLOAD DUP2 MSTORE SWAP1 PUSH1 0x1 ADD SWAP1 PUSH1 0x20 ADD DUP1 DUP4 GT PUSH2 0x2022 JUMPI DUP3 SWAP1 SUB PUSH1 0x1F AND DUP3 ADD SWAP2 JUMPDEST POP POP POP SWAP2 DUP4 MSTORE POP POP PUSH1 0x7 SWAP2 SWAP1 SWAP2 ADD SLOAD PUSH1 0xFF AND PUSH1 0x20 SWAP1 SWAP2 ADD MSTORE SWAP1 POP PUSH1 0x4B PUSH1 0x0 PUSH2 0x2066 DUP6 PUSH2 0x249C JUMP JUMPDEST SWAP1 POP PUSH1 0x0 PUSH2 0x2073 DUP7 PUSH2 0x253F JUMP JUMPDEST PUSH1 0x40 DUP1 MLOAD PUSH1 0xE0 DUP2 ADD DUP3 MSTORE PUSH1 0x1 DUP1 DUP3 MSTORE PUSH1 0x20 DUP9 DUP2 ADD MLOAD PUSH1 0x1 PUSH1 0x1 PUSH1 0xA0 SHL SUB SWAP1 DUP2 AND DUP3 DUP6 ADD SWAP1 DUP2 MSTORE PUSH1 0xFF DUP11 DUP2 AND SWAP7 DUP7 ADD SWAP7 DUP8 MSTORE PUSH1 0x60 DUP7 ADD DUP11 DUP2 MSTORE PUSH1 0x80 DUP8 ADD DUP10 SWAP1 MSTORE DUP14 DUP3 AND PUSH1 0xA0 DUP9 ADD MSTORE TIMESTAMP PUSH1 0xC0 DUP9 ADD MSTORE PUSH1 0x4 DUP6 MSTORE PUSH32 0xABD6E7CB50984FF9C2F3E18A2660C3353DADF4E3291DEEB275DAE2CD1E44FE05 DUP1 SLOAD DUP1 DUP9 ADD DUP3 SSTORE PUSH1 0x0 SWAP2 SWAP1 SWAP2 MSTORE DUP8 MLOAD PUSH32 0x210AFE6EBEF982FA193BB4E17F9F236CDF09AF7788627B5D54D9E3E4B100021B PUSH1 0x6 SWAP1 SWAP3 MUL SWAP2 DUP3 ADD SWAP1 DUP2 SSTORE SWAP4 MLOAD PUSH32 0x210AFE6EBEF982FA193BB4E17F9F236CDF09AF7788627B5D54D9E3E4B100021C DUP3 ADD DUP1 SLOAD SWAP11 MLOAD SWAP1 SWAP5 AND PUSH1 0x1 PUSH1 0xA0 SHL MUL PUSH1 0x1 PUSH1 0x1 PUSH1 0xA8 SHL SUB NOT SWAP1 SWAP11 AND SWAP6 AND SWAP5 SWAP1 SWAP5 OR SWAP8 SWAP1 SWAP8 OR SWAP1 SSTORE SWAP5 MLOAD DUP1 MLOAD SWAP7 SWAP8 POP SWAP3 SWAP6 SWAP4 SWAP5 DUP6 SWAP5 SWAP1 SWAP4 PUSH2 0x21A9 SWAP4 PUSH32 0x210AFE6EBEF982FA193BB4E17F9F236CDF09AF7788627B5D54D9E3E4B100021D SWAP1 SWAP4 ADD SWAP3 ADD SWAP1 PUSH2 0x2715 JUMP JUMPDEST POP PUSH1 0x80 DUP3 ADD MLOAD PUSH1 0x3 DUP3 ADD SWAP1 PUSH2 0x21BE SWAP1 DUP3 PUSH2 0x2E9A JUMP JUMPDEST POP PUSH1 0xA0 DUP3 ADD MLOAD PUSH1 0x4 DUP3 ADD DUP1 SLOAD PUSH1 0xFF NOT AND PUSH1 0xFF SWAP3 DUP4 AND OR SWAP1 SSTORE PUSH1 0xC0 SWAP1 SWAP3 ADD MLOAD PUSH1 0x5 SWAP1 SWAP2 ADD SSTORE PUSH1 0x20 DUP8 DUP2 ADD MLOAD PUSH1 0x40 MLOAD SWAP3 DUP9 AND DUP4 MSTORE PUSH1 0x1 PUSH1 0x1 PUSH1 0xA0 SHL SUB AND SWAP2 DUP5 SWAP2 PUSH32 0x411A39B9CBF7E1768DCBC9C2251FD88624748618AB4F15483085E24617842163 SWAP2 ADD PUSH2 0x1E2A JUMP JUMPDEST PUSH2 0x222E DUP3 DUP3 PUSH2 0x14BC JUMP JUMPDEST PUSH2 0xC6A JUMPI PUSH1 0x0 DUP3 DUP2 MSTORE PUSH1 0x20 DUP2 DUP2 MSTORE PUSH1 0x40 DUP1 DUP4 KECCAK256 PUSH1 0x1 PUSH1 0x1 PUSH1 0xA0 SHL SUB DUP6 AND DUP5 MSTORE SWAP1 SWAP2 MSTORE SWAP1 KECCAK256 DUP1 SLOAD PUSH1 0xFF NOT AND PUSH1 0x1 OR SWAP1 SSTORE PUSH2 0x2264 CALLER SWAP1 JUMP JUMPDEST PUSH1 0x1 PUSH1 0x1 PUSH1 0xA0 SHL SUB AND DUP2 PUSH1 0x1 PUSH1 0x1 PUSH1 0xA0 SHL SUB AND DUP4 PUSH32 0x2F8788117E7EFF1D82E926EC794901D17C78024A50270940304540A733656F0D PUSH1 0x40 MLOAD PUSH1 0x40 MLOAD DUP1 SWAP2 SUB SWAP1 LOG4 POP POP JUMP JUMPDEST PUSH2 0x22B2 DUP3 DUP3 PUSH2 0x14BC JUMP JUMPDEST ISZERO PUSH2 0xC6A JUMPI PUSH1 0x0 DUP3 DUP2 MSTORE PUSH1 0x20 DUP2 DUP2 MSTORE PUSH1 0x40 DUP1 DUP4 KECCAK256 PUSH1 0x1 PUSH1 0x1 PUSH1 0xA0 SHL SUB DUP6 AND DUP1 DUP6 MSTORE SWAP3 MSTORE DUP1 DUP4 KECCAK256 DUP1 SLOAD PUSH1 0xFF NOT AND SWAP1 SSTORE MLOAD CALLER SWAP3 DUP6 SWAP2 PUSH32 0xF6391F5C32D9C69D2A47EA670B442974B53935D1EDC7FD64EB21E047A839171B SWAP2 SWAP1 LOG4 POP POP JUMP JUMPDEST PUSH2 0x2317 DUP3 DUP3 PUSH2 0x14BC JUMP JUMPDEST PUSH2 0xC6A JUMPI PUSH2 0x2324 DUP2 PUSH2 0x2560 JUMP JUMPDEST PUSH2 0x232F DUP4 PUSH1 0x20 PUSH2 0x2572 JUMP JUMPDEST PUSH1 0x40 MLOAD PUSH1 0x20 ADD PUSH2 0x2340 SWAP3 SWAP2 SWAP1 PUSH2 0x316B JUMP JUMPDEST PUSH1 0x40 DUP1 MLOAD PUSH1 0x1F NOT DUP2 DUP5 SUB ADD DUP2 MSTORE SWAP1 DUP3 SWAP1 MSTORE PUSH3 0x461BCD PUSH1 0xE5 SHL DUP3 MSTORE PUSH2 0x579 SWAP2 PUSH1 0x4 ADD PUSH2 0x2F5A JUMP JUMPDEST PUSH1 0x40 DUP1 MLOAD PUSH1 0x2 DUP1 DUP3 MSTORE PUSH1 0x60 DUP3 DUP2 ADD SWAP1 SWAP4 MSTORE PUSH1 0x0 SWAP2 SWAP1 DUP2 PUSH1 0x20 ADD JUMPDEST PUSH1 0x60 DUP2 MSTORE PUSH1 0x20 ADD SWAP1 PUSH1 0x1 SWAP1 SUB SWAP1 DUP2 PUSH2 0x2380 JUMPI SWAP1 POP POP SWAP1 POP PUSH1 0x40 MLOAD DUP1 PUSH1 0x40 ADD PUSH1 0x40 MSTORE DUP1 PUSH1 0xF DUP2 MSTORE PUSH1 0x20 ADD PUSH15 0x50726F626C656D20736F6C76696E67 PUSH1 0x88 SHL DUP2 MSTORE POP DUP2 PUSH1 0x0 DUP2 MLOAD DUP2 LT PUSH2 0x23D2 JUMPI PUSH2 0x23D2 PUSH2 0x3008 JUMP JUMPDEST PUSH1 0x20 MUL PUSH1 0x20 ADD ADD DUP2 SWAP1 MSTORE POP PUSH1 0x40 MLOAD DUP1 PUSH1 0x40 ADD PUSH1 0x40 MSTORE DUP1 PUSH1 0x10 DUP2 MSTORE PUSH1 0x20 ADD PUSH16 0x546563686E6963616C20736B696C6C73 PUSH1 0x80 SHL DUP2 MSTORE POP DUP2 PUSH1 0x1 DUP2 MLOAD DUP2 LT PUSH2 0x2419 JUMPI PUSH2 0x2419 PUSH2 0x3008 JUMP JUMPDEST PUSH1 0x20 SWAP1 DUP2 MUL SWAP2 SWAP1 SWAP2 ADD ADD MSTORE SWAP3 SWAP2 POP POP JUMP JUMPDEST PUSH1 0x40 DUP1 MLOAD PUSH1 0x1 DUP1 DUP3 MSTORE DUP2 DUP4 ADD SWAP1 SWAP3 MSTORE PUSH1 0x60 SWAP2 PUSH1 0x0 SWAP2 SWAP1 DUP2 PUSH1 0x20 ADD JUMPDEST PUSH1 0x60 DUP2 MSTORE PUSH1 0x20 ADD SWAP1 PUSH1 0x1 SWAP1 SUB SWAP1 DUP2 PUSH2 0x2445 JUMPI SWAP1 POP POP SWAP1 POP PUSH1 0x40 MLOAD DUP1 PUSH1 0x40 ADD PUSH1 0x40 MSTORE DUP1 PUSH1 0x14 DUP2 MSTORE PUSH1 0x20 ADD PUSH20 0x436F6D6D756E69636174696F6E20736B696C6C73 PUSH1 0x60 SHL DUP2 MSTORE POP DUP2 PUSH1 0x0 DUP2 MLOAD DUP2 LT PUSH2 0x2419 JUMPI PUSH2 0x2419 PUSH2 0x3008 JUMP JUMPDEST PUSH1 0x40 DUP1 MLOAD PUSH1 0x2 DUP1 DUP3 MSTORE PUSH1 0x60 DUP3 DUP2 ADD SWAP1 SWAP4 MSTORE PUSH1 0x0 SWAP2 SWAP1 DUP2 PUSH1 0x20 ADD JUMPDEST PUSH1 0x60 DUP2 MSTORE PUSH1 0x20 ADD SWAP1 PUSH1 0x1 SWAP1 SUB SWAP1 DUP2 PUSH2 0x24B6 JUMPI SWAP1 POP POP SWAP1 POP PUSH1 0x40 MLOAD DUP1 PUSH1 0x40 ADD PUSH1 0x40 MSTORE DUP1 PUSH1 0xA DUP2 MSTORE PUSH1 0x20 ADD PUSH10 0x12985D9854D8DC9A5C1D PUSH1 0xB2 SHL DUP2 MSTORE POP DUP2 PUSH1 0x0 DUP2 MLOAD DUP2 LT PUSH2 0x2503 JUMPI PUSH2 0x2503 PUSH2 0x3008 JUMP JUMPDEST PUSH1 0x20 MUL PUSH1 0x20 ADD ADD DUP2 SWAP1 MSTORE POP PUSH1 0x40 MLOAD DUP1 PUSH1 0x40 ADD PUSH1 0x40 MSTORE DUP1 PUSH1 0x5 DUP2 MSTORE PUSH1 0x20 ADD PUSH5 0x14995858DD PUSH1 0xDA SHL DUP2 MSTORE POP DUP2 PUSH1 0x1 DUP2 MLOAD DUP2 LT PUSH2 0x2419 JUMPI PUSH2 0x2419 PUSH2 0x3008 JUMP JUMPDEST PUSH1 0x60 PUSH1 0x40 MLOAD DUP1 PUSH1 0x60 ADD PUSH1 0x40 MSTORE DUP1 PUSH1 0x33 DUP2 MSTORE PUSH1 0x20 ADD PUSH2 0x31F8 PUSH1 0x33 SWAP2 CODECOPY SWAP3 SWAP2 POP POP JUMP JUMPDEST PUSH1 0x60 PUSH2 0x530 PUSH1 0x1 PUSH1 0x1 PUSH1 0xA0 SHL SUB DUP4 AND PUSH1 0x14 JUMPDEST PUSH1 0x60 PUSH1 0x0 PUSH2 0x2581 DUP4 PUSH1 0x2 PUSH2 0x31E0 JUMP JUMPDEST PUSH2 0x258C SWAP1 PUSH1 0x2 PUSH2 0x3141 JUMP JUMPDEST PUSH8 0xFFFFFFFFFFFFFFFF DUP2 GT ISZERO PUSH2 0x25A4 JUMPI PUSH2 0x25A4 PUSH2 0x27FC JUMP JUMPDEST PUSH1 0x40 MLOAD SWAP1 DUP1 DUP3 MSTORE DUP1 PUSH1 0x1F ADD PUSH1 0x1F NOT AND PUSH1 0x20 ADD DUP3 ADD PUSH1 0x40 MSTORE DUP1 ISZERO PUSH2 0x25CE JUMPI PUSH1 0x20 DUP3 ADD DUP2 DUP1 CALLDATASIZE DUP4 CALLDATACOPY ADD SWAP1 POP JUMPDEST POP SWAP1 POP PUSH1 0x3 PUSH1 0xFC SHL DUP2 PUSH1 0x0 DUP2 MLOAD DUP2 LT PUSH2 0x25E9 JUMPI PUSH2 0x25E9 PUSH2 0x3008 JUMP JUMPDEST PUSH1 0x20 ADD ADD SWAP1 PUSH1 0x1 PUSH1 0x1 PUSH1 0xF8 SHL SUB NOT AND SWAP1 DUP2 PUSH1 0x0 BYTE SWAP1 MSTORE8 POP PUSH1 0xF PUSH1 0xFB SHL DUP2 PUSH1 0x1 DUP2 MLOAD DUP2 LT PUSH2 0x2618 JUMPI PUSH2 0x2618 PUSH2 0x3008 JUMP JUMPDEST PUSH1 0x20 ADD ADD SWAP1 PUSH1 0x1 PUSH1 0x1 PUSH1 0xF8 SHL SUB NOT AND SWAP1 DUP2 PUSH1 0x0 BYTE SWAP1 MSTORE8 POP PUSH1 0x0 PUSH2 0x263C DUP5 PUSH1 0x2 PUSH2 0x31E0 JUMP JUMPDEST PUSH2 0x2647 SWAP1 PUSH1 0x1 PUSH2 0x3141 JUMP JUMPDEST SWAP1 POP JUMPDEST PUSH1 0x1 DUP2 GT ISZERO PUSH2 0x26BF JUMPI PUSH16 0x181899199A1A9B1B9C1CB0B131B232B3 PUSH1 0x81 SHL DUP6 PUSH1 0xF AND PUSH1 0x10 DUP2 LT PUSH2 0x267B JUMPI PUSH2 0x267B PUSH2 0x3008 JUMP JUMPDEST BYTE PUSH1 0xF8 SHL DUP3 DUP3 DUP2 MLOAD DUP2 LT PUSH2 0x2691 JUMPI PUSH2 0x2691 PUSH2 0x3008 JUMP JUMPDEST PUSH1 0x20 ADD ADD SWAP1 PUSH1 0x1 PUSH1 0x1 PUSH1 0xF8 SHL SUB NOT AND SWAP1 DUP2 PUSH1 0x0 BYTE SWAP1 MSTORE8 POP PUSH1 0x4 SWAP5 SWAP1 SWAP5 SHR SWAP4 PUSH2 0x26B8 DUP2 PUSH2 0x3154 JUMP JUMPDEST SWAP1 POP PUSH2 0x264A JUMP JUMPDEST POP DUP4 ISZERO PUSH2 0x270E JUMPI PUSH1 0x40 MLOAD PUSH3 0x461BCD PUSH1 0xE5 SHL DUP2 MSTORE PUSH1 0x20 PUSH1 0x4 DUP3 ADD DUP2 SWAP1 MSTORE PUSH1 0x24 DUP3 ADD MSTORE PUSH32 0x537472696E67733A20686578206C656E67746820696E73756666696369656E74 PUSH1 0x44 DUP3 ADD MSTORE PUSH1 0x64 ADD PUSH2 0x579 JUMP JUMPDEST SWAP4 SWAP3 POP POP POP JUMP JUMPDEST DUP3 DUP1 SLOAD DUP3 DUP3 SSTORE SWAP1 PUSH1 0x0 MSTORE PUSH1 0x20 PUSH1 0x0 KECCAK256 SWAP1 DUP2 ADD SWAP3 DUP3 ISZERO PUSH2 0x275B JUMPI SWAP2 PUSH1 0x20 MUL DUP3 ADD JUMPDEST DUP3 DUP2 GT ISZERO PUSH2 0x275B JUMPI DUP3 MLOAD DUP3 SWAP1 PUSH2 0x274B SWAP1 DUP3 PUSH2 0x2E9A JUMP JUMPDEST POP SWAP2 PUSH1 0x20 ADD SWAP2 SWAP1 PUSH1 0x1 ADD SWAP1 PUSH2 0x2735 JUMP JUMPDEST POP PUSH2 0x2767 SWAP3 SWAP2 POP PUSH2 0x276B JUMP JUMPDEST POP SWAP1 JUMP JUMPDEST DUP1 DUP3 GT ISZERO PUSH2 0x2767 JUMPI PUSH1 0x0 PUSH2 0x277F DUP3 DUP3 PUSH2 0x2788 JUMP JUMPDEST POP PUSH1 0x1 ADD PUSH2 0x276B JUMP JUMPDEST POP DUP1 SLOAD PUSH2 0x2794 SWAP1 PUSH2 0x2E12 JUMP JUMPDEST PUSH1 0x0 DUP3 SSTORE DUP1 PUSH1 0x1F LT PUSH2 0x27A4 JUMPI POP POP JUMP JUMPDEST PUSH1 0x1F ADD PUSH1 0x20 SWAP1 DIV SWAP1 PUSH1 0x0 MSTORE PUSH1 0x20 PUSH1 0x0 KECCAK256 SWAP1 DUP2 ADD SWAP1 PUSH2 0x1A2C SWAP2 SWAP1 JUMPDEST DUP1 DUP3 GT ISZERO PUSH2 0x2767 JUMPI PUSH1 0x0 DUP2 SSTORE PUSH1 0x1 ADD PUSH2 0x27BE JUMP JUMPDEST PUSH1 0x0 PUSH1 0x20 DUP3 DUP5 SUB SLT ISZERO PUSH2 0x27E4 JUMPI PUSH1 0x0 DUP1 REVERT JUMPDEST DUP2 CALLDATALOAD PUSH1 0x1 PUSH1 0x1 PUSH1 0xE0 SHL SUB NOT DUP2 AND DUP2 EQ PUSH2 0x270E JUMPI PUSH1 0x0 DUP1 REVERT JUMPDEST PUSH4 0x4E487B71 PUSH1 0xE0 SHL PUSH1 0x0 MSTORE PUSH1 0x41 PUSH1 0x4 MSTORE PUSH1 0x24 PUSH1 0x0 REVERT JUMPDEST PUSH1 0x0 DUP3 PUSH1 0x1F DUP4 ADD SLT PUSH2 0x2823 JUMPI PUSH1 0x0 DUP1 REVERT JUMPDEST DUP2 CALLDATALOAD PUSH8 0xFFFFFFFFFFFFFFFF DUP1 DUP3 GT ISZERO PUSH2 0x283E JUMPI PUSH2 0x283E PUSH2 0x27FC JUMP JUMPDEST PUSH1 0x40 MLOAD PUSH1 0x1F DUP4 ADD PUSH1 0x1F NOT SWAP1 DUP2 AND PUSH1 0x3F ADD AND DUP2 ADD SWAP1 DUP3 DUP3 GT DUP2 DUP4 LT OR ISZERO PUSH2 0x2866 JUMPI PUSH2 0x2866 PUSH2 0x27FC JUMP JUMPDEST DUP2 PUSH1 0x40 MSTORE DUP4 DUP2 MSTORE DUP7 PUSH1 0x20 DUP6 DUP9 ADD ADD GT ISZERO PUSH2 0x287F JUMPI PUSH1 0x0 DUP1 REVERT JUMPDEST DUP4 PUSH1 0x20 DUP8 ADD PUSH1 0x20 DUP4 ADD CALLDATACOPY PUSH1 0x0 PUSH1 0x20 DUP6 DUP4 ADD ADD MSTORE DUP1 SWAP5 POP POP POP POP POP SWAP3 SWAP2 POP POP JUMP JUMPDEST PUSH1 0x0 DUP1 PUSH1 0x0 PUSH1 0x60 DUP5 DUP7 SUB SLT ISZERO PUSH2 0x28B4 JUMPI PUSH1 0x0 DUP1 REVERT JUMPDEST DUP4 CALLDATALOAD SWAP3 POP PUSH1 0x20 DUP5 ADD CALLDATALOAD PUSH8 0xFFFFFFFFFFFFFFFF DUP1 DUP3 GT ISZERO PUSH2 0x28D3 JUMPI PUSH1 0x0 DUP1 REVERT JUMPDEST PUSH2 0x28DF DUP8 DUP4 DUP9 ADD PUSH2 0x2812 JUMP JUMPDEST SWAP4 POP PUSH1 0x40 DUP7 ADD CALLDATALOAD SWAP2 POP DUP1 DUP3 GT ISZERO PUSH2 0x28F5 JUMPI PUSH1 0x0 DUP1 REVERT JUMPDEST POP PUSH2 0x2902 DUP7 DUP3 DUP8 ADD PUSH2 0x2812 JUMP JUMPDEST SWAP2 POP POP SWAP3 POP SWAP3 POP SWAP3 JUMP JUMPDEST PUSH1 0x0 DUP1 PUSH1 0x0 PUSH1 0x60 DUP5 DUP7 SUB SLT ISZERO PUSH2 0x2921 JUMPI PUSH1 0x0 DUP1 REVERT JUMPDEST DUP4 CALLDATALOAD SWAP3 POP PUSH1 0x20 DUP5 ADD CALLDATALOAD PUSH8 0xFFFFFFFFFFFFFFFF DUP2 GT ISZERO PUSH2 0x293F JUMPI PUSH1 0x0 DUP1 REVERT JUMPDEST PUSH2 0x294B DUP7 DUP3 DUP8 ADD PUSH2 0x2812 JUMP JUMPDEST SWAP3 POP POP PUSH1 0x40 DUP5 ADD CALLDATALOAD PUSH1 0xFF DUP2 AND DUP2 EQ PUSH2 0x2962 JUMPI PUSH1 0x0 DUP1 REVERT JUMPDEST DUP1 SWAP2 POP POP SWAP3 POP SWAP3 POP SWAP3 JUMP JUMPDEST PUSH1 0x0 PUSH1 0x20 DUP3 DUP5 SUB SLT ISZERO PUSH2 0x297F JUMPI PUSH1 0x0 DUP1 REVERT JUMPDEST POP CALLDATALOAD SWAP2 SWAP1 POP JUMP JUMPDEST DUP1 CALLDATALOAD PUSH1 0x1 PUSH1 0x1 PUSH1 0xA0 SHL SUB DUP2 AND DUP2 EQ PUSH2 0x299D JUMPI PUSH1 0x0 DUP1 REVERT JUMPDEST SWAP2 SWAP1 POP JUMP JUMPDEST PUSH1 0x0 DUP1 PUSH1 0x40 DUP4 DUP6 SUB SLT ISZERO PUSH2 0x29B5 JUMPI PUSH1 0x0 DUP1 REVERT JUMPDEST DUP3 CALLDATALOAD SWAP2 POP PUSH2 0x29C5 PUSH1 0x20 DUP5 ADD PUSH2 0x2986 JUMP JUMPDEST SWAP1 POP SWAP3 POP SWAP3 SWAP1 POP JUMP JUMPDEST PUSH1 0x0 JUMPDEST DUP4 DUP2 LT ISZERO PUSH2 0x29E9 JUMPI DUP2 DUP2 ADD MLOAD DUP4 DUP3 ADD MSTORE PUSH1 0x20 ADD PUSH2 0x29D1 JUMP JUMPDEST POP POP PUSH1 0x0 SWAP2 ADD MSTORE JUMP JUMPDEST PUSH1 0x0 DUP2 MLOAD DUP1 DUP5 MSTORE PUSH2 0x2A0A DUP2 PUSH1 0x20 DUP7 ADD PUSH1 0x20 DUP7 ADD PUSH2 0x29CE JUMP JUMPDEST PUSH1 0x1F ADD PUSH1 0x1F NOT AND SWAP3 SWAP1 SWAP3 ADD PUSH1 0x20 ADD SWAP3 SWAP2 POP POP JUMP JUMPDEST DUP9 DUP2 MSTORE PUSH1 0x1 PUSH1 0x1 PUSH1 0xA0 SHL SUB DUP9 AND PUSH1 0x20 DUP3 ADD MSTORE PUSH2 0x100 PUSH1 0x40 DUP3 ADD DUP2 SWAP1 MSTORE PUSH1 0x0 SWAP1 PUSH2 0x2A49 DUP4 DUP3 ADD DUP11 PUSH2 0x29F2 JUMP JUMPDEST SWAP1 POP DUP3 DUP2 SUB PUSH1 0x60 DUP5 ADD MSTORE PUSH2 0x2A5D DUP2 DUP10 PUSH2 0x29F2 JUMP JUMPDEST SWAP1 POP DUP7 PUSH1 0x80 DUP5 ADD MSTORE DUP6 ISZERO ISZERO PUSH1 0xA0 DUP5 ADD MSTORE DUP3 DUP2 SUB PUSH1 0xC0 DUP5 ADD MSTORE PUSH2 0x2A7F DUP2 DUP7 PUSH2 0x29F2 JUMP JUMPDEST SWAP2 POP POP PUSH1 0xFF DUP4 AND PUSH1 0xE0 DUP4 ADD MSTORE SWAP10 SWAP9 POP POP POP POP POP POP POP POP POP JUMP JUMPDEST PUSH1 0x0 DUP1 PUSH1 0x40 DUP4 DUP6 SUB SLT ISZERO PUSH2 0x2AAB JUMPI PUSH1 0x0 DUP1 REVERT JUMPDEST POP POP DUP1 CALLDATALOAD SWAP3 PUSH1 0x20 SWAP1 SWAP2 ADD CALLDATALOAD SWAP2 POP JUMP JUMPDEST PUSH1 0x0 DUP1 PUSH1 0x40 DUP4 DUP6 SUB SLT ISZERO PUSH2 0x2ACD JUMPI PUSH1 0x0 DUP1 REVERT JUMPDEST PUSH2 0x2AD6 DUP4 PUSH2 0x2986 JUMP JUMPDEST SWAP5 PUSH1 0x20 SWAP4 SWAP1 SWAP4 ADD CALLDATALOAD SWAP4 POP POP POP JUMP JUMPDEST PUSH1 0x0 DUP2 MLOAD DUP1 DUP5 MSTORE PUSH1 0x20 DUP1 DUP6 ADD DUP1 DUP2 SWAP7 POP DUP4 PUSH1 0x5 SHL DUP2 ADD SWAP2 POP DUP3 DUP7 ADD PUSH1 0x0 JUMPDEST DUP6 DUP2 LT ISZERO PUSH2 0x2B2C JUMPI DUP3 DUP5 SUB DUP10 MSTORE PUSH2 0x2B1A DUP5 DUP4 MLOAD PUSH2 0x29F2 JUMP JUMPDEST SWAP9 DUP6 ADD SWAP9 SWAP4 POP SWAP1 DUP5 ADD SWAP1 PUSH1 0x1 ADD PUSH2 0x2B02 JUMP JUMPDEST POP SWAP2 SWAP8 SWAP7 POP POP POP POP POP POP POP JUMP JUMPDEST PUSH1 0x1 DUP1 PUSH1 0xA0 SHL SUB DUP2 MLOAD AND DUP3 MSTORE PUSH1 0x20 DUP2 ADD MLOAD PUSH1 0x20 DUP4 ADD MSTORE PUSH1 0xFF PUSH1 0x40 DUP3 ADD MLOAD AND PUSH1 0x40 DUP4 ADD MSTORE PUSH1 0x0 PUSH1 0x60 DUP3 ADD MLOAD PUSH1 0xE0 PUSH1 0x60 DUP6 ADD MSTORE PUSH2 0x2B77 PUSH1 0xE0 DUP6 ADD DUP3 PUSH2 0x2AE4 JUMP JUMPDEST SWAP1 POP PUSH1 0x80 DUP4 ADD MLOAD DUP5 DUP3 SUB PUSH1 0x80 DUP7 ADD MSTORE PUSH2 0x2B90 DUP3 DUP3 PUSH2 0x2AE4 JUMP JUMPDEST SWAP2 POP POP PUSH1 0xFF PUSH1 0xA0 DUP5 ADD MLOAD AND PUSH1 0xA0 DUP6 ADD MSTORE PUSH1 0xC0 DUP4 ADD MLOAD PUSH1 0xC0 DUP6 ADD MSTORE DUP1 SWAP2 POP POP SWAP3 SWAP2 POP POP JUMP JUMPDEST PUSH1 0x20 DUP2 MSTORE PUSH1 0x0 PUSH2 0x270E PUSH1 0x20 DUP4 ADD DUP5 PUSH2 0x2B39 JUMP JUMPDEST PUSH1 0x0 PUSH1 0x20 DUP1 DUP4 ADD DUP2 DUP5 MSTORE DUP1 DUP6 MLOAD DUP1 DUP4 MSTORE PUSH1 0x40 SWAP3 POP DUP3 DUP7 ADD SWAP2 POP DUP3 DUP2 PUSH1 0x5 SHL DUP8 ADD ADD DUP5 DUP9 ADD PUSH1 0x0 JUMPDEST DUP4 DUP2 LT ISZERO PUSH2 0x2C8C JUMPI DUP9 DUP4 SUB PUSH1 0x3F NOT ADD DUP6 MSTORE DUP2 MLOAD DUP1 MLOAD DUP5 MSTORE DUP8 DUP2 ADD MLOAD PUSH1 0x1 PUSH1 0x1 PUSH1 0xA0 SHL SUB AND DUP9 DUP6 ADD MSTORE DUP7 DUP2 ADD MLOAD PUSH1 0xFF SWAP1 DUP2 AND DUP9 DUP7 ADD MSTORE PUSH1 0x60 DUP1 DUP4 ADD MLOAD PUSH1 0xE0 DUP3 DUP9 ADD DUP2 SWAP1 MSTORE SWAP3 SWAP1 PUSH2 0x2C3F DUP5 DUP10 ADD DUP3 PUSH2 0x2AE4 JUMP JUMPDEST SWAP4 POP POP PUSH1 0x80 SWAP2 POP DUP2 DUP5 ADD MLOAD DUP8 DUP5 SUB DUP4 DUP10 ADD MSTORE PUSH2 0x2C5B DUP5 DUP3 PUSH2 0x29F2 JUMP JUMPDEST PUSH1 0xA0 DUP7 DUP2 ADD MLOAD SWAP1 SWAP4 AND SWAP3 DUP10 ADD SWAP3 SWAP1 SWAP3 MSTORE POP PUSH1 0xC0 SWAP4 DUP5 ADD MLOAD SWAP4 SWAP1 SWAP7 ADD SWAP3 SWAP1 SWAP3 MSTORE POP POP SWAP4 DUP7 ADD SWAP4 SWAP1 DUP7 ADD SWAP1 PUSH1 0x1 ADD PUSH2 0x2BEE JUMP JUMPDEST POP SWAP1 SWAP9 SWAP8 POP POP POP POP POP POP POP POP JUMP JUMPDEST PUSH1 0x0 PUSH1 0x20 DUP3 DUP5 SUB SLT ISZERO PUSH2 0x2CAC JUMPI PUSH1 0x0 DUP1 REVERT JUMPDEST PUSH2 0x270E DUP3 PUSH2 0x2986 JUMP JUMPDEST PUSH1 0x0 PUSH1 0x20 DUP1 DUP4 ADD DUP2 DUP5 MSTORE DUP1 DUP6 MLOAD DUP1 DUP4 MSTORE PUSH1 0x40 DUP7 ADD SWAP2 POP PUSH1 0x40 DUP2 PUSH1 0x5 SHL DUP8 ADD ADD SWAP3 POP DUP4 DUP8 ADD PUSH1 0x0 JUMPDEST DUP3 DUP2 LT ISZERO PUSH2 0x2D0A JUMPI PUSH1 0x3F NOT DUP9 DUP7 SUB ADD DUP5 MSTORE PUSH2 0x2CF8 DUP6 DUP4 MLOAD PUSH2 0x2B39 JUMP JUMPDEST SWAP5 POP SWAP3 DUP6 ADD SWAP3 SWAP1 DUP6 ADD SWAP1 PUSH1 0x1 ADD PUSH2 0x2CDC JUMP JUMPDEST POP SWAP3 SWAP8 SWAP7 POP POP POP POP POP POP POP JUMP JUMPDEST DUP7 DUP2 MSTORE PUSH1 0x1 PUSH1 0x1 PUSH1 0xA0 SHL SUB DUP7 AND PUSH1 0x20 DUP3 ADD MSTORE PUSH1 0xFF DUP6 AND PUSH1 0x40 DUP3 ADD MSTORE PUSH1 0xC0 PUSH1 0x60 DUP3 ADD DUP2 SWAP1 MSTORE PUSH1 0x0 SWAP1 PUSH2 0x2D4A SWAP1 DUP4 ADD DUP7 PUSH2 0x29F2 JUMP JUMPDEST PUSH1 0xFF SWAP5 SWAP1 SWAP5 AND PUSH1 0x80 DUP4 ADD MSTORE POP PUSH1 0xA0 ADD MSTORE SWAP5 SWAP4 POP POP POP POP JUMP JUMPDEST PUSH32 0x4D6174636820667265656C616E63657220746F206A6F622049443A2000000000 DUP2 MSTORE PUSH1 0x0 DUP5 MLOAD PUSH2 0x2D9A DUP2 PUSH1 0x1C DUP6 ADD PUSH1 0x20 DUP10 ADD PUSH2 0x29CE JUMP JUMPDEST PUSH22 0x1710233932B2B630B731B2B910383937B334B6329D1 PUSH1 0x55 SHL PUSH1 0x1C SWAP2 DUP5 ADD SWAP2 DUP3 ADD MSTORE DUP5 MLOAD PUSH2 0x2DD0 DUP2 PUSH1 0x32 DUP5 ADD PUSH1 0x20 DUP10 ADD PUSH2 0x29CE JUMP JUMPDEST PUSH20 0x17102537B1103932B8BAB4B932B6B2B73A399D1 PUSH1 0x65 SHL PUSH1 0x32 SWAP3 SWAP1 SWAP2 ADD SWAP2 DUP3 ADD MSTORE DUP4 MLOAD PUSH2 0x2E05 DUP2 PUSH1 0x46 DUP5 ADD PUSH1 0x20 DUP9 ADD PUSH2 0x29CE JUMP JUMPDEST ADD PUSH1 0x46 ADD SWAP6 SWAP5 POP POP POP POP POP JUMP JUMPDEST PUSH1 0x1 DUP2 DUP2 SHR SWAP1 DUP3 AND DUP1 PUSH2 0x2E26 JUMPI PUSH1 0x7F DUP3 AND SWAP2 POP JUMPDEST PUSH1 0x20 DUP3 LT DUP2 SUB PUSH2 0x2E46 JUMPI PUSH4 0x4E487B71 PUSH1 0xE0 SHL PUSH1 0x0 MSTORE PUSH1 0x22 PUSH1 0x4 MSTORE PUSH1 0x24 PUSH1 0x0 REVERT JUMPDEST POP SWAP2 SWAP1 POP JUMP JUMPDEST PUSH1 0x1F DUP3 GT ISZERO PUSH2 0x9FC JUMPI PUSH1 0x0 DUP2 DUP2 MSTORE PUSH1 0x20 DUP2 KECCAK256 PUSH1 0x1F DUP6 ADD PUSH1 0x5 SHR DUP2 ADD PUSH1 0x20 DUP7 LT ISZERO PUSH2 0x2E73 JUMPI POP DUP1 JUMPDEST PUSH1 0x1F DUP6 ADD PUSH1 0x5 SHR DUP3 ADD SWAP2 POP JUMPDEST DUP2 DUP2 LT ISZERO PUSH2 0x2E92 JUMPI DUP3 DUP2 SSTORE PUSH1 0x1 ADD PUSH2 0x2E7F JUMP JUMPDEST POP POP POP POP POP POP JUMP JUMPDEST DUP2 MLOAD PUSH8 0xFFFFFFFFFFFFFFFF DUP2 GT ISZERO PUSH2 0x2EB4 JUMPI PUSH2 0x2EB4 PUSH2 0x27FC JUMP JUMPDEST PUSH2 0x2EC8 DUP2 PUSH2 0x2EC2 DUP5 SLOAD PUSH2 0x2E12 JUMP JUMPDEST DUP5 PUSH2 0x2E4C JUMP JUMPDEST PUSH1 0x20 DUP1 PUSH1 0x1F DUP4 GT PUSH1 0x1 DUP2 EQ PUSH2 0x2EFD JUMPI PUSH1 0x0 DUP5 ISZERO PUSH2 0x2EE5 JUMPI POP DUP6 DUP4 ADD MLOAD JUMPDEST PUSH1 0x0 NOT PUSH1 0x3 DUP7 SWAP1 SHL SHR NOT AND PUSH1 0x1 DUP6 SWAP1 SHL OR DUP6 SSTORE PUSH2 0x2E92 JUMP JUMPDEST PUSH1 0x0 DUP6 DUP2 MSTORE PUSH1 0x20 DUP2 KECCAK256 PUSH1 0x1F NOT DUP7 AND SWAP2 JUMPDEST DUP3 DUP2 LT ISZERO PUSH2 0x2F2C JUMPI DUP9 DUP7 ADD MLOAD DUP3 SSTORE SWAP5 DUP5 ADD SWAP5 PUSH1 0x1 SWAP1 SWAP2 ADD SWAP1 DUP5 ADD PUSH2 0x2F0D JUMP JUMPDEST POP DUP6 DUP3 LT ISZERO PUSH2 0x2F4A JUMPI DUP8 DUP6 ADD MLOAD PUSH1 0x0 NOT PUSH1 0x3 DUP9 SWAP1 SHL PUSH1 0xF8 AND SHR NOT AND DUP2 SSTORE JUMPDEST POP POP POP POP POP PUSH1 0x1 SWAP1 DUP2 SHL ADD SWAP1 SSTORE POP JUMP JUMPDEST PUSH1 0x20 DUP2 MSTORE PUSH1 0x0 PUSH2 0x270E PUSH1 0x20 DUP4 ADD DUP5 PUSH2 0x29F2 JUMP JUMPDEST PUSH1 0x0 DUP1 DUP4 SLOAD PUSH2 0x2F7B DUP2 PUSH2 0x2E12 JUMP JUMPDEST PUSH1 0x1 DUP3 DUP2 AND DUP1 ISZERO PUSH2 0x2F93 JUMPI PUSH1 0x1 DUP2 EQ PUSH2 0x2FA8 JUMPI PUSH2 0x2FD7 JUMP JUMPDEST PUSH1 0xFF NOT DUP5 AND DUP8 MSTORE DUP3 ISZERO ISZERO DUP4 MUL DUP8 ADD SWAP5 POP PUSH2 0x2FD7 JUMP JUMPDEST DUP8 PUSH1 0x0 MSTORE PUSH1 0x20 DUP1 PUSH1 0x0 KECCAK256 PUSH1 0x0 JUMPDEST DUP6 DUP2 LT ISZERO PUSH2 0x2FCE JUMPI DUP2 SLOAD DUP11 DUP3 ADD MSTORE SWAP1 DUP5 ADD SWAP1 DUP3 ADD PUSH2 0x2FB5 JUMP JUMPDEST POP POP POP DUP3 DUP8 ADD SWAP5 POP JUMPDEST POP SWAP3 SWAP7 SWAP6 POP POP POP POP POP POP JUMP JUMPDEST PUSH1 0x40 DUP2 MSTORE PUSH1 0x0 PUSH2 0x2FF6 PUSH1 0x40 DUP4 ADD DUP6 PUSH2 0x29F2 JUMP JUMPDEST SWAP1 POP PUSH1 0xFF DUP4 AND PUSH1 0x20 DUP4 ADD MSTORE SWAP4 SWAP3 POP POP POP JUMP JUMPDEST PUSH4 0x4E487B71 PUSH1 0xE0 SHL PUSH1 0x0 MSTORE PUSH1 0x32 PUSH1 0x4 MSTORE PUSH1 0x24 PUSH1 0x0 REVERT JUMPDEST PUSH4 0x4E487B71 PUSH1 0xE0 SHL PUSH1 0x0 MSTORE PUSH1 0x11 PUSH1 0x4 MSTORE PUSH1 0x24 PUSH1 0x0 REVERT JUMPDEST PUSH1 0x0 PUSH1 0x1 DUP3 ADD PUSH2 0x3046 JUMPI PUSH2 0x3046 PUSH2 0x301E JUMP JUMPDEST POP PUSH1 0x1 ADD SWAP1 JUMP JUMPDEST PUSH32 0x4173736573732073747564656E7420736B696C6C7320666F7220636F75727365 DUP2 MSTORE PUSH5 0x1024A21D1 PUSH1 0xDD SHL PUSH1 0x20 DUP3 ADD MSTORE PUSH1 0x0 DUP5 MLOAD PUSH2 0x3093 DUP2 PUSH1 0x25 DUP6 ADD PUSH1 0x20 DUP10 ADD PUSH2 0x29CE JUMP JUMPDEST PUSH16 0x171029BA3AB232B73A103230BA309D1 PUSH1 0x85 SHL PUSH1 0x25 SWAP2 DUP5 ADD SWAP2 DUP3 ADD MSTORE DUP5 MLOAD PUSH2 0x30C3 DUP2 PUSH1 0x35 DUP5 ADD PUSH1 0x20 DUP10 ADD PUSH2 0x29CE JUMP JUMPDEST PUSH18 0x171021B7BAB939B29031B7B73A32B73A1D1 PUSH1 0x75 SHL PUSH1 0x35 SWAP3 SWAP1 SWAP2 ADD SWAP2 DUP3 ADD MSTORE DUP4 MLOAD PUSH2 0x30F6 DUP2 PUSH1 0x47 DUP5 ADD PUSH1 0x20 DUP9 ADD PUSH2 0x29CE JUMP JUMPDEST ADD PUSH1 0x47 ADD SWAP6 SWAP5 POP POP POP POP POP JUMP JUMPDEST PUSH4 0x4E487B71 PUSH1 0xE0 SHL PUSH1 0x0 MSTORE PUSH1 0x12 PUSH1 0x4 MSTORE PUSH1 0x24 PUSH1 0x0 REVERT JUMPDEST PUSH1 0x0 DUP3 PUSH2 0x3128 JUMPI PUSH2 0x3128 PUSH2 0x3103 JUMP JUMPDEST POP DIV SWAP1 JUMP JUMPDEST PUSH1 0x0 DUP3 PUSH2 0x313C JUMPI PUSH2 0x313C PUSH2 0x3103 JUMP JUMPDEST POP MOD SWAP1 JUMP JUMPDEST DUP1 DUP3 ADD DUP1 DUP3 GT ISZERO PUSH2 0x530 JUMPI PUSH2 0x530 PUSH2 0x301E JUMP JUMPDEST PUSH1 0x0 DUP2 PUSH2 0x3163 JUMPI PUSH2 0x3163 PUSH2 0x301E JUMP JUMPDEST POP PUSH1 0x0 NOT ADD SWAP1 JUMP JUMPDEST PUSH32 0x416363657373436F6E74726F6C3A206163636F756E7420000000000000000000 DUP2 MSTORE PUSH1 0x0 DUP4 MLOAD PUSH2 0x31A3 DUP2 PUSH1 0x17 DUP6 ADD PUSH1 0x20 DUP9 ADD PUSH2 0x29CE JUMP JUMPDEST PUSH17 0x1034B99036B4B9B9B4B733903937B6329 PUSH1 0x7D SHL PUSH1 0x17 SWAP2 DUP5 ADD SWAP2 DUP3 ADD MSTORE DUP4 MLOAD PUSH2 0x31D4 DUP2 PUSH1 0x28 DUP5 ADD PUSH1 0x20 DUP9 ADD PUSH2 0x29CE JUMP JUMPDEST ADD PUSH1 0x28 ADD SWAP5 SWAP4 POP POP POP POP JUMP JUMPDEST DUP1 DUP3 MUL DUP2 ISZERO DUP3 DUP3 DIV DUP5 EQ OR PUSH2 0x530 JUMPI PUSH2 0x530 PUSH2 0x301E JUMP INVALID SELFBALANCE PUSH16 0x6F64206D61746368206261736564206F PUSH15 0x20746563686E6963616C20736B696C PUSH13 0x7320616E642065787065726965 PUSH15 0x6365A264697066735822122062900B DUP9 0xB7 0xCA CODESIZE 0xC6 BLOCKHASH 0xAC 0xDF SHL 0x2A 0xE7 DUP15 ADDMOD 0xD7 0xA5 CODECOPY SDIV 0xD0 0xC0 DUP2 0xD PUSH24 0x84696533A5B0A764736F6C63430008130033000000000000 "},"methodIdentifiers":{"AI_PROCESSOR_ROLE()":"93032ba5","DEFAULT_ADMIN_ROLE()":"a217fddf","ORACLE_OPERATOR_ROLE()":"11d11a5b","aiRequests(bytes32)":"33ef5174","assessmentFee()":"52c3b282","fulfillAIRequest(bytes32,string,uint8)":"123e8fa8","getJobMatches(uint256)":"8a236b69","getRoleAdmin(bytes32)":"248a9ca3","getSkillAssessment(address,uint256)":"6f979de0","getStudentAssessments(address)":"9868bca4","grantRole(bytes32,address)":"2f2ff15d","hasAssessment(address,uint256)":"cfc0ef1b","hasRole(bytes32,address)":"91d14854","jobMatches(uint256,uint256)":"d72354bf","matchingFee()":"efa105ef","renounceRole(bytes32,address)":"36568abe","requestCounter()":"973a814e","requestJobMatching(uint256,string,string)":"10a2a3f6","requestSkillAssessment(uint256,string,string)":"793af51f","revokeRole(bytes32,address)":"d547741f","studentAssessments(address,uint256)":"f1b757f6","supportsInterface(bytes4)":"01ffc9a7","updateFees(uint256,uint256)":"6db79437","withdrawFees()":"476343ee"}}}}}