{
  "_format": "hh-sol-artifact-1",
  "contractName": "SimpleJobMarketplace",
  "sourceName": "contracts/simple/SimpleJobMarketplace.sol",
  "abi": [
    {
      "inputs": [
        {
          "internalType": "address",
          "name": "_eduToken",
          "type": "address"
        }
      ],
      "stateMutability": "nonpayable",
      "type": "constructor"
    },
    {
      "anonymous": false,
      "inputs": [
        {
          "indexed": true,
          "internalType": "uint256",
          "name": "jobId",
          "type": "uint256"
        },
        {
          "indexed": true,
          "internalType": "address",
          "name": "freelancer",
          "type": "address"
        },
        {
          "indexed": false,
          "internalType": "uint256",
          "name": "proposedBudget",
          "type": "uint256"
        }
      ],
      "name": "ApplicationSubmitted",
      "type": "event"
    },
    {
      "anonymous": false,
      "inputs": [
        {
          "indexed": true,
          "internalType": "uint256",
          "name": "jobId",
          "type": "uint256"
        },
        {
          "indexed": true,
          "internalType": "address",
          "name": "freelancer",
          "type": "address"
        }
      ],
      "name": "JobAssigned",
      "type": "event"
    },
    {
      "anonymous": false,
      "inputs": [
        {
          "indexed": true,
          "internalType": "uint256",
          "name": "jobId",
          "type": "uint256"
        }
      ],
      "name": "JobCompleted",
      "type": "event"
    },
    {
      "anonymous": false,
      "inputs": [
        {
          "indexed": true,
          "internalType": "uint256",
          "name": "jobId",
          "type": "uint256"
        },
        {
          "indexed": true,
          "internalType": "address",
          "name": "employer",
          "type": "address"
        },
        {
          "indexed": false,
          "internalType": "string",
          "name": "title",
          "type": "string"
        },
        {
          "indexed": false,
          "internalType": "uint256",
          "name": "budget",
          "type": "uint256"
        }
      ],
      "name": "JobPosted",
      "type": "event"
    },
    {
      "anonymous": false,
      "inputs": [
        {
          "indexed": true,
          "internalType": "bytes32",
          "name": "role",
          "type": "bytes32"
        },
        {
          "indexed": true,
          "internalType": "bytes32",
          "name": "previousAdminRole",
          "type": "bytes32"
        },
        {
          "indexed": true,
          "internalType": "bytes32",
          "name": "newAdminRole",
          "type": "bytes32"
        }
      ],
      "name": "RoleAdminChanged",
      "type": "event"
    },
    {
      "anonymous": false,
      "inputs": [
        {
          "indexed": true,
          "internalType": "bytes32",
          "name": "role",
          "type": "bytes32"
        },
        {
          "indexed": true,
          "internalType": "address",
          "name": "account",
          "type": "address"
        },
        {
          "indexed": true,
          "internalType": "address",
          "name": "sender",
          "type": "address"
        }
      ],
      "name": "RoleGranted",
      "type": "event"
    },
    {
      "anonymous": false,
      "inputs": [
        {
          "indexed": true,
          "internalType": "bytes32",
          "name": "role",
          "type": "bytes32"
        },
        {
          "indexed": true,
          "internalType": "address",
          "name": "account",
          "type": "address"
        },
        {
          "indexed": true,
          "internalType": "address",
          "name": "sender",
          "type": "address"
        }
      ],
      "name": "RoleRevoked",
      "type": "event"
    },
    {
      "inputs": [],
      "name": "DEFAULT_ADMIN_ROLE",
      "outputs": [
        {
          "internalType": "bytes32",
          "name": "",
          "type": "bytes32"
        }
      ],
      "stateMutability": "view",
      "type": "function"
    },
    {
      "inputs": [],
      "name": "EMPLOYER_ROLE",
      "outputs": [
        {
          "internalType": "bytes32",
          "name": "",
          "type": "bytes32"
        }
      ],
      "stateMutability": "view",
      "type": "function"
    },
    {
      "inputs": [
        {
          "internalType": "uint256",
          "name": "jobId",
          "type": "uint256"
        },
        {
          "internalType": "string",
          "name": "proposal",
          "type": "string"
        },
        {
          "internalType": "uint256",
          "name": "proposedBudget",
          "type": "uint256"
        }
      ],
      "name": "applyForJob",
      "outputs": [],
      "stateMutability": "nonpayable",
      "type": "function"
    },
    {
      "inputs": [
        {
          "internalType": "uint256",
          "name": "jobId",
          "type": "uint256"
        },
        {
          "internalType": "address",
          "name": "freelancer",
          "type": "address"
        }
      ],
      "name": "assignJob",
      "outputs": [],
      "stateMutability": "nonpayable",
      "type": "function"
    },
    {
      "inputs": [
        {
          "internalType": "uint256",
          "name": "jobId",
          "type": "uint256"
        }
      ],
      "name": "completeJob",
      "outputs": [],
      "stateMutability": "nonpayable",
      "type": "function"
    },
    {
      "inputs": [],
      "name": "eduToken",
      "outputs": [
        {
          "internalType": "contract IERC20Simple",
          "name": "",
          "type": "address"
        }
      ],
      "stateMutability": "view",
      "type": "function"
    },
    {
      "inputs": [],
      "name": "getActiveJobs",
      "outputs": [
        {
          "internalType": "uint256[]",
          "name": "",
          "type": "uint256[]"
        }
      ],
      "stateMutability": "view",
      "type": "function"
    },
    {
      "inputs": [
        {
          "internalType": "uint256",
          "name": "jobId",
          "type": "uint256"
        }
      ],
      "name": "getJob",
      "outputs": [
        {
          "components": [
            {
              "internalType": "uint256",
              "name": "jobId",
              "type": "uint256"
            },
            {
              "internalType": "address",
              "name": "employer",
              "type": "address"
            },
            {
              "internalType": "string",
              "name": "title",
              "type": "string"
            },
            {
              "internalType": "string",
              "name": "description",
              "type": "string"
            },
            {
              "internalType": "uint256",
              "name": "budget",
              "type": "uint256"
            },
            {
              "internalType": "uint256",
              "name": "deadline",
              "type": "uint256"
            },
            {
              "internalType": "enum SimpleJobMarketplace.JobStatus",
              "name": "status",
              "type": "uint8"
            },
            {
              "internalType": "address",
              "name": "assignedFreelancer",
              "type": "address"
            },
            {
              "internalType": "string[]",
              "name": "requiredSkills",
              "type": "string[]"
            },
            {
              "internalType": "uint256",
              "name": "createdAt",
              "type": "uint256"
            }
          ],
          "internalType": "struct SimpleJobMarketplace.Job",
          "name": "",
          "type": "tuple"
        }
      ],
      "stateMutability": "view",
      "type": "function"
    },
    {
      "inputs": [
        {
          "internalType": "uint256",
          "name": "jobId",
          "type": "uint256"
        }
      ],
      "name": "getJobApplications",
      "outputs": [
        {
          "components": [
            {
              "internalType": "address",
              "name": "freelancer",
              "type": "address"
            },
            {
              "internalType": "string",
              "name": "proposal",
              "type": "string"
            },
            {
              "internalType": "uint256",
              "name": "proposedBudget",
              "type": "uint256"
            },
            {
              "internalType": "uint256",
              "name": "appliedAt",
              "type": "uint256"
            },
            {
              "internalType": "bool",
              "name": "isAccepted",
              "type": "bool"
            }
          ],
          "internalType": "struct SimpleJobMarketplace.Application[]",
          "name": "",
          "type": "tuple[]"
        }
      ],
      "stateMutability": "view",
      "type": "function"
    },
    {
      "inputs": [
        {
          "internalType": "bytes32",
          "name": "role",
          "type": "bytes32"
        }
      ],
      "name": "getRoleAdmin",
      "outputs": [
        {
          "internalType": "bytes32",
          "name": "",
          "type": "bytes32"
        }
      ],
      "stateMutability": "view",
      "type": "function"
    },
    {
      "inputs": [
        {
          "internalType": "bytes32",
          "name": "role",
          "type": "bytes32"
        },
        {
          "internalType": "address",
          "name": "account",
          "type": "address"
        }
      ],
      "name": "grantRole",
      "outputs": [],
      "stateMutability": "nonpayable",
      "type": "function"
    },
    {
      "inputs": [
        {
          "internalType": "uint256",
          "name": "",
          "type": "uint256"
        },
        {
          "internalType": "address",
          "name": "",
          "type": "address"
        }
      ],
      "name": "hasApplied",
      "outputs": [
        {
          "internalType": "bool",
          "name": "",
          "type": "bool"
        }
      ],
      "stateMutability": "view",
      "type": "function"
    },
    {
      "inputs": [
        {
          "internalType": "bytes32",
          "name": "role",
          "type": "bytes32"
        },
        {
          "internalType": "address",
          "name": "account",
          "type": "address"
        }
      ],
      "name": "hasRole",
      "outputs": [
        {
          "internalType": "bool",
          "name": "",
          "type": "bool"
        }
      ],
      "stateMutability": "view",
      "type": "function"
    },
    {
      "inputs": [
        {
          "internalType": "uint256",
          "name": "",
          "type": "uint256"
        },
        {
          "internalType": "uint256",
          "name": "",
          "type": "uint256"
        }
      ],
      "name": "jobApplications",
      "outputs": [
        {
          "internalType": "address",
          "name": "freelancer",
          "type": "address"
        },
        {
          "internalType": "string",
          "name": "proposal",
          "type": "string"
        },
        {
          "internalType": "uint256",
          "name": "proposedBudget",
          "type": "uint256"
        },
        {
          "internalType": "uint256",
          "name": "appliedAt",
          "type": "uint256"
        },
        {
          "internalType": "bool",
          "name": "isAccepted",
          "type": "bool"
        }
      ],
      "stateMutability": "view",
      "type": "function"
    },
    {
      "inputs": [
        {
          "internalType": "uint256",
          "name": "",
          "type": "uint256"
        }
      ],
      "name": "jobs",
      "outputs": [
        {
          "internalType": "uint256",
          "name": "jobId",
          "type": "uint256"
        },
        {
          "internalType": "address",
          "name": "employer",
          "type": "address"
        },
        {
          "internalType": "string",
          "name": "title",
          "type": "string"
        },
        {
          "internalType": "string",
          "name": "description",
          "type": "string"
        },
        {
          "internalType": "uint256",
          "name": "budget",
          "type": "uint256"
        },
        {
          "internalType": "uint256",
          "name": "deadline",
          "type": "uint256"
        },
        {
          "internalType": "enum SimpleJobMarketplace.JobStatus",
          "name": "status",
          "type": "uint8"
        },
        {
          "internalType": "address",
          "name": "assignedFreelancer",
          "type": "address"
        },
        {
          "internalType": "uint256",
          "name": "createdAt",
          "type": "uint256"
        }
      ],
      "stateMutability": "view",
      "type": "function"
    },
    {
      "inputs": [
        {
          "internalType": "string",
          "name": "title",
          "type": "string"
        },
        {
          "internalType": "string",
          "name": "description",
          "type": "string"
        },
        {
          "internalType": "uint256",
          "name": "budget",
          "type": "uint256"
        },
        {
          "internalType": "uint256",
          "name": "deadline",
          "type": "uint256"
        },
        {
          "internalType": "string[]",
          "name": "requiredSkills",
          "type": "string[]"
        }
      ],
      "name": "postJob",
      "outputs": [
        {
          "internalType": "uint256",
          "name": "",
          "type": "uint256"
        }
      ],
      "stateMutability": "nonpayable",
      "type": "function"
    },
    {
      "inputs": [
        {
          "internalType": "bytes32",
          "name": "role",
          "type": "bytes32"
        },
        {
          "internalType": "address",
          "name": "account",
          "type": "address"
        }
      ],
      "name": "renounceRole",
      "outputs": [],
      "stateMutability": "nonpayable",
      "type": "function"
    },
    {
      "inputs": [
        {
          "internalType": "bytes32",
          "name": "role",
          "type": "bytes32"
        },
        {
          "internalType": "address",
          "name": "account",
          "type": "address"
        }
      ],
      "name": "revokeRole",
      "outputs": [],
      "stateMutability": "nonpayable",
      "type": "function"
    },
    {
      "inputs": [
        {
          "internalType": "bytes4",
          "name": "interfaceId",
          "type": "bytes4"
        }
      ],
      "name": "supportsInterface",
      "outputs": [
        {
          "internalType": "bool",
          "name": "",
          "type": "bool"
        }
      ],
      "stateMutability": "view",
      "type": "function"
    }
  ],
  "bytecode": "0x60806040523480156200001157600080fd5b506040516200250a3803806200250a83398101604081905262000034916200010c565b60018055620000456000336200006b565b600380546001600160a01b0319166001600160a01b03929092169190911790556200013e565b6000828152602081815260408083206001600160a01b038516845290915290205460ff1662000108576000828152602081815260408083206001600160a01b03851684529091529020805460ff19166001179055620000c73390565b6001600160a01b0316816001600160a01b0316837f2f8788117e7eff1d82e926ec794901d17c78024a50270940304540a733656f0d60405160405180910390a45b5050565b6000602082840312156200011f57600080fd5b81516001600160a01b03811681146200013757600080fd5b9392505050565b6123bc806200014e6000396000f3fe608060405234801561001057600080fd5b50600436106101215760003560e01c80638d878889116100ad578063bf22c45711610071578063bf22c457146102c5578063d1a62838146102e5578063d547741f146102f8578063ead39a111461030b578063f3a4735a1461032f57600080fd5b80638d8788891461023e57806391d1485414610269578063a1c0d32f1461027c578063a217fddf1461028f578063a39bf5441461029757600080fd5b80632f2ff15d116100f45780632f2ff15d146101ce57806336568abe146101e357806337597cb5146101f65780636ebf80411461020b578063747143b91461021e57600080fd5b806301ffc9a714610126578063180aedf31461014e5780632426bb3814610176578063248a9ca3146101ab575b600080fd5b610139610134366004611abf565b610342565b60405190151581526020015b60405180910390f35b61016161015c366004611ae9565b610379565b60405161014599989796959493929190611b8a565b61019d7ffc7c36207174f786648d2e624616a4b40e15fd7f0268b4e36af5057f0c43c83581565b604051908152602001610145565b61019d6101b9366004611ae9565b60009081526020819052604090206001015490565b6101e16101dc366004611c20565b6104e9565b005b6101e16101f1366004611c20565b610513565b6101fe610596565b6040516101459190611c4c565b61019d610219366004611d47565b6106b9565b61023161022c366004611ae9565b6109d7565b6040516101459190611e65565b600354610251906001600160a01b031681565b6040516001600160a01b039091168152602001610145565b610139610277366004611c20565b610b1a565b6101e161028a366004611ae9565b610b43565b61019d600081565b6101396102a5366004611c20565b600660209081526000928352604080842090915290825290205460ff1681565b6102d86102d3366004611ae9565b610d4d565b6040516101459190611f5c565b6101e16102f3366004612037565b61104c565b6101e1610306366004611c20565b6112da565b61031e610319366004612087565b6112ff565b6040516101459594939291906120a9565b6101e161033d366004611c20565b6113e6565b60006001600160e01b03198216637965db0b60e01b148061037357506301ffc9a760e01b6001600160e01b03198316145b92915050565b60046020526000908152604090208054600182015460028301805492936001600160a01b03909216926103ab906120ec565b80601f01602080910402602001604051908101604052809291908181526020018280546103d7906120ec565b80156104245780601f106103f957610100808354040283529160200191610424565b820191906000526020600020905b81548152906001019060200180831161040757829003601f168201915b505050505090806003018054610439906120ec565b80601f0160208091040260200160405190810160405280929190818152602001828054610465906120ec565b80156104b25780601f10610487576101008083540402835291602001916104b2565b820191906000526020600020905b81548152906001019060200180831161049557829003601f168201915b505050506004830154600584015460068501546008909501549394919390925060ff82169161010090046001600160a01b03169089565b60008281526020819052604090206001015461050481611632565b61050e838361163c565b505050565b6001600160a01b03811633146105885760405162461bcd60e51b815260206004820152602f60248201527f416363657373436f6e74726f6c3a2063616e206f6e6c792072656e6f756e636560448201526e103937b632b9903337b91039b2b63360891b60648201526084015b60405180910390fd5b61059282826116c0565b5050565b6060600060015b60025481116105f15760008181526004602052604081206006015460ff1660038111156105cc576105cc611b52565b036105df57816105db8161213c565b9250505b806105e98161213c565b91505061059d565b5060008167ffffffffffffffff81111561060d5761060d611c90565b604051908082528060200260200182016040528015610636578160200160208202803683370190505b509050600060015b60025481116106b05760008181526004602052604081206006015460ff16600381111561066d5761066d611b52565b0361069e578083838151811061068557610685612155565b60209081029190910101528161069a8161213c565b9250505b806106a88161213c565b91505061063e565b50909392505050565b600042831161070a5760405162461bcd60e51b815260206004820152601e60248201527f446561646c696e65206d75737420626520696e20746865206675747572650000604482015260640161057f565b6000841161075a5760405162461bcd60e51b815260206004820152601d60248201527f427564676574206d7573742062652067726561746572207468616e2030000000604482015260640161057f565b610768600280546001019055565b600061077360025490565b9050604051806101400160405280828152602001336001600160a01b03168152602001888152602001878152602001868152602001858152602001600060038111156107c1576107c1611b52565b815260006020808301829052604080840188905242606090940193909352848252600481529082902083518155908301516001820180546001600160a01b0319166001600160a01b0390921691909117905590820151600282019061082690826121b9565b506060820151600382019061083b90826121b9565b506080820151600482015560a0820151600582015560c082015160068201805460ff1916600183600381111561087357610873611b52565b021790555060e0820151600682018054610100600160a81b0319166101006001600160a01b03909316830217905582015180516108ba91600784019160209091019061198c565b5061012091909101516008909101556003546040516323b872dd60e01b8152336004820152306024820152604481018790526001600160a01b03909116906323b872dd906064016020604051808303816000875af1158015610920573d6000803e3d6000fd5b505050506040513d601f19601f820116820180604052508101906109449190612279565b6109895760405162461bcd60e51b8152602060048201526016602482015275109d5919d95d081d1c985b9cd9995c8819985a5b195960521b604482015260640161057f565b336001600160a01b0316817fd347156c0e050f531434f3eac5fc2137040ab077ca656f465275ebe566aaf11589886040516109c592919061229b565b60405180910390a39695505050505050565b606060056000838152602001908152602001600020805480602002602001604051908101604052809291908181526020016000905b82821015610b0f5760008481526020908190206040805160a081019091526005850290910180546001600160a01b031682526001810180549293919291840191610a55906120ec565b80601f0160208091040260200160405190810160405280929190818152602001828054610a81906120ec565b8015610ace5780601f10610aa357610100808354040283529160200191610ace565b820191906000526020600020905b815481529060010190602001808311610ab157829003601f168201915b505050918352505060028201546020808301919091526003830154604083015260049092015460ff1615156060909101529082526001929092019101610a0c565b505050509050919050565b6000918252602082815260408084206001600160a01b0393909316845291905290205460ff1690565b610b4b611725565b6000818152600460205260409020600101546001600160a01b03163314610bb45760405162461bcd60e51b815260206004820152601a60248201527f4f6e6c7920656d706c6f7965722063616e20636f6d706c657465000000000000604482015260640161057f565b600160008281526004602052604090206006015460ff166003811115610bdc57610bdc611b52565b14610c225760405162461bcd60e51b81526020600482015260166024820152754a6f62206973206e6f7420696e2070726f677265737360501b604482015260640161057f565b60008181526004602081905260409182902060068101805460ff19166002179081905590820154600354935163a9059cbb60e01b81526001600160a01b036101009093048316938101849052602481018290529293909291169063a9059cbb906044016020604051808303816000875af1158015610ca4573d6000803e3d6000fd5b505050506040513d601f19601f82011682018060405250810190610cc89190612279565b610d145760405162461bcd60e51b815260206004820152601760248201527f5061796d656e74207472616e73666572206661696c6564000000000000000000604482015260640161057f565b60405183907f02244c8529cb95e213ee542e76e7776342b3dabd10203d01472bbf4441be892990600090a25050610d4a60018055565b50565b610d556119e2565b6000828152600460205260408120549003610da75760405162461bcd60e51b8152602060048201526012602482015271129bd888191bd95cc81b9bdd08195e1a5cdd60721b604482015260640161057f565b6000828152600460209081526040918290208251610140810184528154815260018201546001600160a01b0316928101929092526002810180549293919291840191610df2906120ec565b80601f0160208091040260200160405190810160405280929190818152602001828054610e1e906120ec565b8015610e6b5780601f10610e4057610100808354040283529160200191610e6b565b820191906000526020600020905b815481529060010190602001808311610e4e57829003601f168201915b50505050508152602001600382018054610e84906120ec565b80601f0160208091040260200160405190810160405280929190818152602001828054610eb0906120ec565b8015610efd5780601f10610ed257610100808354040283529160200191610efd565b820191906000526020600020905b815481529060010190602001808311610ee057829003601f168201915b50505091835250506004820154602082015260058201546040820152600682015460609091019060ff166003811115610f3857610f38611b52565b6003811115610f4957610f49611b52565b8152600682015461010090046001600160a01b0316602080830191909152600783018054604080518285028101850182528281529401939260009084015b82821015611033578382906000526020600020018054610fa6906120ec565b80601f0160208091040260200160405190810160405280929190818152602001828054610fd2906120ec565b801561101f5780601f10610ff45761010080835404028352916020019161101f565b820191906000526020600020905b81548152906001019060200180831161100257829003601f168201915b505050505081526020019060010190610f87565b5050505081526020016008820154815250509050919050565b600083815260046020526040812054900361109e5760405162461bcd60e51b8152602060048201526012602482015271129bd888191bd95cc81b9bdd08195e1a5cdd60721b604482015260640161057f565b60008381526004602052604081206006015460ff1660038111156110c4576110c4611b52565b146111035760405162461bcd60e51b815260206004820152600f60248201526e2537b11034b9903737ba1037b832b760891b604482015260640161057f565b600083815260066020908152604080832033845290915290205460ff161561115f5760405162461bcd60e51b815260206004820152600f60248201526e105b1c9958591e48185c1c1b1a5959608a1b604482015260640161057f565b600083815260046020819052604090912001548111156111cc5760405162461bcd60e51b815260206004820152602260248201527f50726f706f736564206275646765742065786365656473206a6f622062756467604482015261195d60f21b606482015260840161057f565b6000838152600560208181526040808420815160a081018352338152808401888152928101879052426060820152608081018690528154600180820184559287529390952085519390940290930180546001600160a01b0319166001600160a01b0390931692909217825551909182019061124790826121b9565b506040828101516002830155606083015160038301556080909201516004909101805491151560ff19928316179055600085815260066020908152838220338084529152908390208054909216600117909155905184907fdb0b522b8234f730c26780fc877f0d063689be4bc7d6aacb12b40df8440eb043906112cd9085815260200190565b60405180910390a3505050565b6000828152602081905260409020600101546112f581611632565b61050e83836116c0565b6005602052816000526040600020818154811061131b57600080fd5b6000918252602090912060059091020180546001820180546001600160a01b03909216945091925061134c906120ec565b80601f0160208091040260200160405190810160405280929190818152602001828054611378906120ec565b80156113c55780601f1061139a576101008083540402835291602001916113c5565b820191906000526020600020905b8154815290600101906020018083116113a857829003601f168201915b50505050600283015460038401546004909401549293909290915060ff1685565b6000828152600460205260409020600101546001600160a01b0316331461144f5760405162461bcd60e51b815260206004820152601860248201527f4f6e6c7920656d706c6f7965722063616e2061737369676e0000000000000000604482015260640161057f565b60008281526004602052604081206006015460ff16600381111561147557611475611b52565b146114b45760405162461bcd60e51b815260206004820152600f60248201526e2537b11034b9903737ba1037b832b760891b604482015260640161057f565b60008281526006602090815260408083206001600160a01b038516845290915290205460ff166115265760405162461bcd60e51b815260206004820152601a60248201527f467265656c616e63657220686173206e6f74206170706c696564000000000000604482015260640161057f565b600082815260046020908152604080832060060180546001600160a01b038616610100026001600160a81b031990911617600117905560059091528120905b81548110156115f657826001600160a01b031682828154811061158a5761158a612155565b60009182526020909120600590910201546001600160a01b0316036115e45760018282815481106115bd576115bd612155565b60009182526020909120600590910201600401805460ff19169115159190911790556115f6565b806115ee8161213c565b915050611565565b506040516001600160a01b0383169084907f3738a681a43a0b6a554742a08bae57e0215e8a774217dc2e7de6c9411b6d0ddc90600090a3505050565b610d4a813361177e565b6116468282610b1a565b610592576000828152602081815260408083206001600160a01b03851684529091529020805460ff1916600117905561167c3390565b6001600160a01b0316816001600160a01b0316837f2f8788117e7eff1d82e926ec794901d17c78024a50270940304540a733656f0d60405160405180910390a45050565b6116ca8282610b1a565b15610592576000828152602081815260408083206001600160a01b0385168085529252808320805460ff1916905551339285917ff6391f5c32d9c69d2a47ea670b442974b53935d1edc7fd64eb21e047a839171b9190a45050565b6002600154036117775760405162461bcd60e51b815260206004820152601f60248201527f5265656e7472616e637947756172643a207265656e7472616e742063616c6c00604482015260640161057f565b6002600155565b6117888282610b1a565b61059257611795816117d7565b6117a08360206117e9565b6040516020016117b19291906122bd565b60408051601f198184030181529082905262461bcd60e51b825261057f91600401612332565b60606103736001600160a01b03831660145b606060006117f8836002612345565b61180390600261235c565b67ffffffffffffffff81111561181b5761181b611c90565b6040519080825280601f01601f191660200182016040528015611845576020820181803683370190505b509050600360fc1b8160008151811061186057611860612155565b60200101906001600160f81b031916908160001a905350600f60fb1b8160018151811061188f5761188f612155565b60200101906001600160f81b031916908160001a90535060006118b3846002612345565b6118be90600161235c565b90505b6001811115611936576f181899199a1a9b1b9c1cb0b131b232b360811b85600f16601081106118f2576118f2612155565b1a60f81b82828151811061190857611908612155565b60200101906001600160f81b031916908160001a90535060049490941c9361192f8161236f565b90506118c1565b5083156119855760405162461bcd60e51b815260206004820181905260248201527f537472696e67733a20686578206c656e67746820696e73756666696369656e74604482015260640161057f565b9392505050565b8280548282559060005260206000209081019282156119d2579160200282015b828111156119d257825182906119c290826121b9565b50916020019190600101906119ac565b506119de929150611a58565b5090565b6040518061014001604052806000815260200160006001600160a01b031681526020016060815260200160608152602001600081526020016000815260200160006003811115611a3457611a34611b52565b815260200160006001600160a01b0316815260200160608152602001600081525090565b808211156119de576000611a6c8282611a75565b50600101611a58565b508054611a81906120ec565b6000825580601f10611a91575050565b601f016020900490600052602060002090810190610d4a91905b808211156119de5760008155600101611aab565b600060208284031215611ad157600080fd5b81356001600160e01b03198116811461198557600080fd5b600060208284031215611afb57600080fd5b5035919050565b60005b83811015611b1d578181015183820152602001611b05565b50506000910152565b60008151808452611b3e816020860160208601611b02565b601f01601f19169290920160200192915050565b634e487b7160e01b600052602160045260246000fd5b60048110611b8657634e487b7160e01b600052602160045260246000fd5b9052565b8981526001600160a01b03898116602083015261012060408301819052600091611bb68483018c611b26565b91508382036060850152611bca828b611b26565b92508860808501528760a0850152611be560c0850188611b68565b80861660e08501525050826101008301529a9950505050505050505050565b80356001600160a01b0381168114611c1b57600080fd5b919050565b60008060408385031215611c3357600080fd5b82359150611c4360208401611c04565b90509250929050565b6020808252825182820181905260009190848201906040850190845b81811015611c8457835183529284019291840191600101611c68565b50909695505050505050565b634e487b7160e01b600052604160045260246000fd5b604051601f8201601f1916810167ffffffffffffffff81118282101715611ccf57611ccf611c90565b604052919050565b600082601f830112611ce857600080fd5b813567ffffffffffffffff811115611d0257611d02611c90565b611d15601f8201601f1916602001611ca6565b818152846020838601011115611d2a57600080fd5b816020850160208301376000918101602001919091529392505050565b600080600080600060a08688031215611d5f57600080fd5b853567ffffffffffffffff80821115611d7757600080fd5b611d8389838a01611cd7565b9650602091508188013581811115611d9a57600080fd5b611da68a828b01611cd7565b9650506040880135945060608801359350608088013581811115611dc957600080fd5b8801601f81018a13611dda57600080fd5b803582811115611dec57611dec611c90565b8060051b611dfb858201611ca6565b918252828101850191858101908d841115611e1557600080fd5b86850192505b83831015611e5157823586811115611e335760008081fd5b611e418f8983890101611cd7565b8352509186019190860190611e1b565b809750505050505050509295509295909350565b60006020808301818452808551808352604092508286019150828160051b87010184880160005b83811015611ef957888303603f19018552815180516001600160a01b031684528781015160a089860181905290611ec582870182611b26565b838a0151878b0152606080850151908801526080938401511515939096019290925250509386019390860190600101611e8c565b509098975050505050505050565b600081518084526020808501808196508360051b8101915082860160005b85811015611f4f578284038952611f3d848351611b26565b98850198935090840190600101611f25565b5091979650505050505050565b602081528151602082015260006020830151611f8360408401826001600160a01b03169052565b506040830151610140806060850152611fa0610160850183611b26565b91506060850151601f1980868503016080870152611fbe8483611b26565b9350608087015160a087015260a087015160c087015260c08701519150611fe860e0870183611b68565b60e08701519150610100612006818801846001600160a01b03169052565b808801519250506101208187860301818801526120238584611f07565b970151959092019490945250929392505050565b60008060006060848603121561204c57600080fd5b83359250602084013567ffffffffffffffff81111561206a57600080fd5b61207686828701611cd7565b925050604084013590509250925092565b6000806040838503121561209a57600080fd5b50508035926020909101359150565b6001600160a01b038616815260a0602082018190526000906120cd90830187611b26565b6040830195909552506060810192909252151560809091015292915050565b600181811c9082168061210057607f821691505b60208210810361212057634e487b7160e01b600052602260045260246000fd5b50919050565b634e487b7160e01b600052601160045260246000fd5b60006001820161214e5761214e612126565b5060010190565b634e487b7160e01b600052603260045260246000fd5b601f82111561050e57600081815260208120601f850160051c810160208610156121925750805b601f850160051c820191505b818110156121b15782815560010161219e565b505050505050565b815167ffffffffffffffff8111156121d3576121d3611c90565b6121e7816121e184546120ec565b8461216b565b602080601f83116001811461221c57600084156122045750858301515b600019600386901b1c1916600185901b1785556121b1565b600085815260208120601f198616915b8281101561224b5788860151825594840194600190910190840161222c565b50858210156122695787850151600019600388901b60f8161c191681555b5050505050600190811b01905550565b60006020828403121561228b57600080fd5b8151801515811461198557600080fd5b6040815260006122ae6040830185611b26565b90508260208301529392505050565b7f416363657373436f6e74726f6c3a206163636f756e74200000000000000000008152600083516122f5816017850160208801611b02565b7001034b99036b4b9b9b4b733903937b6329607d1b6017918401918201528351612326816028840160208801611b02565b01602801949350505050565b6020815260006119856020830184611b26565b808202811582820484141761037357610373612126565b8082018082111561037357610373612126565b60008161237e5761237e612126565b50600019019056fea2646970667358221220169e7f95baa4d1eaf58724a28c6d9abdc70488aa3d951dbc4652e3a9b1dd852464736f6c63430008130033",
  "linkReferences": {},
  "deployedLinkReferences": {}
}