{
  "_format": "hh-sol-artifact-1",
  "contractName": "SimpleCourseNFT",
  "sourceName": "contracts/simple/SimpleCourseNFT.sol",
  "abi": [
    {
      "inputs": [],
      "stateMutability": "nonpayable",
      "type": "constructor"
    },
    {
      "anonymous": false,
      "inputs": [
        {
          "indexed": true,
          "internalType": "address",
          "name": "owner",
          "type": "address"
        },
        {
          "indexed": true,
          "internalType": "address",
          "name": "approved",
          "type": "address"
        },
        {
          "indexed": true,
          "internalType": "uint256",
          "name": "tokenId",
          "type": "uint256"
        }
      ],
      "name": "Approval",
      "type": "event"
    },
    {
      "anonymous": false,
      "inputs": [
        {
          "indexed": true,
          "internalType": "address",
          "name": "owner",
          "type": "address"
        },
        {
          "indexed": true,
          "internalType": "address",
          "name": "operator",
          "type": "address"
        },
        {
          "indexed": false,
          "internalType": "bool",
          "name": "approved",
          "type": "bool"
        }
      ],
      "name": "ApprovalForAll",
      "type": "event"
    },
    {
      "anonymous": false,
      "inputs": [
        {
          "indexed": true,
          "internalType": "uint256",
          "name": "courseId",
          "type": "uint256"
        },
        {
          "indexed": true,
          "internalType": "address",
          "name": "instructor",
          "type": "address"
        },
        {
          "indexed": false,
          "internalType": "string",
          "name": "title",
          "type": "string"
        }
      ],
      "name": "CourseCreated",
      "type": "event"
    },
    {
      "anonymous": false,
      "inputs": [
        {
          "indexed": true,
          "internalType": "bytes32",
          "name": "role",
          "type": "bytes32"
        },
        {
          "indexed": true,
          "internalType": "bytes32",
          "name": "previousAdminRole",
          "type": "bytes32"
        },
        {
          "indexed": true,
          "internalType": "bytes32",
          "name": "newAdminRole",
          "type": "bytes32"
        }
      ],
      "name": "RoleAdminChanged",
      "type": "event"
    },
    {
      "anonymous": false,
      "inputs": [
        {
          "indexed": true,
          "internalType": "bytes32",
          "name": "role",
          "type": "bytes32"
        },
        {
          "indexed": true,
          "internalType": "address",
          "name": "account",
          "type": "address"
        },
        {
          "indexed": true,
          "internalType": "address",
          "name": "sender",
          "type": "address"
        }
      ],
      "name": "RoleGranted",
      "type": "event"
    },
    {
      "anonymous": false,
      "inputs": [
        {
          "indexed": true,
          "internalType": "bytes32",
          "name": "role",
          "type": "bytes32"
        },
        {
          "indexed": true,
          "internalType": "address",
          "name": "account",
          "type": "address"
        },
        {
          "indexed": true,
          "internalType": "address",
          "name": "sender",
          "type": "address"
        }
      ],
      "name": "RoleRevoked",
      "type": "event"
    },
    {
      "anonymous": false,
      "inputs": [
        {
          "indexed": true,
          "internalType": "uint256",
          "name": "courseId",
          "type": "uint256"
        },
        {
          "indexed": true,
          "internalType": "address",
          "name": "student",
          "type": "address"
        }
      ],
      "name": "StudentEnrolled",
      "type": "event"
    },
    {
      "anonymous": false,
      "inputs": [
        {
          "indexed": true,
          "internalType": "address",
          "name": "from",
          "type": "address"
        },
        {
          "indexed": true,
          "internalType": "address",
          "name": "to",
          "type": "address"
        },
        {
          "indexed": true,
          "internalType": "uint256",
          "name": "tokenId",
          "type": "uint256"
        }
      ],
      "name": "Transfer",
      "type": "event"
    },
    {
      "inputs": [],
      "name": "DEFAULT_ADMIN_ROLE",
      "outputs": [
        {
          "internalType": "bytes32",
          "name": "",
          "type": "bytes32"
        }
      ],
      "stateMutability": "view",
      "type": "function"
    },
    {
      "inputs": [],
      "name": "INSTRUCTOR_ROLE",
      "outputs": [
        {
          "internalType": "bytes32",
          "name": "",
          "type": "bytes32"
        }
      ],
      "stateMutability": "view",
      "type": "function"
    },
    {
      "inputs": [
        {
          "internalType": "address",
          "name": "to",
          "type": "address"
        },
        {
          "internalType": "uint256",
          "name": "tokenId",
          "type": "uint256"
        }
      ],
      "name": "approve",
      "outputs": [],
      "stateMutability": "nonpayable",
      "type": "function"
    },
    {
      "inputs": [
        {
          "internalType": "address",
          "name": "owner",
          "type": "address"
        }
      ],
      "name": "balanceOf",
      "outputs": [
        {
          "internalType": "uint256",
          "name": "",
          "type": "uint256"
        }
      ],
      "stateMutability": "view",
      "type": "function"
    },
    {
      "inputs": [
        {
          "internalType": "uint256",
          "name": "",
          "type": "uint256"
        }
      ],
      "name": "courses",
      "outputs": [
        {
          "internalType": "string",
          "name": "title",
          "type": "string"
        },
        {
          "internalType": "string",
          "name": "description",
          "type": "string"
        },
        {
          "internalType": "address",
          "name": "instructor",
          "type": "address"
        },
        {
          "internalType": "uint256",
          "name": "price",
          "type": "uint256"
        },
        {
          "internalType": "uint256",
          "name": "duration",
          "type": "uint256"
        },
        {
          "internalType": "string",
          "name": "ipfsHash",
          "type": "string"
        },
        {
          "internalType": "bool",
          "name": "isActive",
          "type": "bool"
        },
        {
          "internalType": "uint256",
          "name": "enrolledCount",
          "type": "uint256"
        }
      ],
      "stateMutability": "view",
      "type": "function"
    },
    {
      "inputs": [
        {
          "internalType": "string",
          "name": "title",
          "type": "string"
        },
        {
          "internalType": "string",
          "name": "description",
          "type": "string"
        },
        {
          "internalType": "uint256",
          "name": "price",
          "type": "uint256"
        },
        {
          "internalType": "uint256",
          "name": "duration",
          "type": "uint256"
        },
        {
          "internalType": "string",
          "name": "ipfsHash",
          "type": "string"
        }
      ],
      "name": "createCourse",
      "outputs": [
        {
          "internalType": "uint256",
          "name": "",
          "type": "uint256"
        }
      ],
      "stateMutability": "nonpayable",
      "type": "function"
    },
    {
      "inputs": [
        {
          "internalType": "uint256",
          "name": "courseId",
          "type": "uint256"
        }
      ],
      "name": "enrollInCourse",
      "outputs": [],
      "stateMutability": "payable",
      "type": "function"
    },
    {
      "inputs": [
        {
          "internalType": "uint256",
          "name": "",
          "type": "uint256"
        },
        {
          "internalType": "address",
          "name": "",
          "type": "address"
        }
      ],
      "name": "enrollments",
      "outputs": [
        {
          "internalType": "bool",
          "name": "",
          "type": "bool"
        }
      ],
      "stateMutability": "view",
      "type": "function"
    },
    {
      "inputs": [
        {
          "internalType": "uint256",
          "name": "tokenId",
          "type": "uint256"
        }
      ],
      "name": "getApproved",
      "outputs": [
        {
          "internalType": "address",
          "name": "",
          "type": "address"
        }
      ],
      "stateMutability": "view",
      "type": "function"
    },
    {
      "inputs": [
        {
          "internalType": "uint256",
          "name": "courseId",
          "type": "uint256"
        }
      ],
      "name": "getCourse",
      "outputs": [
        {
          "components": [
            {
              "internalType": "string",
              "name": "title",
              "type": "string"
            },
            {
              "internalType": "string",
              "name": "description",
              "type": "string"
            },
            {
              "internalType": "address",
              "name": "instructor",
              "type": "address"
            },
            {
              "internalType": "uint256",
              "name": "price",
              "type": "uint256"
            },
            {
              "internalType": "uint256",
              "name": "duration",
              "type": "uint256"
            },
            {
              "internalType": "string",
              "name": "ipfsHash",
              "type": "string"
            },
            {
              "internalType": "bool",
              "name": "isActive",
              "type": "bool"
            },
            {
              "internalType": "uint256",
              "name": "enrolledCount",
              "type": "uint256"
            }
          ],
          "internalType": "struct SimpleCourseNFT.Course",
          "name": "",
          "type": "tuple"
        }
      ],
      "stateMutability": "view",
      "type": "function"
    },
    {
      "inputs": [
        {
          "internalType": "bytes32",
          "name": "role",
          "type": "bytes32"
        }
      ],
      "name": "getRoleAdmin",
      "outputs": [
        {
          "internalType": "bytes32",
          "name": "",
          "type": "bytes32"
        }
      ],
      "stateMutability": "view",
      "type": "function"
    },
    {
      "inputs": [
        {
          "internalType": "bytes32",
          "name": "role",
          "type": "bytes32"
        },
        {
          "internalType": "address",
          "name": "account",
          "type": "address"
        }
      ],
      "name": "grantRole",
      "outputs": [],
      "stateMutability": "nonpayable",
      "type": "function"
    },
    {
      "inputs": [
        {
          "internalType": "bytes32",
          "name": "role",
          "type": "bytes32"
        },
        {
          "internalType": "address",
          "name": "account",
          "type": "address"
        }
      ],
      "name": "hasRole",
      "outputs": [
        {
          "internalType": "bool",
          "name": "",
          "type": "bool"
        }
      ],
      "stateMutability": "view",
      "type": "function"
    },
    {
      "inputs": [
        {
          "internalType": "address",
          "name": "owner",
          "type": "address"
        },
        {
          "internalType": "address",
          "name": "operator",
          "type": "address"
        }
      ],
      "name": "isApprovedForAll",
      "outputs": [
        {
          "internalType": "bool",
          "name": "",
          "type": "bool"
        }
      ],
      "stateMutability": "view",
      "type": "function"
    },
    {
      "inputs": [
        {
          "internalType": "uint256",
          "name": "courseId",
          "type": "uint256"
        },
        {
          "internalType": "address",
          "name": "student",
          "type": "address"
        }
      ],
      "name": "isEnrolled",
      "outputs": [
        {
          "internalType": "bool",
          "name": "",
          "type": "bool"
        }
      ],
      "stateMutability": "view",
      "type": "function"
    },
    {
      "inputs": [],
      "name": "name",
      "outputs": [
        {
          "internalType": "string",
          "name": "",
          "type": "string"
        }
      ],
      "stateMutability": "view",
      "type": "function"
    },
    {
      "inputs": [
        {
          "internalType": "uint256",
          "name": "tokenId",
          "type": "uint256"
        }
      ],
      "name": "ownerOf",
      "outputs": [
        {
          "internalType": "address",
          "name": "",
          "type": "address"
        }
      ],
      "stateMutability": "view",
      "type": "function"
    },
    {
      "inputs": [
        {
          "internalType": "bytes32",
          "name": "role",
          "type": "bytes32"
        },
        {
          "internalType": "address",
          "name": "account",
          "type": "address"
        }
      ],
      "name": "renounceRole",
      "outputs": [],
      "stateMutability": "nonpayable",
      "type": "function"
    },
    {
      "inputs": [
        {
          "internalType": "bytes32",
          "name": "role",
          "type": "bytes32"
        },
        {
          "internalType": "address",
          "name": "account",
          "type": "address"
        }
      ],
      "name": "revokeRole",
      "outputs": [],
      "stateMutability": "nonpayable",
      "type": "function"
    },
    {
      "inputs": [
        {
          "internalType": "address",
          "name": "from",
          "type": "address"
        },
        {
          "internalType": "address",
          "name": "to",
          "type": "address"
        },
        {
          "internalType": "uint256",
          "name": "tokenId",
          "type": "uint256"
        }
      ],
      "name": "safeTransferFrom",
      "outputs": [],
      "stateMutability": "nonpayable",
      "type": "function"
    },
    {
      "inputs": [
        {
          "internalType": "address",
          "name": "from",
          "type": "address"
        },
        {
          "internalType": "address",
          "name": "to",
          "type": "address"
        },
        {
          "internalType": "uint256",
          "name": "tokenId",
          "type": "uint256"
        },
        {
          "internalType": "bytes",
          "name": "data",
          "type": "bytes"
        }
      ],
      "name": "safeTransferFrom",
      "outputs": [],
      "stateMutability": "nonpayable",
      "type": "function"
    },
    {
      "inputs": [
        {
          "internalType": "address",
          "name": "operator",
          "type": "address"
        },
        {
          "internalType": "bool",
          "name": "approved",
          "type": "bool"
        }
      ],
      "name": "setApprovalForAll",
      "outputs": [],
      "stateMutability": "nonpayable",
      "type": "function"
    },
    {
      "inputs": [
        {
          "internalType": "bytes4",
          "name": "interfaceId",
          "type": "bytes4"
        }
      ],
      "name": "supportsInterface",
      "outputs": [
        {
          "internalType": "bool",
          "name": "",
          "type": "bool"
        }
      ],
      "stateMutability": "view",
      "type": "function"
    },
    {
      "inputs": [],
      "name": "symbol",
      "outputs": [
        {
          "internalType": "string",
          "name": "",
          "type": "string"
        }
      ],
      "stateMutability": "view",
      "type": "function"
    },
    {
      "inputs": [
        {
          "internalType": "uint256",
          "name": "tokenId",
          "type": "uint256"
        }
      ],
      "name": "tokenURI",
      "outputs": [
        {
          "internalType": "string",
          "name": "",
          "type": "string"
        }
      ],
      "stateMutability": "view",
      "type": "function"
    },
    {
      "inputs": [
        {
          "internalType": "address",
          "name": "from",
          "type": "address"
        },
        {
          "internalType": "address",
          "name": "to",
          "type": "address"
        },
        {
          "internalType": "uint256",
          "name": "tokenId",
          "type": "uint256"
        }
      ],
      "name": "transferFrom",
      "outputs": [],
      "stateMutability": "nonpayable",
      "type": "function"
    }
  ],
  "bytecode": "0x60806040523480156200001157600080fd5b5060405180604001604052806011815260200170427261696e536166657320436f7572736560781b81525060405180604001604052806006815260200165434f5552534560d01b81525081600090816200006c919062000209565b5060016200007b828262000209565b506200008d91506000905033620000bf565b620000b97fae4a0595970935aa5495afbbb72e5f1f6ff1062766b4a3028c0c9b7d5cf7e34533620000bf565b620002d5565b60008281526006602090815260408083206001600160a01b038516845290915290205460ff16620001605760008281526006602090815260408083206001600160a01b03851684529091529020805460ff191660011790556200011f3390565b6001600160a01b0316816001600160a01b0316837f2f8788117e7eff1d82e926ec794901d17c78024a50270940304540a733656f0d60405160405180910390a45b5050565b634e487b7160e01b600052604160045260246000fd5b600181811c908216806200018f57607f821691505b602082108103620001b057634e487b7160e01b600052602260045260246000fd5b50919050565b601f8211156200020457600081815260208120601f850160051c81016020861015620001df5750805b601f850160051c820191505b818110156200020057828155600101620001eb565b5050505b505050565b81516001600160401b0381111562000225576200022562000164565b6200023d816200023684546200017a565b84620001b6565b602080601f8311600181146200027557600084156200025c5750858301515b600019600386901b1c1916600185901b17855562000200565b600085815260208120601f198616915b82811015620002a65788860151825594840194600190910190840162000285565b5085821015620002c55787850151600019600388901b60f8161c191681555b5050505050600190811b01905550565b61268880620002e56000396000f3fe6080604052600436106101815760003560e01c80638bcf979c116100d1578063b88d4fde1161008a578063d547741f11610064578063d547741f146104cd578063d8e68d02146104ed578063dfb804031461050d578063e985e9c51461054857600080fd5b8063b88d4fde14610447578063c87b56dd14610467578063c97683151461048757600080fd5b80638bcf979c1461037557806391d14854146103a957806395d89b41146103c957806396f979d2146103de578063a217fddf14610412578063a22cb4651461042757600080fd5b8063248a9ca31161013e57806342842e0e1161011857806342842e0e146103025780635e52da27146103225780636352211e1461033557806370a082311461035557600080fd5b8063248a9ca3146102845780632f2ff15d146102c257806336568abe146102e257600080fd5b806301ffc9a71461018657806306fdde03146101bb578063081812fc146101dd578063095ea7b3146102155780630b91e28d1461023757806323b872dd14610264575b600080fd5b34801561019257600080fd5b506101a66101a1366004611df0565b610591565b60405190151581526020015b60405180910390f35b3480156101c757600080fd5b506101d06105a2565b6040516101b29190611e5d565b3480156101e957600080fd5b506101fd6101f8366004611e70565b610634565b6040516001600160a01b0390911681526020016101b2565b34801561022157600080fd5b50610235610230366004611ea5565b61065b565b005b34801561024357600080fd5b50610257610252366004611e70565b610775565b6040516101b29190611ecf565b34801561027057600080fd5b5061023561027f366004611f84565b610a3e565b34801561029057600080fd5b506102b461029f366004611e70565b60009081526006602052604090206001015490565b6040519081526020016101b2565b3480156102ce57600080fd5b506102356102dd366004611fc0565b610a6f565b3480156102ee57600080fd5b506102356102fd366004611fc0565b610a94565b34801561030e57600080fd5b5061023561031d366004611f84565b610b12565b610235610330366004611e70565b610b2d565b34801561034157600080fd5b506101fd610350366004611e70565b610d51565b34801561036157600080fd5b506102b4610370366004611fec565b610db1565b34801561038157600080fd5b506102b47fae4a0595970935aa5495afbbb72e5f1f6ff1062766b4a3028c0c9b7d5cf7e34581565b3480156103b557600080fd5b506101a66103c4366004611fc0565b610e37565b3480156103d557600080fd5b506101d0610e62565b3480156103ea57600080fd5b506103fe6103f9366004611e70565b610e71565b6040516101b2989796959493929190612007565b34801561041e57600080fd5b506102b4600081565b34801561043357600080fd5b50610235610442366004612078565b61105c565b34801561045357600080fd5b50610235610462366004612140565b611067565b34801561047357600080fd5b506101d0610482366004611e70565b61109f565b34801561049357600080fd5b506101a66104a2366004611fc0565b60009182526009602090815260408084206001600160a01b0393909316845291905290205460ff1690565b3480156104d957600080fd5b506102356104e8366004611fc0565b611113565b3480156104f957600080fd5b506102b46105083660046121dc565b611138565b34801561051957600080fd5b506101a6610528366004611fc0565b600960209081526000928352604080842090915290825290205460ff1681565b34801561055457600080fd5b506101a6610563366004612278565b6001600160a01b03918216600090815260056020908152604080832093909416825291909152205460ff1690565b600061059c826112bc565b92915050565b6060600080546105b1906122a2565b80601f01602080910402602001604051908101604052809291908181526020018280546105dd906122a2565b801561062a5780601f106105ff5761010080835404028352916020019161062a565b820191906000526020600020905b81548152906001019060200180831161060d57829003601f168201915b5050505050905090565b600061063f826112e1565b506000908152600460205260409020546001600160a01b031690565b600061066682610d51565b9050806001600160a01b0316836001600160a01b0316036106d85760405162461bcd60e51b815260206004820152602160248201527f4552433732313a20617070726f76616c20746f2063757272656e74206f776e656044820152603960f91b60648201526084015b60405180910390fd5b336001600160a01b03821614806106f457506106f48133610563565b6107665760405162461bcd60e51b815260206004820152603d60248201527f4552433732313a20617070726f76652063616c6c6572206973206e6f7420746f60448201527f6b656e206f776e6572206f7220617070726f76656420666f7220616c6c00000060648201526084016106cf565b6107708383611343565b505050565b6107c8604051806101000160405280606081526020016060815260200160006001600160a01b03168152602001600081526020016000815260200160608152602001600015158152602001600081525090565b6000828152600260205260409020546001600160a01b03166108245760405162461bcd60e51b815260206004820152601560248201527410dbdd5c9cd948191bd95cc81b9bdd08195e1a5cdd605a1b60448201526064016106cf565b600082815260086020526040908190208151610100810190925280548290829061084d906122a2565b80601f0160208091040260200160405190810160405280929190818152602001828054610879906122a2565b80156108c65780601f1061089b576101008083540402835291602001916108c6565b820191906000526020600020905b8154815290600101906020018083116108a957829003601f168201915b505050505081526020016001820180546108df906122a2565b80601f016020809104026020016040519081016040528092919081815260200182805461090b906122a2565b80156109585780601f1061092d57610100808354040283529160200191610958565b820191906000526020600020905b81548152906001019060200180831161093b57829003601f168201915b505050918352505060028201546001600160a01b03166020820152600382015460408201526004820154606082015260058201805460809092019161099c906122a2565b80601f01602080910402602001604051908101604052809291908181526020018280546109c8906122a2565b8015610a155780601f106109ea57610100808354040283529160200191610a15565b820191906000526020600020905b8154815290600101906020018083116109f857829003601f168201915b5050509183525050600682015460ff161515602082015260079091015460409091015292915050565b610a4833826113b1565b610a645760405162461bcd60e51b81526004016106cf906122dc565b610770838383611430565b600082815260066020526040902060010154610a8a81611594565b610770838361159e565b6001600160a01b0381163314610b045760405162461bcd60e51b815260206004820152602f60248201527f416363657373436f6e74726f6c3a2063616e206f6e6c792072656e6f756e636560448201526e103937b632b9903337b91039b2b63360891b60648201526084016106cf565b610b0e8282611624565b5050565b61077083838360405180602001604052806000815250611067565b6000818152600260205260409020546001600160a01b0316610b895760405162461bcd60e51b815260206004820152601560248201527410dbdd5c9cd948191bd95cc81b9bdd08195e1a5cdd605a1b60448201526064016106cf565b60008181526008602052604090206006015460ff16610be15760405162461bcd60e51b8152602060048201526014602482015273436f75727365206973206e6f742061637469766560601b60448201526064016106cf565b600081815260096020908152604080832033845290915290205460ff1615610c3e5760405162461bcd60e51b815260206004820152601060248201526f105b1c9958591e48195b9c9bdb1b195960821b60448201526064016106cf565b600081815260086020526040902060030154341015610c965760405162461bcd60e51b8152602060048201526014602482015273125b9cdd59999a58da595b9d081c185e5b595b9d60621b60448201526064016106cf565b60008181526009602090815260408083203384528252808320805460ff1916600117905583835260089091528120600701805491610cd38361233f565b90915550506000818152600860205260408082206002015490516001600160a01b03909116913480156108fc02929091818181858888f19350505050158015610d20573d6000803e3d6000fd5b50604051339082907f0729bef4a0569fb1fa09db94121e32114ae18918357d5324c3dd31440b83149e90600090a350565b6000818152600260205260408120546001600160a01b03168061059c5760405162461bcd60e51b8152602060048201526018602482015277115490cdcc8c4e881a5b9d985b1a59081d1bdad95b88125160421b60448201526064016106cf565b60006001600160a01b038216610e1b5760405162461bcd60e51b815260206004820152602960248201527f4552433732313a2061646472657373207a65726f206973206e6f7420612076616044820152683634b21037bbb732b960b91b60648201526084016106cf565b506001600160a01b031660009081526003602052604090205490565b60009182526006602090815260408084206001600160a01b0393909316845291905290205460ff1690565b6060600180546105b1906122a2565b600860205260009081526040902080548190610e8c906122a2565b80601f0160208091040260200160405190810160405280929190818152602001828054610eb8906122a2565b8015610f055780601f10610eda57610100808354040283529160200191610f05565b820191906000526020600020905b815481529060010190602001808311610ee857829003601f168201915b505050505090806001018054610f1a906122a2565b80601f0160208091040260200160405190810160405280929190818152602001828054610f46906122a2565b8015610f935780601f10610f6857610100808354040283529160200191610f93565b820191906000526020600020905b815481529060010190602001808311610f7657829003601f168201915b50505060028401546003850154600486015460058701805496976001600160a01b039094169692955090935090610fc9906122a2565b80601f0160208091040260200160405190810160405280929190818152602001828054610ff5906122a2565b80156110425780601f1061101757610100808354040283529160200191611042565b820191906000526020600020905b81548152906001019060200180831161102557829003601f168201915b505050506006830154600790930154919260ff1691905088565b610b0e33838361168b565b61107133836113b1565b61108d5760405162461bcd60e51b81526004016106cf906122dc565b61109984848484611759565b50505050565b60606110aa826112e1565b60006110c160408051602081019091526000815290565b905060008151116110e1576040518060200160405280600081525061110c565b806110eb8461178c565b6040516020016110fc929190612358565b6040516020818303038152906040525b9392505050565b60008281526006602052604090206001015461112e81611594565b6107708383611624565b60007fae4a0595970935aa5495afbbb72e5f1f6ff1062766b4a3028c0c9b7d5cf7e34561116481611594565b611172600780546001019055565b600061117d60075490565b60408051610100810182528a815260208082018b90523382840152606082018a90526080820189905260a08201889052600160c0830152600060e083018190528481526008909152919091208151929350909181906111dc90826123d5565b50602082015160018201906111f190826123d5565b5060408201516002820180546001600160a01b0319166001600160a01b03909216919091179055606082015160038201556080820151600482015560a0820151600582019061124090826123d5565b5060c082015160068201805460ff191691151591909117905560e09091015160079091015561126f338261181f565b336001600160a01b0316817fd26ee57739c2f8845178c96a37348973f3edc5907d342cdf65382f9a84474b898a6040516112a99190611e5d565b60405180910390a3979650505050505050565b60006001600160e01b03198216637965db0b60e01b148061059c575061059c826119aa565b6000818152600260205260409020546001600160a01b03166113405760405162461bcd60e51b8152602060048201526018602482015277115490cdcc8c4e881a5b9d985b1a59081d1bdad95b88125160421b60448201526064016106cf565b50565b600081815260046020526040902080546001600160a01b0319166001600160a01b038416908117909155819061137882610d51565b6001600160a01b03167f8c5be1e5ebec7d5bd14f71427d1e84f3dd0314c0f7b2291e5b200ac8c7c3b92560405160405180910390a45050565b6000806113bd83610d51565b9050806001600160a01b0316846001600160a01b0316148061140457506001600160a01b0380821660009081526005602090815260408083209388168352929052205460ff165b806114285750836001600160a01b031661141d84610634565b6001600160a01b0316145b949350505050565b826001600160a01b031661144382610d51565b6001600160a01b0316146114695760405162461bcd60e51b81526004016106cf90612495565b6001600160a01b0382166114cb5760405162461bcd60e51b8152602060048201526024808201527f4552433732313a207472616e7366657220746f20746865207a65726f206164646044820152637265737360e01b60648201526084016106cf565b826001600160a01b03166114de82610d51565b6001600160a01b0316146115045760405162461bcd60e51b81526004016106cf90612495565b600081815260046020908152604080832080546001600160a01b03199081169091556001600160a01b0387811680865260038552838620805460001901905590871680865283862080546001019055868652600290945282852080549092168417909155905184937fddf252ad1be2c89b69c2b068fc378daa952ba7f163c4a11628f55a4df523b3ef91a4505050565b61134081336119fa565b6115a88282610e37565b610b0e5760008281526006602090815260408083206001600160a01b03851684529091529020805460ff191660011790556115e03390565b6001600160a01b0316816001600160a01b0316837f2f8788117e7eff1d82e926ec794901d17c78024a50270940304540a733656f0d60405160405180910390a45050565b61162e8282610e37565b15610b0e5760008281526006602090815260408083206001600160a01b0385168085529252808320805460ff1916905551339285917ff6391f5c32d9c69d2a47ea670b442974b53935d1edc7fd64eb21e047a839171b9190a45050565b816001600160a01b0316836001600160a01b0316036116ec5760405162461bcd60e51b815260206004820152601960248201527f4552433732313a20617070726f766520746f2063616c6c65720000000000000060448201526064016106cf565b6001600160a01b03838116600081815260056020908152604080832094871680845294825291829020805460ff191686151590811790915591519182527f17307eab39ab6107e8899845ad3d59bd9653f200f220920489ca2b5937696c31910160405180910390a3505050565b611764848484611430565b61177084848484611a53565b6110995760405162461bcd60e51b81526004016106cf906124da565b6060600061179983611b54565b600101905060008167ffffffffffffffff8111156117b9576117b96120b4565b6040519080825280601f01601f1916602001820160405280156117e3576020820181803683370190505b5090508181016020015b600019016f181899199a1a9b1b9c1cb0b131b232b360811b600a86061a8153600a85049450846117ed57509392505050565b6001600160a01b0382166118755760405162461bcd60e51b815260206004820181905260248201527f4552433732313a206d696e7420746f20746865207a65726f206164647265737360448201526064016106cf565b6000818152600260205260409020546001600160a01b0316156118da5760405162461bcd60e51b815260206004820152601c60248201527f4552433732313a20746f6b656e20616c7265616479206d696e7465640000000060448201526064016106cf565b6000818152600260205260409020546001600160a01b03161561193f5760405162461bcd60e51b815260206004820152601c60248201527f4552433732313a20746f6b656e20616c7265616479206d696e7465640000000060448201526064016106cf565b6001600160a01b038216600081815260036020908152604080832080546001019055848352600290915280822080546001600160a01b0319168417905551839291907fddf252ad1be2c89b69c2b068fc378daa952ba7f163c4a11628f55a4df523b3ef908290a45050565b60006001600160e01b031982166380ac58cd60e01b14806119db57506001600160e01b03198216635b5e139f60e01b145b8061059c57506301ffc9a760e01b6001600160e01b031983161461059c565b611a048282610e37565b610b0e57611a1181611c2c565b611a1c836020611c3e565b604051602001611a2d92919061252c565b60408051601f198184030181529082905262461bcd60e51b82526106cf91600401611e5d565b60006001600160a01b0384163b15611b4957604051630a85bd0160e11b81526001600160a01b0385169063150b7a0290611a979033908990889088906004016125a1565b6020604051808303816000875af1925050508015611ad2575060408051601f3d908101601f19168201909252611acf918101906125de565b60015b611b2f573d808015611b00576040519150601f19603f3d011682016040523d82523d6000602084013e611b05565b606091505b508051600003611b275760405162461bcd60e51b81526004016106cf906124da565b805181602001fd5b6001600160e01b031916630a85bd0160e11b149050611428565b506001949350505050565b60008072184f03e93ff9f4daa797ed6e38ed64bf6a1f0160401b8310611b935772184f03e93ff9f4daa797ed6e38ed64bf6a1f0160401b830492506040015b6d04ee2d6d415b85acef81000000008310611bbf576d04ee2d6d415b85acef8100000000830492506020015b662386f26fc100008310611bdd57662386f26fc10000830492506010015b6305f5e1008310611bf5576305f5e100830492506008015b6127108310611c0957612710830492506004015b60648310611c1b576064830492506002015b600a831061059c5760010192915050565b606061059c6001600160a01b03831660145b60606000611c4d8360026125fb565b611c58906002612612565b67ffffffffffffffff811115611c7057611c706120b4565b6040519080825280601f01601f191660200182016040528015611c9a576020820181803683370190505b509050600360fc1b81600081518110611cb557611cb5612625565b60200101906001600160f81b031916908160001a905350600f60fb1b81600181518110611ce457611ce4612625565b60200101906001600160f81b031916908160001a9053506000611d088460026125fb565b611d13906001612612565b90505b6001811115611d8b576f181899199a1a9b1b9c1cb0b131b232b360811b85600f1660108110611d4757611d47612625565b1a60f81b828281518110611d5d57611d5d612625565b60200101906001600160f81b031916908160001a90535060049490941c93611d848161263b565b9050611d16565b50831561110c5760405162461bcd60e51b815260206004820181905260248201527f537472696e67733a20686578206c656e67746820696e73756666696369656e7460448201526064016106cf565b6001600160e01b03198116811461134057600080fd5b600060208284031215611e0257600080fd5b813561110c81611dda565b60005b83811015611e28578181015183820152602001611e10565b50506000910152565b60008151808452611e49816020860160208601611e0d565b601f01601f19169290920160200192915050565b60208152600061110c6020830184611e31565b600060208284031215611e8257600080fd5b5035919050565b80356001600160a01b0381168114611ea057600080fd5b919050565b60008060408385031215611eb857600080fd5b611ec183611e89565b946020939093013593505050565b6020815260008251610100806020850152611eee610120850183611e31565b91506020850151601f1980868503016040870152611f0c8483611e31565b935060408701519150611f2a60608701836001600160a01b03169052565b60608701516080870152608087015160a087015260a08701519150808685030160c087015250611f5a8382611e31565b92505060c0850151611f7060e086018215159052565b5060e0949094015192909301919091525090565b600080600060608486031215611f9957600080fd5b611fa284611e89565b9250611fb060208501611e89565b9150604084013590509250925092565b60008060408385031215611fd357600080fd5b82359150611fe360208401611e89565b90509250929050565b600060208284031215611ffe57600080fd5b61110c82611e89565b600061010080835261201b8184018c611e31565b9050828103602084015261202f818b611e31565b6001600160a01b038a166040850152606084018990526080840188905283810360a085015290506120608187611e31565b94151560c0840152505060e001529695505050505050565b6000806040838503121561208b57600080fd5b61209483611e89565b9150602083013580151581146120a957600080fd5b809150509250929050565b634e487b7160e01b600052604160045260246000fd5b600067ffffffffffffffff808411156120e5576120e56120b4565b604051601f8501601f19908116603f0116810190828211818310171561210d5761210d6120b4565b8160405280935085815286868601111561212657600080fd5b858560208301376000602087830101525050509392505050565b6000806000806080858703121561215657600080fd5b61215f85611e89565b935061216d60208601611e89565b925060408501359150606085013567ffffffffffffffff81111561219057600080fd5b8501601f810187136121a157600080fd5b6121b0878235602084016120ca565b91505092959194509250565b600082601f8301126121cd57600080fd5b61110c838335602085016120ca565b600080600080600060a086880312156121f457600080fd5b853567ffffffffffffffff8082111561220c57600080fd5b61221889838a016121bc565b9650602088013591508082111561222e57600080fd5b61223a89838a016121bc565b95506040880135945060608801359350608088013591508082111561225e57600080fd5b5061226b888289016121bc565b9150509295509295909350565b6000806040838503121561228b57600080fd5b61229483611e89565b9150611fe360208401611e89565b600181811c908216806122b657607f821691505b6020821081036122d657634e487b7160e01b600052602260045260246000fd5b50919050565b6020808252602d908201527f4552433732313a2063616c6c6572206973206e6f7420746f6b656e206f776e6560408201526c1c881bdc88185c1c1c9bdd9959609a1b606082015260800190565b634e487b7160e01b600052601160045260246000fd5b60006001820161235157612351612329565b5060010190565b6000835161236a818460208801611e0d565b83519083019061237e818360208801611e0d565b01949350505050565b601f82111561077057600081815260208120601f850160051c810160208610156123ae5750805b601f850160051c820191505b818110156123cd578281556001016123ba565b505050505050565b815167ffffffffffffffff8111156123ef576123ef6120b4565b612403816123fd84546122a2565b84612387565b602080601f83116001811461243857600084156124205750858301515b600019600386901b1c1916600185901b1785556123cd565b600085815260208120601f198616915b8281101561246757888601518255948401946001909101908401612448565b50858210156124855787850151600019600388901b60f8161c191681555b5050505050600190811b01905550565b60208082526025908201527f4552433732313a207472616e736665722066726f6d20696e636f72726563742060408201526437bbb732b960d91b606082015260800190565b60208082526032908201527f4552433732313a207472616e7366657220746f206e6f6e20455243373231526560408201527131b2b4bb32b91034b6b83632b6b2b73a32b960711b606082015260800190565b7f416363657373436f6e74726f6c3a206163636f756e7420000000000000000000815260008351612564816017850160208801611e0d565b7001034b99036b4b9b9b4b733903937b6329607d1b6017918401918201528351612595816028840160208801611e0d565b01602801949350505050565b6001600160a01b03858116825284166020820152604081018390526080606082018190526000906125d490830184611e31565b9695505050505050565b6000602082840312156125f057600080fd5b815161110c81611dda565b808202811582820484141761059c5761059c612329565b8082018082111561059c5761059c612329565b634e487b7160e01b600052603260045260246000fd5b60008161264a5761264a612329565b50600019019056fea2646970667358221220238e71f40b18f607cb9e1d17495925e998667ad58594fbd7c38f60d3479e4c5d64736f6c63430008130033",
  "linkReferences": {},
  "deployedLinkReferences": {}
}