{
  "_format": "hh-sol-artifact-1",
  "contractName": "SimpleCertificateNFT",
  "sourceName": "contracts/simple/SimpleCertificateNFT.sol",
  "abi": [
    {
      "inputs": [],
      "stateMutability": "nonpayable",
      "type": "constructor"
    },
    {
      "anonymous": false,
      "inputs": [
        {
          "indexed": true,
          "internalType": "address",
          "name": "owner",
          "type": "address"
        },
        {
          "indexed": true,
          "internalType": "address",
          "name": "approved",
          "type": "address"
        },
        {
          "indexed": true,
          "internalType": "uint256",
          "name": "tokenId",
          "type": "uint256"
        }
      ],
      "name": "Approval",
      "type": "event"
    },
    {
      "anonymous": false,
      "inputs": [
        {
          "indexed": true,
          "internalType": "address",
          "name": "owner",
          "type": "address"
        },
        {
          "indexed": true,
          "internalType": "address",
          "name": "operator",
          "type": "address"
        },
        {
          "indexed": false,
          "internalType": "bool",
          "name": "approved",
          "type": "bool"
        }
      ],
      "name": "ApprovalForAll",
      "type": "event"
    },
    {
      "anonymous": false,
      "inputs": [
        {
          "indexed": true,
          "internalType": "uint256",
          "name": "tokenId",
          "type": "uint256"
        },
        {
          "indexed": true,
          "internalType": "address",
          "name": "recipient",
          "type": "address"
        },
        {
          "indexed": false,
          "internalType": "string",
          "name": "courseName",
          "type": "string"
        }
      ],
      "name": "CertificateIssued",
      "type": "event"
    },
    {
      "anonymous": false,
      "inputs": [
        {
          "indexed": true,
          "internalType": "bytes32",
          "name": "role",
          "type": "bytes32"
        },
        {
          "indexed": true,
          "internalType": "bytes32",
          "name": "previousAdminRole",
          "type": "bytes32"
        },
        {
          "indexed": true,
          "internalType": "bytes32",
          "name": "newAdminRole",
          "type": "bytes32"
        }
      ],
      "name": "RoleAdminChanged",
      "type": "event"
    },
    {
      "anonymous": false,
      "inputs": [
        {
          "indexed": true,
          "internalType": "bytes32",
          "name": "role",
          "type": "bytes32"
        },
        {
          "indexed": true,
          "internalType": "address",
          "name": "account",
          "type": "address"
        },
        {
          "indexed": true,
          "internalType": "address",
          "name": "sender",
          "type": "address"
        }
      ],
      "name": "RoleGranted",
      "type": "event"
    },
    {
      "anonymous": false,
      "inputs": [
        {
          "indexed": true,
          "internalType": "bytes32",
          "name": "role",
          "type": "bytes32"
        },
        {
          "indexed": true,
          "internalType": "address",
          "name": "account",
          "type": "address"
        },
        {
          "indexed": true,
          "internalType": "address",
          "name": "sender",
          "type": "address"
        }
      ],
      "name": "RoleRevoked",
      "type": "event"
    },
    {
      "anonymous": false,
      "inputs": [
        {
          "indexed": true,
          "internalType": "address",
          "name": "from",
          "type": "address"
        },
        {
          "indexed": true,
          "internalType": "address",
          "name": "to",
          "type": "address"
        },
        {
          "indexed": true,
          "internalType": "uint256",
          "name": "tokenId",
          "type": "uint256"
        }
      ],
      "name": "Transfer",
      "type": "event"
    },
    {
      "inputs": [],
      "name": "DEFAULT_ADMIN_ROLE",
      "outputs": [
        {
          "internalType": "bytes32",
          "name": "",
          "type": "bytes32"
        }
      ],
      "stateMutability": "view",
      "type": "function"
    },
    {
      "inputs": [],
      "name": "VERIFIER_ROLE",
      "outputs": [
        {
          "internalType": "bytes32",
          "name": "",
          "type": "bytes32"
        }
      ],
      "stateMutability": "view",
      "type": "function"
    },
    {
      "inputs": [
        {
          "internalType": "address",
          "name": "to",
          "type": "address"
        },
        {
          "internalType": "uint256",
          "name": "tokenId",
          "type": "uint256"
        }
      ],
      "name": "approve",
      "outputs": [],
      "stateMutability": "nonpayable",
      "type": "function"
    },
    {
      "inputs": [
        {
          "internalType": "address",
          "name": "owner",
          "type": "address"
        }
      ],
      "name": "balanceOf",
      "outputs": [
        {
          "internalType": "uint256",
          "name": "",
          "type": "uint256"
        }
      ],
      "stateMutability": "view",
      "type": "function"
    },
    {
      "inputs": [
        {
          "internalType": "uint256",
          "name": "",
          "type": "uint256"
        }
      ],
      "name": "certificates",
      "outputs": [
        {
          "internalType": "string",
          "name": "courseName",
          "type": "string"
        },
        {
          "internalType": "string",
          "name": "studentName",
          "type": "string"
        },
        {
          "internalType": "uint256",
          "name": "issueDate",
          "type": "uint256"
        },
        {
          "internalType": "string",
          "name": "ipfsHash",
          "type": "string"
        },
        {
          "internalType": "bool",
          "name": "isVerified",
          "type": "bool"
        }
      ],
      "stateMutability": "view",
      "type": "function"
    },
    {
      "inputs": [
        {
          "internalType": "uint256",
          "name": "tokenId",
          "type": "uint256"
        }
      ],
      "name": "getApproved",
      "outputs": [
        {
          "internalType": "address",
          "name": "",
          "type": "address"
        }
      ],
      "stateMutability": "view",
      "type": "function"
    },
    {
      "inputs": [
        {
          "internalType": "uint256",
          "name": "tokenId",
          "type": "uint256"
        }
      ],
      "name": "getCertificate",
      "outputs": [
        {
          "components": [
            {
              "internalType": "string",
              "name": "courseName",
              "type": "string"
            },
            {
              "internalType": "string",
              "name": "studentName",
              "type": "string"
            },
            {
              "internalType": "uint256",
              "name": "issueDate",
              "type": "uint256"
            },
            {
              "internalType": "string",
              "name": "ipfsHash",
              "type": "string"
            },
            {
              "internalType": "bool",
              "name": "isVerified",
              "type": "bool"
            }
          ],
          "internalType": "struct SimpleCertificateNFT.Certificate",
          "name": "",
          "type": "tuple"
        }
      ],
      "stateMutability": "view",
      "type": "function"
    },
    {
      "inputs": [
        {
          "internalType": "bytes32",
          "name": "role",
          "type": "bytes32"
        }
      ],
      "name": "getRoleAdmin",
      "outputs": [
        {
          "internalType": "bytes32",
          "name": "",
          "type": "bytes32"
        }
      ],
      "stateMutability": "view",
      "type": "function"
    },
    {
      "inputs": [
        {
          "internalType": "bytes32",
          "name": "role",
          "type": "bytes32"
        },
        {
          "internalType": "address",
          "name": "account",
          "type": "address"
        }
      ],
      "name": "grantRole",
      "outputs": [],
      "stateMutability": "nonpayable",
      "type": "function"
    },
    {
      "inputs": [
        {
          "internalType": "bytes32",
          "name": "role",
          "type": "bytes32"
        },
        {
          "internalType": "address",
          "name": "account",
          "type": "address"
        }
      ],
      "name": "hasRole",
      "outputs": [
        {
          "internalType": "bool",
          "name": "",
          "type": "bool"
        }
      ],
      "stateMutability": "view",
      "type": "function"
    },
    {
      "inputs": [
        {
          "internalType": "address",
          "name": "owner",
          "type": "address"
        },
        {
          "internalType": "address",
          "name": "operator",
          "type": "address"
        }
      ],
      "name": "isApprovedForAll",
      "outputs": [
        {
          "internalType": "bool",
          "name": "",
          "type": "bool"
        }
      ],
      "stateMutability": "view",
      "type": "function"
    },
    {
      "inputs": [
        {
          "internalType": "address",
          "name": "recipient",
          "type": "address"
        },
        {
          "internalType": "string",
          "name": "courseName",
          "type": "string"
        },
        {
          "internalType": "string",
          "name": "studentName",
          "type": "string"
        },
        {
          "internalType": "string",
          "name": "ipfsHash",
          "type": "string"
        }
      ],
      "name": "issueCertificate",
      "outputs": [
        {
          "internalType": "uint256",
          "name": "",
          "type": "uint256"
        }
      ],
      "stateMutability": "nonpayable",
      "type": "function"
    },
    {
      "inputs": [],
      "name": "name",
      "outputs": [
        {
          "internalType": "string",
          "name": "",
          "type": "string"
        }
      ],
      "stateMutability": "view",
      "type": "function"
    },
    {
      "inputs": [
        {
          "internalType": "uint256",
          "name": "tokenId",
          "type": "uint256"
        }
      ],
      "name": "ownerOf",
      "outputs": [
        {
          "internalType": "address",
          "name": "",
          "type": "address"
        }
      ],
      "stateMutability": "view",
      "type": "function"
    },
    {
      "inputs": [
        {
          "internalType": "bytes32",
          "name": "role",
          "type": "bytes32"
        },
        {
          "internalType": "address",
          "name": "account",
          "type": "address"
        }
      ],
      "name": "renounceRole",
      "outputs": [],
      "stateMutability": "nonpayable",
      "type": "function"
    },
    {
      "inputs": [
        {
          "internalType": "bytes32",
          "name": "role",
          "type": "bytes32"
        },
        {
          "internalType": "address",
          "name": "account",
          "type": "address"
        }
      ],
      "name": "revokeRole",
      "outputs": [],
      "stateMutability": "nonpayable",
      "type": "function"
    },
    {
      "inputs": [
        {
          "internalType": "address",
          "name": "from",
          "type": "address"
        },
        {
          "internalType": "address",
          "name": "to",
          "type": "address"
        },
        {
          "internalType": "uint256",
          "name": "tokenId",
          "type": "uint256"
        }
      ],
      "name": "safeTransferFrom",
      "outputs": [],
      "stateMutability": "nonpayable",
      "type": "function"
    },
    {
      "inputs": [
        {
          "internalType": "address",
          "name": "from",
          "type": "address"
        },
        {
          "internalType": "address",
          "name": "to",
          "type": "address"
        },
        {
          "internalType": "uint256",
          "name": "tokenId",
          "type": "uint256"
        },
        {
          "internalType": "bytes",
          "name": "data",
          "type": "bytes"
        }
      ],
      "name": "safeTransferFrom",
      "outputs": [],
      "stateMutability": "nonpayable",
      "type": "function"
    },
    {
      "inputs": [
        {
          "internalType": "address",
          "name": "operator",
          "type": "address"
        },
        {
          "internalType": "bool",
          "name": "approved",
          "type": "bool"
        }
      ],
      "name": "setApprovalForAll",
      "outputs": [],
      "stateMutability": "nonpayable",
      "type": "function"
    },
    {
      "inputs": [
        {
          "internalType": "bytes4",
          "name": "interfaceId",
          "type": "bytes4"
        }
      ],
      "name": "supportsInterface",
      "outputs": [
        {
          "internalType": "bool",
          "name": "",
          "type": "bool"
        }
      ],
      "stateMutability": "view",
      "type": "function"
    },
    {
      "inputs": [],
      "name": "symbol",
      "outputs": [
        {
          "internalType": "string",
          "name": "",
          "type": "string"
        }
      ],
      "stateMutability": "view",
      "type": "function"
    },
    {
      "inputs": [
        {
          "internalType": "uint256",
          "name": "tokenId",
          "type": "uint256"
        }
      ],
      "name": "tokenURI",
      "outputs": [
        {
          "internalType": "string",
          "name": "",
          "type": "string"
        }
      ],
      "stateMutability": "view",
      "type": "function"
    },
    {
      "inputs": [
        {
          "internalType": "address",
          "name": "from",
          "type": "address"
        },
        {
          "internalType": "address",
          "name": "to",
          "type": "address"
        },
        {
          "internalType": "uint256",
          "name": "tokenId",
          "type": "uint256"
        }
      ],
      "name": "transferFrom",
      "outputs": [],
      "stateMutability": "nonpayable",
      "type": "function"
    }
  ],
  "bytecode": "0x60806040523480156200001157600080fd5b506040518060400160405280601681526020017f427261696e5361666573204365727469666963617465000000000000000000008152506040518060400160405280600481526020016310d1549560e21b815250816000908162000076919062000213565b50600162000085828262000213565b506200009791506000905033620000c9565b620000c37f0ce23c3e399818cfee81a7ab0880f714e53d7672b08df0fa62f2843416e1ea0933620000c9565b620002df565b60008281526006602090815260408083206001600160a01b038516845290915290205460ff166200016a5760008281526006602090815260408083206001600160a01b03851684529091529020805460ff19166001179055620001293390565b6001600160a01b0316816001600160a01b0316837f2f8788117e7eff1d82e926ec794901d17c78024a50270940304540a733656f0d60405160405180910390a45b5050565b634e487b7160e01b600052604160045260246000fd5b600181811c908216806200019957607f821691505b602082108103620001ba57634e487b7160e01b600052602260045260246000fd5b50919050565b601f8211156200020e57600081815260208120601f850160051c81016020861015620001e95750805b601f850160051c820191505b818110156200020a57828155600101620001f5565b5050505b505050565b81516001600160401b038111156200022f576200022f6200016e565b620002478162000240845462000184565b84620001c0565b602080601f8311600181146200027f5760008415620002665750858301515b600019600386901b1c1916600185901b1785556200020a565b600085815260208120601f198616915b82811015620002b0578886015182559484019460019091019084016200028f565b5085821015620002cf5787850151600019600388901b60f8161c191681555b5050505050600190811b01905550565b61213b80620002ef6000396000f3fe608060405234801561001057600080fd5b506004361061014d5760003560e01c8063663b3e22116100c3578063a22cb4651161007c578063a22cb465146102ec578063b88d4fde146102ff578063c87b56dd14610312578063d547741f14610325578063e7705db614610338578063e985e9c51461035f57600080fd5b8063663b3e221461027f57806370a08231146102a35780638eb933ac146102b657806391d14854146102c957806395d89b41146102dc578063a217fddf146102e457600080fd5b8063248a9ca311610115578063248a9ca3146101e25780632f2ff15d1461021357806336568abe1461022657806342842e0e1461023957806351640fee1461024c5780636352211e1461026c57600080fd5b806301ffc9a71461015257806306fdde031461017a578063081812fc1461018f578063095ea7b3146101ba57806323b872dd146101cf575b600080fd5b610165610160366004611922565b61039b565b60405190151581526020015b60405180910390f35b6101826103ac565b604051610171919061198f565b6101a261019d3660046119a2565b61043e565b6040516001600160a01b039091168152602001610171565b6101cd6101c83660046119d7565b610465565b005b6101cd6101dd366004611a01565b61057f565b6102056101f03660046119a2565b60009081526006602052604090206001015490565b604051908152602001610171565b6101cd610221366004611a3d565b6105b0565b6101cd610234366004611a3d565b6105d5565b6101cd610247366004611a01565b610653565b61025f61025a3660046119a2565b61066e565b6040516101719190611a69565b6101a261027a3660046119a2565b6108f5565b61029261028d3660046119a2565b610955565b604051610171959493929190611ae4565b6102056102b1366004611b38565b610b1e565b6102056102c4366004611bff565b610ba4565b6101656102d7366004611a3d565b610cd8565b610182610d03565b610205600081565b6101cd6102fa366004611c98565b610d12565b6101cd61030d366004611cd4565b610d1d565b6101826103203660046119a2565b610d55565b6101cd610333366004611a3d565b610dc9565b6102057f0ce23c3e399818cfee81a7ab0880f714e53d7672b08df0fa62f2843416e1ea0981565b61016561036d366004611d44565b6001600160a01b03918216600090815260056020908152604080832093909416825291909152205460ff1690565b60006103a682610dee565b92915050565b6060600080546103bb90611d6e565b80601f01602080910402602001604051908101604052809291908181526020018280546103e790611d6e565b80156104345780601f1061040957610100808354040283529160200191610434565b820191906000526020600020905b81548152906001019060200180831161041757829003601f168201915b5050505050905090565b600061044982610e13565b506000908152600460205260409020546001600160a01b031690565b6000610470826108f5565b9050806001600160a01b0316836001600160a01b0316036104e25760405162461bcd60e51b815260206004820152602160248201527f4552433732313a20617070726f76616c20746f2063757272656e74206f776e656044820152603960f91b60648201526084015b60405180910390fd5b336001600160a01b03821614806104fe57506104fe813361036d565b6105705760405162461bcd60e51b815260206004820152603d60248201527f4552433732313a20617070726f76652063616c6c6572206973206e6f7420746f60448201527f6b656e206f776e6572206f7220617070726f76656420666f7220616c6c00000060648201526084016104d9565b61057a8383610e75565b505050565b6105893382610ee3565b6105a55760405162461bcd60e51b81526004016104d990611da8565b61057a838383610f62565b6000828152600660205260409020600101546105cb816110c6565b61057a83836110d0565b6001600160a01b03811633146106455760405162461bcd60e51b815260206004820152602f60248201527f416363657373436f6e74726f6c3a2063616e206f6e6c792072656e6f756e636560448201526e103937b632b9903337b91039b2b63360891b60648201526084016104d9565b61064f8282611156565b5050565b61057a83838360405180602001604052806000815250610d1d565b6106a26040518060a00160405280606081526020016060815260200160008152602001606081526020016000151581525090565b6000828152600260205260409020546001600160a01b03166107065760405162461bcd60e51b815260206004820152601a60248201527f436572746966696361746520646f6573206e6f7420657869737400000000000060448201526064016104d9565b60008281526008602052604090819020815160a0810190925280548290829061072e90611d6e565b80601f016020809104026020016040519081016040528092919081815260200182805461075a90611d6e565b80156107a75780601f1061077c576101008083540402835291602001916107a7565b820191906000526020600020905b81548152906001019060200180831161078a57829003601f168201915b505050505081526020016001820180546107c090611d6e565b80601f01602080910402602001604051908101604052809291908181526020018280546107ec90611d6e565b80156108395780601f1061080e57610100808354040283529160200191610839565b820191906000526020600020905b81548152906001019060200180831161081c57829003601f168201915b505050505081526020016002820154815260200160038201805461085c90611d6e565b80601f016020809104026020016040519081016040528092919081815260200182805461088890611d6e565b80156108d55780601f106108aa576101008083540402835291602001916108d5565b820191906000526020600020905b8154815290600101906020018083116108b857829003601f168201915b50505091835250506004919091015460ff16151560209091015292915050565b6000818152600260205260408120546001600160a01b0316806103a65760405162461bcd60e51b8152602060048201526018602482015277115490cdcc8c4e881a5b9d985b1a59081d1bdad95b88125160421b60448201526064016104d9565b60086020526000908152604090208054819061097090611d6e565b80601f016020809104026020016040519081016040528092919081815260200182805461099c90611d6e565b80156109e95780601f106109be576101008083540402835291602001916109e9565b820191906000526020600020905b8154815290600101906020018083116109cc57829003601f168201915b5050505050908060010180546109fe90611d6e565b80601f0160208091040260200160405190810160405280929190818152602001828054610a2a90611d6e565b8015610a775780601f10610a4c57610100808354040283529160200191610a77565b820191906000526020600020905b815481529060010190602001808311610a5a57829003601f168201915b505050505090806002015490806003018054610a9290611d6e565b80601f0160208091040260200160405190810160405280929190818152602001828054610abe90611d6e565b8015610b0b5780601f10610ae057610100808354040283529160200191610b0b565b820191906000526020600020905b815481529060010190602001808311610aee57829003601f168201915b5050506004909301549192505060ff1685565b60006001600160a01b038216610b885760405162461bcd60e51b815260206004820152602960248201527f4552433732313a2061646472657373207a65726f206973206e6f7420612076616044820152683634b21037bbb732b960b91b60648201526084016104d9565b506001600160a01b031660009081526003602052604090205490565b60007f0ce23c3e399818cfee81a7ab0880f714e53d7672b08df0fa62f2843416e1ea09610bd0816110c6565b610bde600780546001019055565b6000610be960075490565b6040805160a0810182528881526020808201899052428284015260608201889052600160808301526000848152600890915291909120815192935090918190610c329082611e43565b5060208201516001820190610c479082611e43565b506040820151600282015560608201516003820190610c669082611e43565b50608091909101516004909101805460ff1916911515919091179055610c8c87826111bd565b866001600160a01b0316817fb7ff6cbe8f0282bf405f9ce3210be62c5620d39139a49186436e3f0fcc6a315a88604051610cc6919061198f565b60405180910390a39695505050505050565b60009182526006602090815260408084206001600160a01b0393909316845291905290205460ff1690565b6060600180546103bb90611d6e565b61064f338383611348565b610d273383610ee3565b610d435760405162461bcd60e51b81526004016104d990611da8565b610d4f84848484611416565b50505050565b6060610d6082610e13565b6000610d7760408051602081019091526000815290565b90506000815111610d975760405180602001604052806000815250610dc2565b80610da184611449565b604051602001610db2929190611f03565b6040516020818303038152906040525b9392505050565b600082815260066020526040902060010154610de4816110c6565b61057a8383611156565b60006001600160e01b03198216637965db0b60e01b14806103a657506103a6826114dc565b6000818152600260205260409020546001600160a01b0316610e725760405162461bcd60e51b8152602060048201526018602482015277115490cdcc8c4e881a5b9d985b1a59081d1bdad95b88125160421b60448201526064016104d9565b50565b600081815260046020526040902080546001600160a01b0319166001600160a01b0384169081179091558190610eaa826108f5565b6001600160a01b03167f8c5be1e5ebec7d5bd14f71427d1e84f3dd0314c0f7b2291e5b200ac8c7c3b92560405160405180910390a45050565b600080610eef836108f5565b9050806001600160a01b0316846001600160a01b03161480610f3657506001600160a01b0380821660009081526005602090815260408083209388168352929052205460ff165b80610f5a5750836001600160a01b0316610f4f8461043e565b6001600160a01b0316145b949350505050565b826001600160a01b0316610f75826108f5565b6001600160a01b031614610f9b5760405162461bcd60e51b81526004016104d990611f32565b6001600160a01b038216610ffd5760405162461bcd60e51b8152602060048201526024808201527f4552433732313a207472616e7366657220746f20746865207a65726f206164646044820152637265737360e01b60648201526084016104d9565b826001600160a01b0316611010826108f5565b6001600160a01b0316146110365760405162461bcd60e51b81526004016104d990611f32565b600081815260046020908152604080832080546001600160a01b03199081169091556001600160a01b0387811680865260038552838620805460001901905590871680865283862080546001019055868652600290945282852080549092168417909155905184937fddf252ad1be2c89b69c2b068fc378daa952ba7f163c4a11628f55a4df523b3ef91a4505050565b610e72813361152c565b6110da8282610cd8565b61064f5760008281526006602090815260408083206001600160a01b03851684529091529020805460ff191660011790556111123390565b6001600160a01b0316816001600160a01b0316837f2f8788117e7eff1d82e926ec794901d17c78024a50270940304540a733656f0d60405160405180910390a45050565b6111608282610cd8565b1561064f5760008281526006602090815260408083206001600160a01b0385168085529252808320805460ff1916905551339285917ff6391f5c32d9c69d2a47ea670b442974b53935d1edc7fd64eb21e047a839171b9190a45050565b6001600160a01b0382166112135760405162461bcd60e51b815260206004820181905260248201527f4552433732313a206d696e7420746f20746865207a65726f206164647265737360448201526064016104d9565b6000818152600260205260409020546001600160a01b0316156112785760405162461bcd60e51b815260206004820152601c60248201527f4552433732313a20746f6b656e20616c7265616479206d696e7465640000000060448201526064016104d9565b6000818152600260205260409020546001600160a01b0316156112dd5760405162461bcd60e51b815260206004820152601c60248201527f4552433732313a20746f6b656e20616c7265616479206d696e7465640000000060448201526064016104d9565b6001600160a01b038216600081815260036020908152604080832080546001019055848352600290915280822080546001600160a01b0319168417905551839291907fddf252ad1be2c89b69c2b068fc378daa952ba7f163c4a11628f55a4df523b3ef908290a45050565b816001600160a01b0316836001600160a01b0316036113a95760405162461bcd60e51b815260206004820152601960248201527f4552433732313a20617070726f766520746f2063616c6c65720000000000000060448201526064016104d9565b6001600160a01b03838116600081815260056020908152604080832094871680845294825291829020805460ff191686151590811790915591519182527f17307eab39ab6107e8899845ad3d59bd9653f200f220920489ca2b5937696c31910160405180910390a3505050565b611421848484610f62565b61142d84848484611585565b610d4f5760405162461bcd60e51b81526004016104d990611f77565b6060600061145683611686565b600101905060008167ffffffffffffffff81111561147657611476611b53565b6040519080825280601f01601f1916602001820160405280156114a0576020820181803683370190505b5090508181016020015b600019016f181899199a1a9b1b9c1cb0b131b232b360811b600a86061a8153600a85049450846114aa57509392505050565b60006001600160e01b031982166380ac58cd60e01b148061150d57506001600160e01b03198216635b5e139f60e01b145b806103a657506301ffc9a760e01b6001600160e01b03198316146103a6565b6115368282610cd8565b61064f576115438161175e565b61154e836020611770565b60405160200161155f929190611fc9565b60408051601f198184030181529082905262461bcd60e51b82526104d99160040161198f565b60006001600160a01b0384163b1561167b57604051630a85bd0160e11b81526001600160a01b0385169063150b7a02906115c990339089908890889060040161203e565b6020604051808303816000875af1925050508015611604575060408051601f3d908101601f191682019092526116019181019061207b565b60015b611661573d808015611632576040519150601f19603f3d011682016040523d82523d6000602084013e611637565b606091505b5080516000036116595760405162461bcd60e51b81526004016104d990611f77565b805181602001fd5b6001600160e01b031916630a85bd0160e11b149050610f5a565b506001949350505050565b60008072184f03e93ff9f4daa797ed6e38ed64bf6a1f0160401b83106116c55772184f03e93ff9f4daa797ed6e38ed64bf6a1f0160401b830492506040015b6d04ee2d6d415b85acef810000000083106116f1576d04ee2d6d415b85acef8100000000830492506020015b662386f26fc10000831061170f57662386f26fc10000830492506010015b6305f5e1008310611727576305f5e100830492506008015b612710831061173b57612710830492506004015b6064831061174d576064830492506002015b600a83106103a65760010192915050565b60606103a66001600160a01b03831660145b6060600061177f8360026120ae565b61178a9060026120c5565b67ffffffffffffffff8111156117a2576117a2611b53565b6040519080825280601f01601f1916602001820160405280156117cc576020820181803683370190505b509050600360fc1b816000815181106117e7576117e76120d8565b60200101906001600160f81b031916908160001a905350600f60fb1b81600181518110611816576118166120d8565b60200101906001600160f81b031916908160001a905350600061183a8460026120ae565b6118459060016120c5565b90505b60018111156118bd576f181899199a1a9b1b9c1cb0b131b232b360811b85600f1660108110611879576118796120d8565b1a60f81b82828151811061188f5761188f6120d8565b60200101906001600160f81b031916908160001a90535060049490941c936118b6816120ee565b9050611848565b508315610dc25760405162461bcd60e51b815260206004820181905260248201527f537472696e67733a20686578206c656e67746820696e73756666696369656e7460448201526064016104d9565b6001600160e01b031981168114610e7257600080fd5b60006020828403121561193457600080fd5b8135610dc28161190c565b60005b8381101561195a578181015183820152602001611942565b50506000910152565b6000815180845261197b81602086016020860161193f565b601f01601f19169290920160200192915050565b602081526000610dc26020830184611963565b6000602082840312156119b457600080fd5b5035919050565b80356001600160a01b03811681146119d257600080fd5b919050565b600080604083850312156119ea57600080fd5b6119f3836119bb565b946020939093013593505050565b600080600060608486031215611a1657600080fd5b611a1f846119bb565b9250611a2d602085016119bb565b9150604084013590509250925092565b60008060408385031215611a5057600080fd5b82359150611a60602084016119bb565b90509250929050565b602081526000825160a06020840152611a8560c0840182611963565b90506020840151601f1980858403016040860152611aa38383611963565b925060408601516060860152606086015191508085840301608086015250611acb8282611963565b9150506080840151151560a08401528091505092915050565b60a081526000611af760a0830188611963565b8281036020840152611b098188611963565b90508560408401528281036060840152611b238186611963565b91505082151560808301529695505050505050565b600060208284031215611b4a57600080fd5b610dc2826119bb565b634e487b7160e01b600052604160045260246000fd5b600067ffffffffffffffff80841115611b8457611b84611b53565b604051601f8501601f19908116603f01168101908282118183101715611bac57611bac611b53565b81604052809350858152868686011115611bc557600080fd5b858560208301376000602087830101525050509392505050565b600082601f830112611bf057600080fd5b610dc283833560208501611b69565b60008060008060808587031215611c1557600080fd5b611c1e856119bb565b9350602085013567ffffffffffffffff80821115611c3b57600080fd5b611c4788838901611bdf565b94506040870135915080821115611c5d57600080fd5b611c6988838901611bdf565b93506060870135915080821115611c7f57600080fd5b50611c8c87828801611bdf565b91505092959194509250565b60008060408385031215611cab57600080fd5b611cb4836119bb565b915060208301358015158114611cc957600080fd5b809150509250929050565b60008060008060808587031215611cea57600080fd5b611cf3856119bb565b9350611d01602086016119bb565b925060408501359150606085013567ffffffffffffffff811115611d2457600080fd5b8501601f81018713611d3557600080fd5b611c8c87823560208401611b69565b60008060408385031215611d5757600080fd5b611d60836119bb565b9150611a60602084016119bb565b600181811c90821680611d8257607f821691505b602082108103611da257634e487b7160e01b600052602260045260246000fd5b50919050565b6020808252602d908201527f4552433732313a2063616c6c6572206973206e6f7420746f6b656e206f776e6560408201526c1c881bdc88185c1c1c9bdd9959609a1b606082015260800190565b601f82111561057a57600081815260208120601f850160051c81016020861015611e1c5750805b601f850160051c820191505b81811015611e3b57828155600101611e28565b505050505050565b815167ffffffffffffffff811115611e5d57611e5d611b53565b611e7181611e6b8454611d6e565b84611df5565b602080601f831160018114611ea65760008415611e8e5750858301515b600019600386901b1c1916600185901b178555611e3b565b600085815260208120601f198616915b82811015611ed557888601518255948401946001909101908401611eb6565b5085821015611ef35787850151600019600388901b60f8161c191681555b5050505050600190811b01905550565b60008351611f1581846020880161193f565b835190830190611f2981836020880161193f565b01949350505050565b60208082526025908201527f4552433732313a207472616e736665722066726f6d20696e636f72726563742060408201526437bbb732b960d91b606082015260800190565b60208082526032908201527f4552433732313a207472616e7366657220746f206e6f6e20455243373231526560408201527131b2b4bb32b91034b6b83632b6b2b73a32b960711b606082015260800190565b7f416363657373436f6e74726f6c3a206163636f756e742000000000000000000081526000835161200181601785016020880161193f565b7001034b99036b4b9b9b4b733903937b6329607d1b601791840191820152835161203281602884016020880161193f565b01602801949350505050565b6001600160a01b038581168252841660208201526040810183905260806060820181905260009061207190830184611963565b9695505050505050565b60006020828403121561208d57600080fd5b8151610dc28161190c565b634e487b7160e01b600052601160045260246000fd5b80820281158282048414176103a6576103a6612098565b808201808211156103a6576103a6612098565b634e487b7160e01b600052603260045260246000fd5b6000816120fd576120fd612098565b50600019019056fea2646970667358221220935f60b2eb05a3c9cb01c081e89f56c71b47d7c3436a1e63c8c5ea66cdd5b9e364736f6c63430008130033",
  "linkReferences": {},
  "deployedLinkReferences": {}
}